{
  "contractName": "BurnNMR",
  "abi": [
    {
      "constant": true,
      "inputs": [],
      "name": "getToken",
      "outputs": [
        {
          "internalType": "address",
          "name": "token",
          "type": "address"
        }
      ],
      "payable": false,
      "stateMutability": "pure",
      "type": "function"
    }
  ],
  "bytecode": "0x608060405234801561001057600080fd5b5060c68061001f6000396000f3fe6080604052348015600f57600080fd5b506004361060285760003560e01c806321df0da714602d575b600080fd5b60336075565b604051808273ffffffffffffffffffffffffffffffffffffffff1673ffffffffffffffffffffffffffffffffffffffff16815260200191505060405180910390f35b6000731776e1f26f98b1a5df9cd347953a26dd3cb4667190509056fea265627a7a723158202c200c911247b2a953be138e67c3ccf8f866676b728966470e3302415190648064736f6c634300050d0032",
  "source": "pragma solidity ^0.5.13;\n\nimport \"./iNMR.sol\";\n\n/// @title BurnNMR\n/// @author Stephane Gosselin (@thegostep) for Numerai Inc\n/// @dev Security contact: security@numer.ai\n/// @dev Version: 1.2.0\n/// @notice Allows for calling NMR burn functions using regular openzeppelin ERC20Burnable interface and revert on failure.\ncontract BurnNMR {\n\n    // address of the token\n    address private constant _Token = address(0x1776e1F26f98b1A5dF9cD347953a26dd3Cb46671);\n\n    /// @notice Burns a specific amount of NMR from this contract.\n    /// @param value uint256 The amount of NMR (18 decimals) to be burned.\n    function _burn(uint256 value) internal {\n        require(iNMR(_Token).mint(value), \"nmr burn failed\");\n    }\n\n    /// @dev Burns a specific amount of NMR from the target address and decrements allowance.\n    /// @param from address The account whose tokens will be burned.\n    /// @param value uint256 The amount of NMR (18 decimals) to be burned.\n    function _burnFrom(address from, uint256 value) internal {\n        require(iNMR(_Token).numeraiTransfer(from, value), \"nmr burnFrom failed\");\n    }\n\n    /// @notice Get the NMR token address.\n    /// @return token address The NMR token address.\n    function getToken() public pure returns (address token) {\n        token = _Token;\n    }\n\n}\n",
  "sourcePath": "/home/kim/Code/Erasure/erasure-protocol/contracts/modules/BurnNMR.sol",
  "compiler": {
    "name": "solc",
    "version": "0.5.13+commit.5b0b510c.Emscripten.clang",
    "optimizer": false,
    "runs": 200
  },
  "schemaVersion": "2.2.0",
  "updatedAt": "2019-11-23T03:57:38.402Z"
}