{
  "contractName": "CountdownGriefingEscrow",
  "abi": [
    {
      "anonymous": false,
      "inputs": [],
      "name": "Cancelled",
      "type": "event"
    },
    {
      "anonymous": false,
      "inputs": [
        {
          "indexed": false,
          "internalType": "bytes",
          "name": "data",
          "type": "bytes"
        }
      ],
      "name": "DataSubmitted",
      "type": "event"
    },
    {
      "anonymous": false,
      "inputs": [
        {
          "indexed": false,
          "internalType": "uint256",
          "name": "deadline",
          "type": "uint256"
        }
      ],
      "name": "DeadlineSet",
      "type": "event"
    },
    {
      "anonymous": false,
      "inputs": [
        {
          "indexed": false,
          "internalType": "address",
          "name": "user",
          "type": "address"
        },
        {
          "indexed": false,
          "internalType": "uint256",
          "name": "amount",
          "type": "uint256"
        },
        {
          "indexed": false,
          "internalType": "uint256",
          "name": "newDeposit",
          "type": "uint256"
        }
      ],
      "name": "DepositDecreased",
      "type": "event"
    },
    {
      "anonymous": false,
      "inputs": [
        {
          "indexed": false,
          "internalType": "address",
          "name": "user",
          "type": "address"
        },
        {
          "indexed": false,
          "internalType": "uint256",
          "name": "amount",
          "type": "uint256"
        },
        {
          "indexed": false,
          "internalType": "uint256",
          "name": "newDeposit",
          "type": "uint256"
        }
      ],
      "name": "DepositIncreased",
      "type": "event"
    },
    {
      "anonymous": false,
      "inputs": [
        {
          "indexed": false,
          "internalType": "address",
          "name": "agreement",
          "type": "address"
        }
      ],
      "name": "Finalized",
      "type": "event"
    },
    {
      "anonymous": false,
      "inputs": [
        {
          "indexed": false,
          "internalType": "address",
          "name": "operator",
          "type": "address"
        },
        {
          "indexed": false,
          "internalType": "address",
          "name": "buyer",
          "type": "address"
        },
        {
          "indexed": false,
          "internalType": "address",
          "name": "seller",
          "type": "address"
        },
        {
          "indexed": false,
          "internalType": "uint256",
          "name": "paymentAmount",
          "type": "uint256"
        },
        {
          "indexed": false,
          "internalType": "uint256",
          "name": "stakeAmount",
          "type": "uint256"
        },
        {
          "indexed": false,
          "internalType": "uint256",
          "name": "countdownLength",
          "type": "uint256"
        },
        {
          "indexed": false,
          "internalType": "bytes",
          "name": "metadata",
          "type": "bytes"
        },
        {
          "indexed": false,
          "internalType": "bytes",
          "name": "agreementParams",
          "type": "bytes"
        }
      ],
      "name": "Initialized",
      "type": "event"
    },
    {
      "anonymous": false,
      "inputs": [
        {
          "indexed": false,
          "internalType": "uint256",
          "name": "length",
          "type": "uint256"
        }
      ],
      "name": "LengthSet",
      "type": "event"
    },
    {
      "anonymous": false,
      "inputs": [
        {
          "indexed": false,
          "internalType": "bytes",
          "name": "metadata",
          "type": "bytes"
        }
      ],
      "name": "MetadataSet",
      "type": "event"
    },
    {
      "anonymous": false,
      "inputs": [
        {
          "indexed": false,
          "internalType": "address",
          "name": "operator",
          "type": "address"
        }
      ],
      "name": "OperatorUpdated",
      "type": "event"
    },
    {
      "anonymous": false,
      "inputs": [
        {
          "indexed": false,
          "internalType": "address",
          "name": "buyer",
          "type": "address"
        },
        {
          "indexed": false,
          "internalType": "uint256",
          "name": "amount",
          "type": "uint256"
        }
      ],
      "name": "PaymentDeposited",
      "type": "event"
    },
    {
      "anonymous": false,
      "inputs": [
        {
          "indexed": false,
          "internalType": "address",
          "name": "staker",
          "type": "address"
        },
        {
          "indexed": false,
          "internalType": "address",
          "name": "funder",
          "type": "address"
        },
        {
          "indexed": false,
          "internalType": "uint256",
          "name": "amount",
          "type": "uint256"
        }
      ],
      "name": "StakeAdded",
      "type": "event"
    },
    {
      "anonymous": false,
      "inputs": [
        {
          "indexed": false,
          "internalType": "address",
          "name": "staker",
          "type": "address"
        },
        {
          "indexed": false,
          "internalType": "uint256",
          "name": "amount",
          "type": "uint256"
        }
      ],
      "name": "StakeBurned",
      "type": "event"
    },
    {
      "anonymous": false,
      "inputs": [
        {
          "indexed": false,
          "internalType": "address",
          "name": "seller",
          "type": "address"
        },
        {
          "indexed": false,
          "internalType": "uint256",
          "name": "amount",
          "type": "uint256"
        }
      ],
      "name": "StakeDeposited",
      "type": "event"
    },
    {
      "anonymous": false,
      "inputs": [
        {
          "indexed": false,
          "internalType": "address",
          "name": "staker",
          "type": "address"
        },
        {
          "indexed": false,
          "internalType": "address",
          "name": "recipient",
          "type": "address"
        },
        {
          "indexed": false,
          "internalType": "uint256",
          "name": "amount",
          "type": "uint256"
        }
      ],
      "name": "StakeTaken",
      "type": "event"
    },
    {
      "constant": true,
      "inputs": [],
      "name": "getCountdownStatus",
      "outputs": [
        {
          "internalType": "enum Countdown.CountdownStatus",
          "name": "status",
          "type": "uint8"
        }
      ],
      "payable": false,
      "stateMutability": "view",
      "type": "function"
    },
    {
      "constant": true,
      "inputs": [],
      "name": "getCreator",
      "outputs": [
        {
          "internalType": "address",
          "name": "creator",
          "type": "address"
        }
      ],
      "payable": false,
      "stateMutability": "view",
      "type": "function"
    },
    {
      "constant": true,
      "inputs": [],
      "name": "getDeadline",
      "outputs": [
        {
          "internalType": "uint256",
          "name": "deadline",
          "type": "uint256"
        }
      ],
      "payable": false,
      "stateMutability": "view",
      "type": "function"
    },
    {
      "constant": true,
      "inputs": [],
      "name": "getDeadlineStatus",
      "outputs": [
        {
          "internalType": "enum Deadline.DeadlineStatus",
          "name": "status",
          "type": "uint8"
        }
      ],
      "payable": false,
      "stateMutability": "view",
      "type": "function"
    },
    {
      "constant": true,
      "inputs": [
        {
          "internalType": "address",
          "name": "user",
          "type": "address"
        }
      ],
      "name": "getDeposit",
      "outputs": [
        {
          "internalType": "uint256",
          "name": "deposit",
          "type": "uint256"
        }
      ],
      "payable": false,
      "stateMutability": "view",
      "type": "function"
    },
    {
      "constant": true,
      "inputs": [],
      "name": "getFactory",
      "outputs": [
        {
          "internalType": "address",
          "name": "factory",
          "type": "address"
        }
      ],
      "payable": false,
      "stateMutability": "view",
      "type": "function"
    },
    {
      "constant": true,
      "inputs": [],
      "name": "getLength",
      "outputs": [
        {
          "internalType": "uint256",
          "name": "length",
          "type": "uint256"
        }
      ],
      "payable": false,
      "stateMutability": "view",
      "type": "function"
    },
    {
      "constant": true,
      "inputs": [],
      "name": "getOperator",
      "outputs": [
        {
          "internalType": "address",
          "name": "operator",
          "type": "address"
        }
      ],
      "payable": false,
      "stateMutability": "view",
      "type": "function"
    },
    {
      "constant": true,
      "inputs": [
        {
          "internalType": "address",
          "name": "staker",
          "type": "address"
        }
      ],
      "name": "getStake",
      "outputs": [
        {
          "internalType": "uint256",
          "name": "stake",
          "type": "uint256"
        }
      ],
      "payable": false,
      "stateMutability": "view",
      "type": "function"
    },
    {
      "constant": true,
      "inputs": [],
      "name": "getTimeRemaining",
      "outputs": [
        {
          "internalType": "uint256",
          "name": "time",
          "type": "uint256"
        }
      ],
      "payable": false,
      "stateMutability": "view",
      "type": "function"
    },
    {
      "constant": true,
      "inputs": [],
      "name": "getToken",
      "outputs": [
        {
          "internalType": "address",
          "name": "token",
          "type": "address"
        }
      ],
      "payable": false,
      "stateMutability": "pure",
      "type": "function"
    },
    {
      "constant": false,
      "inputs": [
        {
          "internalType": "address",
          "name": "operator",
          "type": "address"
        },
        {
          "internalType": "address",
          "name": "buyer",
          "type": "address"
        },
        {
          "internalType": "address",
          "name": "seller",
          "type": "address"
        },
        {
          "internalType": "uint256",
          "name": "paymentAmount",
          "type": "uint256"
        },
        {
          "internalType": "uint256",
          "name": "stakeAmount",
          "type": "uint256"
        },
        {
          "internalType": "uint256",
          "name": "escrowCountdown",
          "type": "uint256"
        },
        {
          "internalType": "bytes",
          "name": "metadata",
          "type": "bytes"
        },
        {
          "internalType": "bytes",
          "name": "agreementParams",
          "type": "bytes"
        }
      ],
      "name": "initialize",
      "outputs": [],
      "payable": false,
      "stateMutability": "nonpayable",
      "type": "function"
    },
    {
      "constant": false,
      "inputs": [
        {
          "internalType": "bytes",
          "name": "metadata",
          "type": "bytes"
        }
      ],
      "name": "setMetadata",
      "outputs": [],
      "payable": false,
      "stateMutability": "nonpayable",
      "type": "function"
    },
    {
      "constant": false,
      "inputs": [
        {
          "internalType": "address",
          "name": "seller",
          "type": "address"
        }
      ],
      "name": "depositAndSetSeller",
      "outputs": [],
      "payable": false,
      "stateMutability": "nonpayable",
      "type": "function"
    },
    {
      "constant": false,
      "inputs": [],
      "name": "depositStake",
      "outputs": [],
      "payable": false,
      "stateMutability": "nonpayable",
      "type": "function"
    },
    {
      "constant": false,
      "inputs": [
        {
          "internalType": "address",
          "name": "buyer",
          "type": "address"
        }
      ],
      "name": "depositAndSetBuyer",
      "outputs": [],
      "payable": false,
      "stateMutability": "nonpayable",
      "type": "function"
    },
    {
      "constant": false,
      "inputs": [],
      "name": "depositPayment",
      "outputs": [],
      "payable": false,
      "stateMutability": "nonpayable",
      "type": "function"
    },
    {
      "constant": false,
      "inputs": [],
      "name": "finalize",
      "outputs": [],
      "payable": false,
      "stateMutability": "nonpayable",
      "type": "function"
    },
    {
      "constant": false,
      "inputs": [
        {
          "internalType": "bytes",
          "name": "data",
          "type": "bytes"
        }
      ],
      "name": "submitData",
      "outputs": [],
      "payable": false,
      "stateMutability": "nonpayable",
      "type": "function"
    },
    {
      "constant": false,
      "inputs": [],
      "name": "cancel",
      "outputs": [],
      "payable": false,
      "stateMutability": "nonpayable",
      "type": "function"
    },
    {
      "constant": false,
      "inputs": [],
      "name": "timeout",
      "outputs": [],
      "payable": false,
      "stateMutability": "nonpayable",
      "type": "function"
    },
    {
      "constant": false,
      "inputs": [
        {
          "internalType": "address",
          "name": "operator",
          "type": "address"
        }
      ],
      "name": "transferOperator",
      "outputs": [],
      "payable": false,
      "stateMutability": "nonpayable",
      "type": "function"
    },
    {
      "constant": false,
      "inputs": [],
      "name": "renounceOperator",
      "outputs": [],
      "payable": false,
      "stateMutability": "nonpayable",
      "type": "function"
    },
    {
      "constant": true,
      "inputs": [],
      "name": "getBuyer",
      "outputs": [
        {
          "internalType": "address",
          "name": "buyer",
          "type": "address"
        }
      ],
      "payable": false,
      "stateMutability": "view",
      "type": "function"
    },
    {
      "constant": true,
      "inputs": [],
      "name": "getSeller",
      "outputs": [
        {
          "internalType": "address",
          "name": "seller",
          "type": "address"
        }
      ],
      "payable": false,
      "stateMutability": "view",
      "type": "function"
    },
    {
      "constant": true,
      "inputs": [],
      "name": "getData",
      "outputs": [
        {
          "internalType": "uint128",
          "name": "paymentAmount",
          "type": "uint128"
        },
        {
          "internalType": "uint128",
          "name": "stakeAmount",
          "type": "uint128"
        },
        {
          "internalType": "uint120",
          "name": "ratio",
          "type": "uint120"
        },
        {
          "internalType": "enum Griefing.RatioType",
          "name": "ratioType",
          "type": "uint8"
        },
        {
          "internalType": "uint128",
          "name": "countdownLength",
          "type": "uint128"
        }
      ],
      "payable": false,
      "stateMutability": "view",
      "type": "function"
    },
    {
      "constant": true,
      "inputs": [],
      "name": "getEscrowStatus",
      "outputs": [
        {
          "internalType": "enum CountdownGriefingEscrow.EscrowStatus",
          "name": "status",
          "type": "uint8"
        }
      ],
      "payable": false,
      "stateMutability": "view",
      "type": "function"
    }
  ],
  "bytecode": "0x608060405234801561001057600080fd5b50614269806100206000396000f3fe608060405234801561001057600080fd5b50600436106101a95760003560e01c80637a766460116100f9578063dbd0e1b611610097578063e7f43c6811610071578063e7f43c681461073d578063e918e83214610787578063ea8a1af014610958578063ee57e36f14610962576101a9565b8063dbd0e1b61461066f578063de2229fe146106b9578063e1254fba146106e5576101a9565b8063aa5e2153116100d3578063aa5e21531461056e578063b7ac763f14610578578063be1c766b14610633578063dac6270d14610651576101a9565b80637a766460146104885780637fe07abf146104e057806388cc58e414610524576101a9565b80633bc5de3011610166578063603daf9a11610140578063603daf9a146103c45780636234216d1461040e578063665b0a191461043a57806370dea79a1461047e576101a9565b80633bc5de30146102c65780634bb278f31461039c5780635f8d96de146103a6576101a9565b80630d2d76a2146101ae5780630ee2cb10146101b857806319fbb48e1461020257806321df0da71461022e57806329605e77146102785780632ab6f8db146102bc575b600080fd5b6101b6610a1d565b005b6101c0610b7a565b604051808273ffffffffffffffffffffffffffffffffffffffff1673ffffffffffffffffffffffffffffffffffffffff16815260200191505060405180910390f35b61020a610c5b565b6040518082600381111561021a57fe5b60ff16815260200191505060405180910390f35b610236610cd4565b604051808273ffffffffffffffffffffffffffffffffffffffff1673ffffffffffffffffffffffffffffffffffffffff16815260200191505060405180910390f35b6102ba6004803603602081101561028e57600080fd5b81019080803573ffffffffffffffffffffffffffffffffffffffff169060200190929190505050610cf0565b005b6102c4610d77565b005b6102ce610dfc565b60405180866fffffffffffffffffffffffffffffffff166fffffffffffffffffffffffffffffffff168152602001856fffffffffffffffffffffffffffffffff166fffffffffffffffffffffffffffffffff168152602001846effffffffffffffffffffffffffffff166effffffffffffffffffffffffffffff16815260200183600281111561035a57fe5b60ff168152602001826fffffffffffffffffffffffffffffffff166fffffffffffffffffffffffffffffffff1681526020019550505050505060405180910390f35b6103a4610eb8565b005b6103ae611a9d565b6040518082815260200191505060405180910390f35b6103cc611aa6565b604051808273ffffffffffffffffffffffffffffffffffffffff1673ffffffffffffffffffffffffffffffffffffffff16815260200191505060405180910390f35b610416611ad3565b6040518082600581111561042657fe5b60ff16815260200191505060405180910390f35b61047c6004803603602081101561045057600080fd5b81019080803573ffffffffffffffffffffffffffffffffffffffff169060200190929190505050611aed565b005b610486611c03565b005b6104ca6004803603602081101561049e57600080fd5b81019080803573ffffffffffffffffffffffffffffffffffffffff169060200190929190505050611d22565b6040518082815260200191505060405180910390f35b610522600480360360208110156104f657600080fd5b81019080803573ffffffffffffffffffffffffffffffffffffffff169060200190929190505050611d34565b005b61052c611e4a565b604051808273ffffffffffffffffffffffffffffffffffffffff1673ffffffffffffffffffffffffffffffffffffffff16815260200191505060405180910390f35b610576611e74565b005b6106316004803603602081101561058e57600080fd5b81019080803590602001906401000000008111156105ab57600080fd5b8201836020820111156105bd57600080fd5b803590602001918460018302840111640100000000831117156105df57600080fd5b91908080601f016020809104026020016040519081016040528093929190818152602001838380828437600081840152601f19601f820116905080830192505050505050509192919290505050611fd1565b005b61063b612175565b6040518082815260200191505060405180910390f35b61065961217f565b6040518082815260200191505060405180910390f35b6106776121af565b604051808273ffffffffffffffffffffffffffffffffffffffff1673ffffffffffffffffffffffffffffffffffffffff16815260200191505060405180910390f35b6106c16121dc565b604051808260028111156106d157fe5b60ff16815260200191505060405180910390f35b610727600480360360208110156106fb57600080fd5b81019080803573ffffffffffffffffffffffffffffffffffffffff16906020019092919050505061220c565b6040518082815260200191505060405180910390f35b610745612255565b604051808273ffffffffffffffffffffffffffffffffffffffff1673ffffffffffffffffffffffffffffffffffffffff16815260200191505060405180910390f35b610956600480360361010081101561079e57600080fd5b81019080803573ffffffffffffffffffffffffffffffffffffffff169060200190929190803573ffffffffffffffffffffffffffffffffffffffff169060200190929190803573ffffffffffffffffffffffffffffffffffffffff1690602001909291908035906020019092919080359060200190929190803590602001909291908035906020019064010000000081111561083957600080fd5b82018360208201111561084b57600080fd5b8035906020019184600183028401116401000000008311171561086d57600080fd5b91908080601f016020809104026020016040519081016040528093929190818152602001838380828437600081840152601f19601f820116905080830192505050505050509192919290803590602001906401000000008111156108d057600080fd5b8201836020820111156108e257600080fd5b8035906020019184600183028401116401000000008311171561090457600080fd5b91908080601f016020809104026020016040519081016040528093929190818152602001838380828437600081840152601f19601f82011690508083019250505050505050919291929050505061227f565b005b610960612a27565b005b610a1b6004803603602081101561097857600080fd5b810190808035906020019064010000000081111561099557600080fd5b8201836020820111156109a757600080fd5b803590602001918460018302840111640100000000831117156109c957600080fd5b91908080601f016020809104026020016040519081016040528093929190818152602001838380828437600081840152601f19601f820116905080830192505050505050509192919290505050612b47565b005b600073ffffffffffffffffffffffffffffffffffffffff16600560010160009054906101000a900473ffffffffffffffffffffffffffffffffffffffff1673ffffffffffffffffffffffffffffffffffffffff161415610ae5576040517f08c379a00000000000000000000000000000000000000000000000000000000081526004018080602001828103825260128152602001807f73656c6c6572206e6f742079657420736574000000000000000000000000000081525060200191505060405180910390fd5b610aee33612bce565b80610afe5750610afd33612c0d565b5b610b70576040517f08c379a00000000000000000000000000000000000000000000000000000000081526004018080602001828103825260178152602001807f6f6e6c792073656c6c6572206f72206f70657261746f7200000000000000000081525060200191505060405180910390fd5b610b78612c67565b565b6000600460009054906101000a900473ffffffffffffffffffffffffffffffffffffffff1673ffffffffffffffffffffffffffffffffffffffff16636bf71982306040518263ffffffff1660e01b8152600401808273ffffffffffffffffffffffffffffffffffffffff1673ffffffffffffffffffffffffffffffffffffffff16815260200191505060206040518083038186803b158015610c1b57600080fd5b505afa158015610c2f573d6000803e3d6000fd5b505050506040513d6020811015610c4557600080fd5b8101908080519060200190929190505050905090565b6000806001541415610c705760009050610cd1565b60006002811115610c7d57fe5b610c856121dc565b6002811115610c9057fe5b1415610c9f5760019050610cd1565b600280811115610cab57fe5b610cb36121dc565b6002811115610cbe57fe5b14610ccc5760029050610cd1565b600390505b90565b6000731776e1f26f98b1a5df9cd347953a26dd3cb46671905090565b610cf933612c0d565b610d6b576040517f08c379a000000000000000000000000000000000000000000000000000000000815260040180806020018281038252600d8152602001807f6f6e6c79206f70657261746f720000000000000000000000000000000000000081525060200191505060405180910390fd5b610d7481612e3e565b50565b610d8033612c0d565b610df2576040517f08c379a000000000000000000000000000000000000000000000000000000000815260040180806020018281038252600d8152602001807f6f6e6c79206f70657261746f720000000000000000000000000000000000000081525060200191505060405180910390fd5b610dfa61304d565b565b6000806000806000600560020160009054906101000a90046fffffffffffffffffffffffffffffffff16600560020160109054906101000a90046fffffffffffffffffffffffffffffffff16600560040160000160009054906101000a90046effffffffffffffffffffffffffffff166005600401600001600f9054906101000a900460ff16600560040160000160109054906101000a90046fffffffffffffffffffffffffffffffff16945094509450945094509091929394565b610ec133612bce565b80610ed15750610ed033612c0d565b5b610f43576040517f08c379a00000000000000000000000000000000000000000000000000000000081526004018080602001828103825260178152602001807f6f6e6c792073656c6c6572206f72206f70657261746f7200000000000000000081525060200191505060405180910390fd5b610f4b6131ba565b610fbd576040517f08c379a00000000000000000000000000000000000000000000000000000000081526004018080602001828103825260128152602001807f6f6e6c79206166746572206465706f736974000000000000000000000000000081525060200191505060405180910390fd5b600080610fc8611e4a565b905060008173ffffffffffffffffffffffffffffffffffffffff1663a5e139046040518163ffffffff1660e01b815260040160206040518083038186803b15801561101257600080fd5b505afa158015611026573d6000803e3d6000fd5b505050506040513d602081101561103c57600080fd5b8101908080519060200190929190505050905060008173ffffffffffffffffffffffffffffffffffffffff166345bdfb1e846040518263ffffffff1660e01b8152600401808273ffffffffffffffffffffffffffffffffffffffff1673ffffffffffffffffffffffffffffffffffffffff16815260200191505060006040518083038186803b1580156110ce57600080fd5b505afa1580156110e2573d6000803e3d6000fd5b505050506040513d6000823e3d601f19601f82011682018060405250602081101561110c57600080fd5b810190808051604051939291908464010000000082111561112c57600080fd5b8382019150602082018581111561114257600080fd5b825186600182028301116401000000008211171561115f57600080fd5b8083526020830192505050908051906020019080838360005b83811015611193578082015181840152602081019050611178565b50505050905090810190601f1680156111c05780820380516001836020036101000a031916815260200191505b5060405250505080602001905160208110156111db57600080fd5b81019080805190602001909291905050509050606030600560010160009054906101000a900473ffffffffffffffffffffffffffffffffffffffff16600560000160009054906101000a900473ffffffffffffffffffffffffffffffffffffffff16600560040160000160009054906101000a90046effffffffffffffffffffffffffffff166effffffffffffffffffffffffffffff166005600401600001600f9054906101000a900460ff16600560040160000160109054906101000a90046fffffffffffffffffffffffffffffffff166fffffffffffffffffffffffffffffffff1660405180602001604052806000815250604051602401808873ffffffffffffffffffffffffffffffffffffffff1673ffffffffffffffffffffffffffffffffffffffff1681526020018773ffffffffffffffffffffffffffffffffffffffff1673ffffffffffffffffffffffffffffffffffffffff1681526020018673ffffffffffffffffffffffffffffffffffffffff1673ffffffffffffffffffffffffffffffffffffffff16815260200185815260200184600281111561137e57fe5b60ff16815260200183815260200180602001828103825283818151815260200191508051906020019080838360005b838110156113c85780820151818401526020810190506113ad565b50505050905090810190601f1680156113f55780820380516001836020036101000a031916815260200191505b50985050505050505050506040516020818303038152906040527fb6ef4284000000000000000000000000000000000000000000000000000000007bffffffffffffffffffffffffffffffffffffffffffffffffffffffff19166020820180517bffffffffffffffffffffffffffffffffffffffffffffffffffffffff838183161783525050505090508173ffffffffffffffffffffffffffffffffffffffff1663cf5ba53f826040518263ffffffff1660e01b81526004018080602001828103825283818151815260200191508051906020019080838360005b838110156114eb5780820151818401526020810190506114d0565b50505050905090810190601f1680156115185780820380516001836020036101000a031916815260200191505b5092505050602060405180830381600087803b15801561153757600080fd5b505af115801561154b573d6000803e3d6000fd5b505050506040513d602081101561156157600080fd5b81019080805190602001909291905050509450505050506000806115a9600560000160009054906101000a900473ffffffffffffffffffffffffffffffffffffffff166131e2565b905060006115db600560010160009054906101000a900473ffffffffffffffffffffffffffffffffffffffff166131e2565b90506115f0818361323b90919063ffffffff16565b9250505060008111156117a457611605610cd4565b73ffffffffffffffffffffffffffffffffffffffff1663095ea7b383836040518363ffffffff1660e01b8152600401808373ffffffffffffffffffffffffffffffffffffffff1673ffffffffffffffffffffffffffffffffffffffff16815260200182815260200192505050602060405180830381600087803b15801561168b57600080fd5b505af115801561169f573d6000803e3d6000fd5b505050506040513d60208110156116b557600080fd5b8101908080519060200190929190505050611738576040517f08c379a00000000000000000000000000000000000000000000000000000000081526004018080602001828103825260158152602001807f746f6b656e20617070726f76616c206661696c6564000000000000000000000081525060200191505060405180910390fd5b8173ffffffffffffffffffffffffffffffffffffffff1663eedad66b826040518263ffffffff1660e01b815260040180828152602001915050600060405180830381600087803b15801561178b57600080fd5b505af115801561179f573d6000803e3d6000fd5b505050505b8173ffffffffffffffffffffffffffffffffffffffff16635e5365c16040518163ffffffff1660e01b8152600401602060405180830381600087803b1580156117ec57600080fd5b505af1158015611800573d6000803e3d6000fd5b505050506040513d602081101561181657600080fd5b8101908080519060200190929190505050506000611832612255565b9050600073ffffffffffffffffffffffffffffffffffffffff168173ffffffffffffffffffffffffffffffffffffffff1614611904578273ffffffffffffffffffffffffffffffffffffffff166329605e77826040518263ffffffff1660e01b8152600401808273ffffffffffffffffffffffffffffffffffffffff1673ffffffffffffffffffffffffffffffffffffffff168152602001915050600060405180830381600087803b1580156118e757600080fd5b505af11580156118fb573d6000803e3d6000fd5b50505050611965565b8273ffffffffffffffffffffffffffffffffffffffff16632ab6f8db6040518163ffffffff1660e01b8152600401600060405180830381600087803b15801561194c57600080fd5b505af1158015611960573d6000803e3d6000fd5b505050505b6004600560030160006101000a81548160ff0219169083600581111561198757fe5b0217905550600560020160006101000a8154906fffffffffffffffffffffffffffffffff0219169055600560020160106101000a8154906fffffffffffffffffffffffffffffffff02191690556005600401600080820160006101000a8154906effffffffffffffffffffffffffffff021916905560008201600f6101000a81549060ff02191690556000820160106101000a8154906fffffffffffffffffffffffffffffffff021916905550507f8e500951de09bcc6854e88c0810bafb819503505895751e657a92df6578d3d9983604051808273ffffffffffffffffffffffffffffffffffffffff1673ffffffffffffffffffffffffffffffffffffffff16815260200191505060405180910390a1505050565b60008054905090565b6000600560000160009054906101000a900473ffffffffffffffffffffffffffffffffffffffff16905090565b6000600560030160009054906101000a900460ff16905090565b600073ffffffffffffffffffffffffffffffffffffffff16600560010160009054906101000a900473ffffffffffffffffffffffffffffffffffffffff1673ffffffffffffffffffffffffffffffffffffffff1614611bb4576040517f08c379a00000000000000000000000000000000000000000000000000000000081526004018080602001828103825260128152602001807f73656c6c657220616c726561647920736574000000000000000000000000000081525060200191505060405180910390fd5b80600560010160006101000a81548173ffffffffffffffffffffffffffffffffffffffff021916908373ffffffffffffffffffffffffffffffffffffffff160217905550611c00612c67565b50565b611c0c336132c3565b80611c1c5750611c1b33612c0d565b5b611c8e576040517f08c379a00000000000000000000000000000000000000000000000000000000081526004018080602001828103825260168152602001807f6f6e6c79206275796572206f72206f70657261746f720000000000000000000081525060200191505060405180910390fd5b611c966131ba565b8015611ca65750611ca5613302565b5b611d18576040517f08c379a000000000000000000000000000000000000000000000000000000000815260040180806020018281038252601a8152602001807f6f6e6c7920616674657220636f756e74646f776e20656e64656400000000000081525060200191505060405180910390fd5b611d20613329565b565b6000611d2d8261220c565b9050919050565b600073ffffffffffffffffffffffffffffffffffffffff16600560000160009054906101000a900473ffffffffffffffffffffffffffffffffffffffff1673ffffffffffffffffffffffffffffffffffffffff1614611dfb576040517f08c379a00000000000000000000000000000000000000000000000000000000081526004018080602001828103825260118152602001807f627579657220616c72656164792073657400000000000000000000000000000081525060200191505060405180910390fd5b80600560000160006101000a81548173ffffffffffffffffffffffffffffffffffffffff021916908373ffffffffffffffffffffffffffffffffffffffff160217905550611e476134b4565b50565b6000600460009054906101000a900473ffffffffffffffffffffffffffffffffffffffff16905090565b600073ffffffffffffffffffffffffffffffffffffffff16600560000160009054906101000a900473ffffffffffffffffffffffffffffffffffffffff1673ffffffffffffffffffffffffffffffffffffffff161415611f3c576040517f08c379a00000000000000000000000000000000000000000000000000000000081526004018080602001828103825260118152602001807f6275796572206e6f74207965742073657400000000000000000000000000000081525060200191505060405180910390fd5b611f45336132c3565b80611f555750611f5433612c0d565b5b611fc7576040517f08c379a00000000000000000000000000000000000000000000000000000000081526004018080602001828103825260168152602001807f6f6e6c79206275796572206f72206f70657261746f720000000000000000000081525060200191505060405180910390fd5b611fcf6134b4565b565b611fda33612bce565b80611fea5750611fe933612c0d565b5b61205c576040517f08c379a00000000000000000000000000000000000000000000000000000000081526004018080602001828103825260178152602001807f6f6e6c792073656c6c6572206f72206f70657261746f7200000000000000000081525060200191505060405180910390fd5b61206461368c565b6120d6576040517f08c379a00000000000000000000000000000000000000000000000000000000081526004018080602001828103825260148152602001807f6f6e6c792061667465722066696e616c697a656400000000000000000000000081525060200191505060405180910390fd5b7ffdf4f8571e6f770be30bc9e95e66f21bc368a871788c0b61c32628b1a8af1157816040518080602001828103825283818151815260200191508051906020019080838360005b8381101561213857808201518184015260208101905061211d565b50505050905090810190601f1680156121655780820380516001836020036101000a031916815260200191505b509250505060405180910390a150565b6000600154905090565b60004260005411156121a7576121a0426000546136b490919063ffffffff16565b90506121ac565b600090505b90565b6000600560010160009054906101000a900473ffffffffffffffffffffffffffffffffffffffff16905090565b60008060005414156121f15760009050612209565b4260005411156122045760019050612209565b600290505b90565b6000600260008373ffffffffffffffffffffffffffffffffffffffff1673ffffffffffffffffffffffffffffffffffffffff168152602001908152602001600020549050919050565b6000600360009054906101000a900473ffffffffffffffffffffffffffffffffffffffff16905090565b33600460006101000a81548173ffffffffffffffffffffffffffffffffffffffff021916908373ffffffffffffffffffffffffffffffffffffffff1602179055506000303b905060008163ffffffff1614612325576040517f08c379a000000000000000000000000000000000000000000000000000000000815260040180806020018281038252602a8152602001806141e9602a913960400191505060405180910390fd5b600073ffffffffffffffffffffffffffffffffffffffff168873ffffffffffffffffffffffffffffffffffffffff161461239e5787600560000160006101000a81548173ffffffffffffffffffffffffffffffffffffffff021916908373ffffffffffffffffffffffffffffffffffffffff1602179055505b600073ffffffffffffffffffffffffffffffffffffffff168773ffffffffffffffffffffffffffffffffffffffff16146124175786600560010160006101000a81548173ffffffffffffffffffffffffffffffffffffffff021916908373ffffffffffffffffffffffffffffffffffffffff1602179055505b600073ffffffffffffffffffffffffffffffffffffffff168973ffffffffffffffffffffffffffffffffffffffff1614612455576124548961373d565b5b6000861461252257856fffffffffffffffffffffffffffffffff168611156124e5576040517f08c379a000000000000000000000000000000000000000000000000000000000815260040180806020018281038252601a8152602001807f7061796d656e74416d6f756e7420697320746f6f206c6172676500000000000081525060200191505060405180910390fd5b85600560020160006101000a8154816fffffffffffffffffffffffffffffffff02191690836fffffffffffffffffffffffffffffffff1602179055505b600085146125ee57846fffffffffffffffffffffffffffffffff1685146125b1576040517f08c379a00000000000000000000000000000000000000000000000000000000081526004018080602001828103825260188152602001807f7374616b65416d6f756e7420697320746f6f206c61726765000000000000000081525060200191505060405180910390fd5b84600560020160106101000a8154816fffffffffffffffffffffffffffffffff02191690836fffffffffffffffffffffffffffffffff1602179055505b6125f78461394b565b600083511461260a576126098361398c565b5b600082511461285f57600080600084806020019051606081101561262d57600080fd5b81019080805190602001909291908051906020019092919080519060200190929190505050925092509250826effffffffffffffffffffffffffffff1683146126de576040517f08c379a00000000000000000000000000000000000000000000000000000000081526004018080602001828103825260138152602001807f726174696f206f7574206f6620626f756e64730000000000000000000000000081525060200191505060405180910390fd5b806fffffffffffffffffffffffffffffffff168114612765576040517f08c379a00000000000000000000000000000000000000000000000000000000081526004018080602001828103825260208152602001807f61677265656d656e74436f756e74646f776e206f7574206f6620626f756e647381525060200191505060405180910390fd5b6040518060600160405280846effffffffffffffffffffffffffffff16815260200183600281111561279357fe5b8152602001826fffffffffffffffffffffffffffffffff16815250600560040160008201518160000160006101000a8154816effffffffffffffffffffffffffffff02191690836effffffffffffffffffffffffffffff160217905550602082015181600001600f6101000a81548160ff0219169083600281111561281457fe5b021790555060408201518160000160106101000a8154816fffffffffffffffffffffffffffffffff02191690836fffffffffffffffffffffffffffffffff1602179055509050505050505b7fdc95ca3bf48f3bb46d5184848d99d8480caeb704626c00d25957dcd672fb73a48989898989898989604051808973ffffffffffffffffffffffffffffffffffffffff1673ffffffffffffffffffffffffffffffffffffffff1681526020018873ffffffffffffffffffffffffffffffffffffffff1673ffffffffffffffffffffffffffffffffffffffff1681526020018773ffffffffffffffffffffffffffffffffffffffff1673ffffffffffffffffffffffffffffffffffffffff1681526020018681526020018581526020018481526020018060200180602001838103835285818151815260200191508051906020019080838360005b83811015612974578082015181840152602081019050612959565b50505050905090810190601f1680156129a15780820380516001836020036101000a031916815260200191505b50838103825284818151815260200191508051906020019080838360005b838110156129da5780820151818401526020810190506129bf565b50505050905090810190601f168015612a075780820380516001836020036101000a031916815260200191505b509a505050505050505050505060405180910390a1505050505050505050565b612a3033612bce565b80612a405750612a3f336132c3565b5b80612a505750612a4f33612c0d565b5b612ac2576040517f08c379a00000000000000000000000000000000000000000000000000000000081526004018080602001828103825260208152602001807f6f6e6c792073656c6c6572206f72206275796572206f72206f70657261746f7281525060200191505060405180910390fd5b612aca613a2b565b80612ad95750612ad8613a52565b5b80612ae85750612ae7613a7a565b5b612b3d576040517f08c379a00000000000000000000000000000000000000000000000000000000081526004018080602001828103825260228152602001806142136022913960400191505060405180910390fd5b612b45613329565b565b612b5033612c0d565b612bc2576040517f08c379a000000000000000000000000000000000000000000000000000000000815260040180806020018281038252600d8152602001807f6f6e6c79206f70657261746f720000000000000000000000000000000000000081525060200191505060405180910390fd5b612bcb8161398c565b50565b6000612bd86121af565b73ffffffffffffffffffffffffffffffffffffffff168273ffffffffffffffffffffffffffffffffffffffff16149050919050565b6000600360009054906101000a900473ffffffffffffffffffffffffffffffffffffffff1673ffffffffffffffffffffffffffffffffffffffff168273ffffffffffffffffffffffffffffffffffffffff16149050919050565b612c6f613a2b565b80612c7e5750612c7d613a7a565b5b612cf0576040517f08c379a000000000000000000000000000000000000000000000000000000000815260040180806020018281038252601b8152602001807f63616e206f6e6c79206465706f736974207374616b65206f6e6365000000000081525060200191505060405180910390fd5b6000600560010160009054906101000a900473ffffffffffffffffffffffffffffffffffffffff1690506000600560020160109054906101000a90046fffffffffffffffffffffffffffffffff166fffffffffffffffffffffffffffffffff16905060008114612d6657612d65823383613aa2565b5b7f0a7bb2e28cc4698aac06db79cf9163bfcc20719286cf59fa7d492ceda1b8edc28282604051808373ffffffffffffffffffffffffffffffffffffffff1673ffffffffffffffffffffffffffffffffffffffff1681526020018281526020019250505060405180910390a1612dd9613a7a565b15612e12576003600560030160006101000a81548160ff02191690836005811115612e0057fe5b0217905550612e0d610eb8565b612e3a565b6001600560030160006101000a81548160ff02191690836005811115612e3457fe5b02179055505b5050565b600073ffffffffffffffffffffffffffffffffffffffff16600360009054906101000a900473ffffffffffffffffffffffffffffffffffffffff1673ffffffffffffffffffffffffffffffffffffffff161415612f03576040517f08c379a00000000000000000000000000000000000000000000000000000000081526004018080602001828103825260168152602001807f6f6e6c79207768656e206f70657261746f72207365740000000000000000000081525060200191505060405180910390fd5b600073ffffffffffffffffffffffffffffffffffffffff168173ffffffffffffffffffffffffffffffffffffffff161415612fa6576040517f08c379a00000000000000000000000000000000000000000000000000000000081526004018080602001828103825260208152602001807f63616e6e6f7420736574206f70657261746f7220746f2061646472657373203081525060200191505060405180910390fd5b80600360006101000a81548173ffffffffffffffffffffffffffffffffffffffff021916908373ffffffffffffffffffffffffffffffffffffffff1602179055507fb3b3f5f64ab192e4b5fefde1f51ce9733bbdcf831951543b325aebd49cc27ec481604051808273ffffffffffffffffffffffffffffffffffffffff1673ffffffffffffffffffffffffffffffffffffffff16815260200191505060405180910390a150565b600073ffffffffffffffffffffffffffffffffffffffff16600360009054906101000a900473ffffffffffffffffffffffffffffffffffffffff1673ffffffffffffffffffffffffffffffffffffffff161415613112576040517f08c379a00000000000000000000000000000000000000000000000000000000081526004018080602001828103825260168152602001807f6f6e6c79207768656e206f70657261746f72207365740000000000000000000081525060200191505060405180910390fd5b6000600360006101000a81548173ffffffffffffffffffffffffffffffffffffffff021916908373ffffffffffffffffffffffffffffffffffffffff1602179055507fb3b3f5f64ab192e4b5fefde1f51ce9733bbdcf831951543b325aebd49cc27ec46000604051808273ffffffffffffffffffffffffffffffffffffffff1673ffffffffffffffffffffffffffffffffffffffff16815260200191505060405180910390a1565b6000600360058111156131c957fe5b6131d1611ad3565b60058111156131dc57fe5b14905090565b600080600260008473ffffffffffffffffffffffffffffffffffffffff1673ffffffffffffffffffffffffffffffffffffffff1681526020019081526020016000205490506132318382613cc0565b5080915050919050565b6000808284019050838110156132b9576040517f08c379a000000000000000000000000000000000000000000000000000000000815260040180806020018281038252601b8152602001807f536166654d6174683a206164646974696f6e206f766572666c6f77000000000081525060200191505060405180910390fd5b8091505092915050565b60006132cd611aa6565b73ffffffffffffffffffffffffffffffffffffffff168273ffffffffffffffffffffffffffffffffffffffff16149050919050565b600060038081111561331057fe5b613318610c5b565b600381111561332357fe5b14905090565b6000600560010160009054906101000a900473ffffffffffffffffffffffffffffffffffffffff1690506000600560000160009054906101000a900473ffffffffffffffffffffffffffffffffffffffff169050600061338883611d22565b14613399576133978283613e51565b505b60006133a482611d22565b146133b5576133b38182613e51565b505b60058060030160006101000a81548160ff021916908360058111156133d657fe5b0217905550600560020160006101000a8154906fffffffffffffffffffffffffffffffff0219169055600560020160106101000a8154906fffffffffffffffffffffffffffffffff02191690556005600401600080820160006101000a8154906effffffffffffffffffffffffffffff021916905560008201600f6101000a81549060ff02191690556000820160106101000a8154906fffffffffffffffffffffffffffffffff021916905550507f63b958841f79ab97cb5456da181454b9932c0e15a3b17f1cbd27e2a8bc61043760405160405180910390a15050565b6134bc613a2b565b806134cb57506134ca613a52565b5b61353d576040517f08c379a000000000000000000000000000000000000000000000000000000000815260040180806020018281038252601d8152602001807f63616e206f6e6c79206465706f736974207061796d656e74206f6e636500000081525060200191505060405180910390fd5b6000600560000160009054906101000a900473ffffffffffffffffffffffffffffffffffffffff1690506000600560020160009054906101000a90046fffffffffffffffffffffffffffffffff166fffffffffffffffffffffffffffffffff169050600081146135b3576135b2823383613aa2565b5b7fd348a8f42fae8db1d0030271b37ed6d94a5e292ff36db57b244ffe13f494dd458282604051808373ffffffffffffffffffffffffffffffffffffffff1673ffffffffffffffffffffffffffffffffffffffff1681526020018281526020019250505060405180910390a1613626613a52565b15613660576003600560030160006101000a81548160ff0219169083600581111561364d57fe5b021790555061365a613e75565b50613688565b6002600560030160006101000a81548160ff0219169083600581111561368257fe5b02179055505b5050565b60006004600581111561369b57fe5b6136a3611ad3565b60058111156136ae57fe5b14905090565b60008282111561372c576040517f08c379a000000000000000000000000000000000000000000000000000000000815260040180806020018281038252601e8152602001807f536166654d6174683a207375627472616374696f6e206f766572666c6f77000081525060200191505060405180910390fd5b600082840390508091505092915050565b600073ffffffffffffffffffffffffffffffffffffffff16600360009054906101000a900473ffffffffffffffffffffffffffffffffffffffff1673ffffffffffffffffffffffffffffffffffffffff1614613801576040517f08c379a00000000000000000000000000000000000000000000000000000000081526004018080602001828103825260148152602001807f6f70657261746f7220616c72656164792073657400000000000000000000000081525060200191505060405180910390fd5b600073ffffffffffffffffffffffffffffffffffffffff168173ffffffffffffffffffffffffffffffffffffffff1614156138a4576040517f08c379a00000000000000000000000000000000000000000000000000000000081526004018080602001828103825260208152602001807f63616e6e6f7420736574206f70657261746f7220746f2061646472657373203081525060200191505060405180910390fd5b80600360006101000a81548173ffffffffffffffffffffffffffffffffffffffff021916908373ffffffffffffffffffffffffffffffffffffffff1602179055507fb3b3f5f64ab192e4b5fefde1f51ce9733bbdcf831951543b325aebd49cc27ec481604051808273ffffffffffffffffffffffffffffffffffffffff1673ffffffffffffffffffffffffffffffffffffffff16815260200191505060405180910390a150565b806001819055507f7caceb1091bbaa84d09ab116a1fd72387eaab8a33d70fc39168b9b75686ee32c816040518082815260200191505060405180910390a150565b7fbb39ebb37e60fb5d606ffdb749d2336e56b88e6c88c4bd6513b308f643186eed816040518080602001828103825283818151815260200191508051906020019080838360005b838110156139ee5780820151818401526020810190506139d3565b50505050905090810190601f168015613a1b5780820380516001836020036101000a031916815260200191505b509250505060405180910390a150565b6000806005811115613a3957fe5b613a41611ad3565b6005811115613a4c57fe5b14905090565b600060016005811115613a6157fe5b613a69611ad3565b6005811115613a7457fe5b14905090565b600060026005811115613a8957fe5b613a91611ad3565b6005811115613a9c57fe5b14905090565b613aac8382613e9d565b50613ab5610cd4565b73ffffffffffffffffffffffffffffffffffffffff166323b872dd8330846040518463ffffffff1660e01b8152600401808473ffffffffffffffffffffffffffffffffffffffff1673ffffffffffffffffffffffffffffffffffffffff1681526020018373ffffffffffffffffffffffffffffffffffffffff1673ffffffffffffffffffffffffffffffffffffffff1681526020018281526020019350505050602060405180830381600087803b158015613b6f57600080fd5b505af1158015613b83573d6000803e3d6000fd5b505050506040513d6020811015613b9957600080fd5b8101908080519060200190929190505050613c1c576040517f08c379a00000000000000000000000000000000000000000000000000000000081526004018080602001828103825260158152602001807f746f6b656e207472616e73666572206661696c6564000000000000000000000081525060200191505060405180910390fd5b7ffb8efd70c9f0ca009bfc9f2ca8a9256a5aefbc720bdb8d838e4bcd42c241b9eb838383604051808473ffffffffffffffffffffffffffffffffffffffff1673ffffffffffffffffffffffffffffffffffffffff1681526020018373ffffffffffffffffffffffffffffffffffffffff1673ffffffffffffffffffffffffffffffffffffffff168152602001828152602001935050505060405180910390a1505050565b600080600260008573ffffffffffffffffffffffffffffffffffffffff1673ffffffffffffffffffffffffffffffffffffffff16815260200190815260200160002054905082811015613d7b576040517f08c379a000000000000000000000000000000000000000000000000000000000815260040180806020018281038252601e8152602001807f696e73756666696369656e74206465706f73697420746f2072656d6f7665000081525060200191505060405180910390fd5b613d8e83826136b490919063ffffffff16565b915081600260008673ffffffffffffffffffffffffffffffffffffffff1673ffffffffffffffffffffffffffffffffffffffff168152602001908152602001600020819055507f51c54d09e3f09480ef3014ab9c0738a405a9f38ebca6b7f60ff3acbd22ed2b44848484604051808473ffffffffffffffffffffffffffffffffffffffff1673ffffffffffffffffffffffffffffffffffffffff168152602001838152602001828152602001935050505060405180910390a18191505092915050565b600080613e5d8461220c565b9050613e6a848483613fb3565b508091505092915050565b6000613e8c4260015461323b90919063ffffffff16565b9050613e97816141a7565b80905090565b6000613ef182600260008673ffffffffffffffffffffffffffffffffffffffff1673ffffffffffffffffffffffffffffffffffffffff1681526020019081526020016000205461323b90919063ffffffff16565b905080600260008573ffffffffffffffffffffffffffffffffffffffff1673ffffffffffffffffffffffffffffffffffffffff168152602001908152602001600020819055507f05ee66c5c291705b2a39786f7a3c9abb763a9c66336056b9e154be4aa0f31813838383604051808473ffffffffffffffffffffffffffffffffffffffff1673ffffffffffffffffffffffffffffffffffffffff168152602001838152602001828152602001935050505060405180910390a180905092915050565b600080613fc08584613cc0565b9050613fca610cd4565b73ffffffffffffffffffffffffffffffffffffffff1663a9059cbb85856040518363ffffffff1660e01b8152600401808373ffffffffffffffffffffffffffffffffffffffff1673ffffffffffffffffffffffffffffffffffffffff16815260200182815260200192505050602060405180830381600087803b15801561405057600080fd5b505af1158015614064573d6000803e3d6000fd5b505050506040513d602081101561407a57600080fd5b81019080805190602001909291905050506140fd576040517f08c379a00000000000000000000000000000000000000000000000000000000081526004018080602001828103825260158152602001807f746f6b656e207472616e73666572206661696c6564000000000000000000000081525060200191505060405180910390fd5b7f925e052b9be9fe61c1aa15c79475f18b346732f0cf5fb7a0841a558238afce99858585604051808473ffffffffffffffffffffffffffffffffffffffff1673ffffffffffffffffffffffffffffffffffffffff1681526020018373ffffffffffffffffffffffffffffffffffffffff1673ffffffffffffffffffffffffffffffffffffffff168152602001828152602001935050505060405180910390a1809150509392505050565b806000819055507f337b880688eb06df8adb77036a6c8def1da2b520bc901c04b3a5a23f9ae13039816040518082815260200191505060405180910390a15056fe6d7573742062652063616c6c65642077697468696e20636f6e747261637420636f6e7374727563746f726f6e6c79206265666f7265206465706f736974732061726520636f6d706c65746564a265627a7a723158202cf432a1a6688ecd76ef3f92d40796632d498b784921ddfb7093d75d71ba6d8d64736f6c634300050d0032",
  "source": "pragma solidity ^0.5.13;\n\nimport \"../helpers/openzeppelin-solidity/math/SafeMath.sol\";\nimport \"../helpers/openzeppelin-solidity/token/ERC20/IERC20.sol\";\nimport \"../agreements/CountdownGriefing.sol\";\nimport \"../modules/iFactory.sol\";\nimport \"../modules/iRegistry.sol\";\nimport \"../modules/Countdown.sol\";\nimport \"../modules/Staking.sol\";\nimport \"../modules/EventMetadata.sol\";\nimport \"../modules/Operated.sol\";\nimport \"../modules/Template.sol\";\n\n/// @title CountdownGriefingEscrow\n/// @author Stephane Gosselin (@thegostep) for Numerai Inc\n/// @dev Security contact: security@numer.ai\n/// @dev Version: 1.2.0\n/// @dev State Machine: https://github.com/erasureprotocol/erasure-protocol/blob/v1.2.0/docs/state-machines/escrows/CountdownGriefingEscrow.png\n/// @notice This escrow allows for a buyer and a seller to deposit their stake and payment before sending it to a CountdownGriefing agreement.\n///         A new instance is initialized by the factory using the `initData` received. See the `initialize()` function for details.\n///         Notable features:\n///             - The deposited payment and stake become the stake of the agreement once the escrow is finalized.\n///             - If the buyer is not defined on creation, the first user to deposit the payment becomes the buyer.\n///             - If the seller is not defined on creation, the first user to deposit the stake becomes the seller.\n///             - Either party is able to cancel the escrow and retrieve their deposit if their counterparty never completes their deposit.\n///             - If the buyer deposits their payment after the stake has already been deposited by the seller, this starts a countdown for the seller to finalize the escrow.\n///             - If the seller does not finalize the escrow before the end of the countdown, the buyer can timeout the escrow and recover their stake.\n///             - An operator can optionally be defined to grant full permissions to a trusted external address or contract.\n///         **Note**\n///             Given the nature of ethereum, it is possible that while a cancel request is pending, the counterparty finalizes the escrow and the deposits are transfered to the agreement.\n///             This contract is designed such that there is only two end states: deposits are returned to the buyer and the seller OR the agreement is successfully created.\n///             This is why a user CANNOT rely on the cancellation feature to always work.\ncontract CountdownGriefingEscrow is Countdown, Staking, EventMetadata, Operated, Template {\n\n    using SafeMath for uint256;\n\n    Data private _data;\n    struct Data {\n        address buyer;\n        address seller;\n        uint128 paymentAmount;\n        uint128 stakeAmount;\n        EscrowStatus status;\n        AgreementParams agreementParams;\n    }\n\n    struct AgreementParams {\n        uint120 ratio;\n        Griefing.RatioType ratioType;\n        uint128 countdownLength;\n    }\n\n    event Initialized(\n        address operator,\n        address buyer,\n        address seller,\n        uint256 paymentAmount,\n        uint256 stakeAmount,\n        uint256 countdownLength,\n        bytes metadata,\n        bytes agreementParams\n    );\n    event StakeDeposited(address seller, uint256 amount);\n    event PaymentDeposited(address buyer, uint256 amount);\n    event Finalized(address agreement);\n    event DataSubmitted(bytes data);\n    event Cancelled();\n\n    /// @notice Constructor used to initialize the escrow parameters.\n    /// @dev Access Control: only factory\n    ///      State Machine: before all\n    /// @param operator address of the operator that overrides access control. Optional parameter. Passing the address(0) will disable operator functionality.\n    /// @param buyer address of the buyer. Optional parameter. This address is the only one able to deposit the payment. If not set, the first to deposit the payment becomes the buyer.\n    /// @param seller address of the seller. Optional parameter. This address is the only one able to deposit the stake. If not set, the first to deposit the stake becomes the seller.\n    /// @param paymentAmount uint256 amount of NMR (18 decimals) to be deposited by buyer as payment. Required parameter. This number must fit in a uint128 for optimization reasons.\n    /// @param stakeAmount uint256 amount of NMR (18 decimals) to be deposited by seller as stake. Required parameter. This number must fit in a uint128 for optimization reasons.\n    /// @param escrowCountdown uint256 amount of time (in seconds) the seller has to finalize the escrow after the payment and stake is deposited. Required parameter.\n    /// @param metadata bytes data (any format) to emit as event on initialization. Optional parameter.\n    /// @param agreementParams bytes ABI-encoded parameters used by CountdownGriefing agreement on initialization. Required parameter.\n    ///                        This encoded data blob must contain the uint120 ratio, Griefing.RatioType ratioType, and uint128 agreementCountdown encoded as `abi.encode(ratio, ratioType, agreementCountdown)`.\n    ///                        See CountdownGriefing initialize function for additional details.\n    function initialize(\n        address operator,\n        address buyer,\n        address seller,\n        uint256 paymentAmount,\n        uint256 stakeAmount,\n        uint256 escrowCountdown,\n        bytes memory metadata,\n        bytes memory agreementParams\n    ) public initializeTemplate() {\n        // set participants if defined\n        if (buyer != address(0)) {\n            _data.buyer = buyer;\n        }\n        if (seller != address(0)) {\n            _data.seller = seller;\n        }\n\n        // set operator if defined\n        if (operator != address(0)) {\n            Operated._setOperator(operator);\n        }\n\n        // set amounts if defined\n        if (paymentAmount != uint256(0)) {\n            require(paymentAmount <= uint256(uint128(paymentAmount)), \"paymentAmount is too large\");\n            _data.paymentAmount = uint128(paymentAmount);\n        }\n        if (stakeAmount != uint256(0)) {\n            require(stakeAmount == uint256(uint128(stakeAmount)), \"stakeAmount is too large\");\n            _data.stakeAmount = uint128(stakeAmount);\n        }\n\n        // set countdown length\n        Countdown._setLength(escrowCountdown);\n\n        // set metadata if defined\n        if (metadata.length != 0) {\n            EventMetadata._setMetadata(metadata);\n        }\n\n        // set agreementParams if defined\n        if (agreementParams.length != 0) {\n            (\n                uint256 ratio,\n                Griefing.RatioType ratioType,\n                uint256 agreementCountdown\n            ) = abi.decode(agreementParams, (uint256, Griefing.RatioType, uint256));\n            require(ratio == uint256(uint120(ratio)), \"ratio out of bounds\");\n            require(agreementCountdown == uint256(uint128(agreementCountdown)), \"agreementCountdown out of bounds\");\n            _data.agreementParams = AgreementParams(uint120(ratio), ratioType, uint128(agreementCountdown));\n        }\n\n        // emit event\n        emit Initialized(operator, buyer, seller, paymentAmount, stakeAmount, escrowCountdown, metadata, agreementParams);\n    }\n\n    /// @notice Emit metadata event\n    /// @dev Access Control: operator\n    ///      State Machine: always\n    /// @param metadata Data (any format) to emit as event\n    function setMetadata(bytes memory metadata) public {\n        // restrict access\n        require(Operated.isOperator(msg.sender), \"only operator\");\n\n        // update metadata\n        EventMetadata._setMetadata(metadata);\n    }\n\n    /// @notice Deposit Stake in NMR and set seller address\n    ///          - tokens (ERC-20) are transfered from the caller and requires approval of this contract for appropriate amount\n    ///          - if buyer already deposited the payment, finalize the escrow\n    /// @dev Access Control: anyone\n    ///      State Machine: before finalize() OR before cancel()\n    function depositAndSetSeller(address seller) public {\n        // restrict access control\n        require(_data.seller == address(0), \"seller already set\");\n\n        // set seller\n        _data.seller = seller;\n\n        // deposit stake\n        _depositStake();\n    }\n\n    /// @notice Deposit Stake in NMR\n    ///          - tokens (ERC-20) are transfered from the caller and requires approval of this contract for appropriate amount\n    ///          - if buyer already deposited the payment, finalize the escrow\n    /// @dev Access Control: buyer OR operator\n    ///      State Machine: before finalize() OR before cancel()\n    function depositStake() public {\n        // restrict access control\n        require(_data.seller != address(0), \"seller not yet set\");\n        require(isSeller(msg.sender) || Operated.isOperator(msg.sender), \"only seller or operator\");\n\n        // deposit stake\n        _depositStake();\n    }\n\n    function _depositStake() private {\n        // restrict state machine\n        require(isOpen() || onlyPaymentDeposited(), \"can only deposit stake once\");\n\n        // declare storage variables in memory\n        address seller = _data.seller;\n        uint256 stakeAmount = uint256(_data.stakeAmount);\n\n        // Add the stake amount\n        if (stakeAmount != uint256(0)) {\n            Staking._addStake(seller, msg.sender, stakeAmount);\n        }\n\n        // emit event\n        emit StakeDeposited(seller, stakeAmount);\n\n        // If payment is deposited, finalize the escrow\n        if (onlyPaymentDeposited()) {\n            _data.status = EscrowStatus.isDeposited;\n            finalize();\n        } else {\n            _data.status = EscrowStatus.onlyStakeDeposited;\n        }\n    }\n\n    /// @notice Deposit Payment in NMR and set buyer address\n    ///          - tokens (ERC-20) are transfered from the caller and requires approval of this contract for appropriate amount\n    ///          - if seller already deposited the stake, start the finalization countdown\n    /// @dev Access Control: buyer OR operator\n    ///      State Machine: before finalize() OR before cancel()\n    function depositAndSetBuyer(address buyer) public {\n        // restrict access control\n        require(_data.buyer == address(0), \"buyer already set\");\n\n        // set buyer\n        _data.buyer = buyer;\n\n        // deposit payment\n        _depositPayment();\n    }\n\n    /// @notice Deposit Payment in NMR\n    ///          - tokens (ERC-20) are transfered from the caller and requires approval of this contract for appropriate amount\n    ///          - if seller already deposited the stake, start the finalization countdown\n    /// @dev Access Control: buyer OR operator\n    ///      State Machine: before finalize() OR before cancel()\n    function depositPayment() public {\n        // restrict access control\n        require(_data.buyer != address(0), \"buyer not yet set\");\n        require(isBuyer(msg.sender) || Operated.isOperator(msg.sender), \"only buyer or operator\");\n\n        // deposit payment\n        _depositPayment();\n    }\n\n    function _depositPayment() private {\n        // restrict state machine\n        require(isOpen() || onlyStakeDeposited(), \"can only deposit payment once\");\n\n        // declare storage variables in memory\n        address buyer = _data.buyer;\n        uint256 paymentAmount = uint256(_data.paymentAmount);\n\n        // Add the payment as a stake\n        if (paymentAmount != uint256(0)) {\n            Staking._addStake(buyer, msg.sender, paymentAmount);\n        }\n\n        // emit event\n        emit PaymentDeposited(buyer, paymentAmount);\n\n        // If stake is deposited, start countdown for seller to finalize\n        if (onlyStakeDeposited()) {\n            _data.status = EscrowStatus.isDeposited;\n            Countdown._start();\n        } else {\n            _data.status = EscrowStatus.onlyPaymentDeposited;\n        }\n    }\n\n    /// @notice Finalize escrow and execute completion script\n    ///          - create the agreement\n    ///          - transfer deposited stake and payment to agreement\n    ///          - start agreement countdown\n    ///          - disable agreement operator\n    /// @dev Access Control: seller OR operator\n    ///      State Machine: after depositStake() AND after depositPayment()\n    function finalize() public {\n        // restrict access control\n        require(isSeller(msg.sender) || Operated.isOperator(msg.sender), \"only seller or operator\");\n        // restrict state machine\n        require(isDeposited(), \"only after deposit\");\n\n        // create the agreement\n\n        address agreement;\n        {\n            // get the agreement factory address\n\n            address escrowFactory = Template.getFactory();\n            address escrowRegistry = iFactory(escrowFactory).getInstanceRegistry();\n            address agreementFactory = abi.decode(iRegistry(escrowRegistry).getFactoryData(escrowFactory), (address));\n\n            // encode initialization function\n            bytes memory initCalldata = abi.encodeWithSignature(\n                'initialize(address,address,address,uint256,uint8,uint256,bytes)',\n                address(this),\n                _data.seller,\n                _data.buyer,\n                uint256(_data.agreementParams.ratio),\n                _data.agreementParams.ratioType,\n                uint256(_data.agreementParams.countdownLength),\n                bytes(\"\")\n            );\n\n            // deploy and initialize agreement contract\n            agreement = iFactory(agreementFactory).create(initCalldata);\n        }\n\n        // transfer stake and payment to the agreement\n\n        uint256 totalStake;\n        {\n            uint256 paymentAmount = Deposit._clearDeposit(_data.buyer);\n            uint256 stakeAmount = Deposit._clearDeposit(_data.seller);\n            totalStake = paymentAmount.add(stakeAmount);\n        }\n\n        if (totalStake > 0) {\n            require(IERC20(BurnNMR.getToken()).approve(agreement, totalStake), \"token approval failed\");\n            CountdownGriefing(agreement).increaseStake(totalStake);\n        }\n\n        // start agreement countdown\n\n        CountdownGriefing(agreement).startCountdown();\n\n        // transfer operator\n        address operator = Operated.getOperator();\n        if (operator != address(0)) {\n            CountdownGriefing(agreement).transferOperator(operator);\n        } else {\n            CountdownGriefing(agreement).renounceOperator();\n        }\n\n        // update status\n        _data.status = EscrowStatus.isFinalized;\n\n        // delete storage\n        delete _data.paymentAmount;\n        delete _data.stakeAmount;\n        delete _data.agreementParams;\n\n        // emit event\n        emit Finalized(agreement);\n    }\n\n    /// @notice Submit data to the buyer\n    /// @dev Access Control: seller OR operator\n    ///      State Machine: after finalize()\n    /// @param data Data (any format) to submit to the buyer\n    function submitData(bytes memory data) public {\n        // restrict access control\n        require(isSeller(msg.sender) || Operated.isOperator(msg.sender), \"only seller or operator\");\n        // restrict state machine\n        require(isFinalized(), \"only after finalized\");\n\n        // emit event\n        emit DataSubmitted(data);\n    }\n\n    /// @notice Cancel escrow because no interested counterparty\n    ///          - return deposit to caller\n    ///          - close escrow\n    /// @dev Access Control: seller OR buyer OR operator\n    ///      State Machine: before depositStake() OR before depositPayment()\n    function cancel() public {\n        // restrict access control\n        require(isSeller(msg.sender) || isBuyer(msg.sender) || Operated.isOperator(msg.sender), \"only seller or buyer or operator\");\n        // restrict state machine\n        require(isOpen() || onlyStakeDeposited() || onlyPaymentDeposited(), \"only before deposits are completed\");\n\n        // cancel escrow and return deposits\n        _cancel();\n    }\n\n    /// @notice Cancel escrow if seller does not finalize\n    ///          - return stake to seller\n    ///          - return payment to buyer\n    ///          - close escrow\n    /// @dev Access Control: buyer OR operator\n    ///      State Machine: after depositStake() AND after depositPayment() AND after Countdown.isOver()\n    function timeout() public {\n        // restrict access control\n        require(isBuyer(msg.sender) || Operated.isOperator(msg.sender), \"only buyer or operator\");\n        // restrict state machine\n        require(isDeposited() && Countdown.isOver(), \"only after countdown ended\");\n\n        // cancel escrow and return deposits\n        _cancel();\n    }\n\n    function _cancel() private {\n        // declare storage variables in memory\n        address seller = _data.seller;\n        address buyer = _data.buyer;\n\n        // return stake to seller\n        if (Staking.getStake(seller) != 0) {\n            Staking._takeFullStake(seller, seller);\n        }\n\n        // return payment to buyer\n        if (Staking.getStake(buyer) != 0) {\n            Staking._takeFullStake(buyer, buyer);\n        }\n\n        // update status\n        _data.status = EscrowStatus.isCancelled;\n\n        // delete storage\n        delete _data.paymentAmount;\n        delete _data.stakeAmount;\n        delete _data.agreementParams;\n\n        // emit event\n        emit Cancelled();\n    }\n\n    /// @notice Called by the operator to transfer control to new operator\n    /// @dev Access Control: operator\n    ///      State Machine: anytime\n    /// @param operator Address of the new operator\n    function transferOperator(address operator) public {\n        // restrict access\n        require(Operated.isOperator(msg.sender), \"only operator\");\n\n        // transfer operator\n        Operated._transferOperator(operator);\n    }\n\n    /// @notice Called by the operator to renounce control\n    /// @dev Access Control: operator\n    ///      State Machine: anytime\n    function renounceOperator() public {\n        // restrict access\n        require(Operated.isOperator(msg.sender), \"only operator\");\n\n        // renounce operator\n        Operated._renounceOperator();\n    }\n\n    /// View functions\n\n    /// @notice Get the address of the buyer (if set)\n    /// @return buyer Buyer account address\n    function getBuyer() public view returns (address buyer) {\n        return _data.buyer;\n    }\n\n    /// @notice Validate if the address matches the stored buyer address\n    /// @param caller Address to validate\n    /// @return validity True if matching address\n    function isBuyer(address caller) internal view returns (bool validity) {\n        return caller == getBuyer();\n    }\n\n    /// @notice Get the address of the seller (if set)\n    /// @return seller Seller account address\n    function getSeller() public view returns (address seller) {\n        return _data.seller;\n    }\n\n    /// @notice Validate if the address matches the stored seller address\n    /// @param caller Address to validate\n    /// @return validity True if matching address\n    function isSeller(address caller) internal view returns (bool validity) {\n        return caller == getSeller();\n    }\n\n    /// @notice Get the data in storage\n    /// @return uint128 paymentAmount set in initialization\n    /// @return uint128 stakeAmount set in initialization\n    /// @return uint120 ratio used for initialization of agreement on completion\n    /// @return Griefing.RatioType ratioType used for initialization of agreement on completion\n    /// @return uint128 countdownLength used for initialization of agreement on completion\n    function getData() public view returns (\n        uint128 paymentAmount,\n        uint128 stakeAmount,\n        uint120 ratio,\n        Griefing.RatioType ratioType,\n        uint128 countdownLength\n    ) {\n        return (\n            _data.paymentAmount,\n            _data.stakeAmount,\n            _data.agreementParams.ratio,\n            _data.agreementParams.ratioType,\n            _data.agreementParams.countdownLength\n        );\n    }\n\n    enum EscrowStatus { isOpen, onlyStakeDeposited, onlyPaymentDeposited, isDeposited, isFinalized, isCancelled }\n    /// @notice Return the status of the state machine\n    /// @return EscrowStatus status from of the following states:\n    ///          - isOpen: initialized but no deposits made\n    ///          - onlyStakeDeposited: only stake deposit completed\n    ///          - onlyPaymentDeposited: only payment deposit completed\n    ///          - isDeposited: both payment and stake deposit is completed\n    ///          - isFinalized: the escrow completed successfully\n    ///          - isCancelled: the escrow was cancelled\n    function getEscrowStatus() public view returns (EscrowStatus status) {\n        return _data.status;\n    }\n\n    function isOpen() internal view returns (bool validity) {\n        return getEscrowStatus() == EscrowStatus.isOpen;\n    }\n\n    function onlyStakeDeposited() internal view returns (bool validity) {\n        return getEscrowStatus() == EscrowStatus.onlyStakeDeposited;\n    }\n\n    function onlyPaymentDeposited() internal view returns (bool validity) {\n        return getEscrowStatus() == EscrowStatus.onlyPaymentDeposited;\n    }\n\n    function isDeposited() internal view returns (bool validity) {\n        return getEscrowStatus() == EscrowStatus.isDeposited;\n    }\n\n    function isFinalized() internal view returns (bool validity) {\n        return getEscrowStatus() == EscrowStatus.isFinalized;\n    }\n\n    function isCancelled() internal view returns (bool validity) {\n        return getEscrowStatus() == EscrowStatus.isCancelled;\n    }\n}\n",
  "sourcePath": "/Users/thegostep/github/erasure-protocol/contracts/escrows/CountdownGriefingEscrow.sol",
  "compiler": {
    "name": "solc",
    "version": "0.5.13+commit.5b0b510c.Emscripten.clang",
    "optimizer": false,
    "runs": 200
  },
  "schemaVersion": "2.2.0",
  "updatedAt": "2019-12-21T18:16:53.433Z"
}