{
  "contractName": "CountdownGriefing",
  "abi": [
    {
      "anonymous": false,
      "inputs": [
        {
          "indexed": false,
          "internalType": "uint256",
          "name": "deadline",
          "type": "uint256"
        }
      ],
      "name": "DeadlineSet",
      "type": "event"
    },
    {
      "anonymous": false,
      "inputs": [
        {
          "indexed": false,
          "internalType": "address",
          "name": "user",
          "type": "address"
        },
        {
          "indexed": false,
          "internalType": "uint256",
          "name": "amount",
          "type": "uint256"
        },
        {
          "indexed": false,
          "internalType": "uint256",
          "name": "newDeposit",
          "type": "uint256"
        }
      ],
      "name": "DepositDecreased",
      "type": "event"
    },
    {
      "anonymous": false,
      "inputs": [
        {
          "indexed": false,
          "internalType": "address",
          "name": "user",
          "type": "address"
        },
        {
          "indexed": false,
          "internalType": "uint256",
          "name": "amount",
          "type": "uint256"
        },
        {
          "indexed": false,
          "internalType": "uint256",
          "name": "newDeposit",
          "type": "uint256"
        }
      ],
      "name": "DepositIncreased",
      "type": "event"
    },
    {
      "anonymous": false,
      "inputs": [
        {
          "indexed": false,
          "internalType": "address",
          "name": "punisher",
          "type": "address"
        },
        {
          "indexed": false,
          "internalType": "address",
          "name": "staker",
          "type": "address"
        },
        {
          "indexed": false,
          "internalType": "uint256",
          "name": "punishment",
          "type": "uint256"
        },
        {
          "indexed": false,
          "internalType": "uint256",
          "name": "cost",
          "type": "uint256"
        },
        {
          "indexed": false,
          "internalType": "bytes",
          "name": "message",
          "type": "bytes"
        }
      ],
      "name": "Griefed",
      "type": "event"
    },
    {
      "anonymous": false,
      "inputs": [
        {
          "indexed": false,
          "internalType": "address",
          "name": "operator",
          "type": "address"
        },
        {
          "indexed": false,
          "internalType": "address",
          "name": "staker",
          "type": "address"
        },
        {
          "indexed": false,
          "internalType": "address",
          "name": "counterparty",
          "type": "address"
        },
        {
          "indexed": false,
          "internalType": "uint256",
          "name": "ratio",
          "type": "uint256"
        },
        {
          "indexed": false,
          "internalType": "enum Griefing.RatioType",
          "name": "ratioType",
          "type": "uint8"
        },
        {
          "indexed": false,
          "internalType": "uint256",
          "name": "countdownLength",
          "type": "uint256"
        },
        {
          "indexed": false,
          "internalType": "bytes",
          "name": "metadata",
          "type": "bytes"
        }
      ],
      "name": "Initialized",
      "type": "event"
    },
    {
      "anonymous": false,
      "inputs": [
        {
          "indexed": false,
          "internalType": "uint256",
          "name": "length",
          "type": "uint256"
        }
      ],
      "name": "LengthSet",
      "type": "event"
    },
    {
      "anonymous": false,
      "inputs": [
        {
          "indexed": false,
          "internalType": "bytes",
          "name": "metadata",
          "type": "bytes"
        }
      ],
      "name": "MetadataSet",
      "type": "event"
    },
    {
      "anonymous": false,
      "inputs": [
        {
          "indexed": false,
          "internalType": "address",
          "name": "operator",
          "type": "address"
        }
      ],
      "name": "OperatorUpdated",
      "type": "event"
    },
    {
      "anonymous": false,
      "inputs": [
        {
          "indexed": false,
          "internalType": "address",
          "name": "staker",
          "type": "address"
        },
        {
          "indexed": false,
          "internalType": "uint256",
          "name": "ratio",
          "type": "uint256"
        },
        {
          "indexed": false,
          "internalType": "enum Griefing.RatioType",
          "name": "ratioType",
          "type": "uint8"
        }
      ],
      "name": "RatioSet",
      "type": "event"
    },
    {
      "anonymous": false,
      "inputs": [
        {
          "indexed": false,
          "internalType": "address",
          "name": "staker",
          "type": "address"
        },
        {
          "indexed": false,
          "internalType": "address",
          "name": "funder",
          "type": "address"
        },
        {
          "indexed": false,
          "internalType": "uint256",
          "name": "amount",
          "type": "uint256"
        }
      ],
      "name": "StakeAdded",
      "type": "event"
    },
    {
      "anonymous": false,
      "inputs": [
        {
          "indexed": false,
          "internalType": "address",
          "name": "staker",
          "type": "address"
        },
        {
          "indexed": false,
          "internalType": "uint256",
          "name": "amount",
          "type": "uint256"
        }
      ],
      "name": "StakeBurned",
      "type": "event"
    },
    {
      "anonymous": false,
      "inputs": [
        {
          "indexed": false,
          "internalType": "address",
          "name": "staker",
          "type": "address"
        },
        {
          "indexed": false,
          "internalType": "address",
          "name": "recipient",
          "type": "address"
        },
        {
          "indexed": false,
          "internalType": "uint256",
          "name": "amount",
          "type": "uint256"
        }
      ],
      "name": "StakeTaken",
      "type": "event"
    },
    {
      "constant": true,
      "inputs": [
        {
          "internalType": "uint256",
          "name": "ratio",
          "type": "uint256"
        },
        {
          "internalType": "uint256",
          "name": "punishment",
          "type": "uint256"
        },
        {
          "internalType": "enum Griefing.RatioType",
          "name": "ratioType",
          "type": "uint8"
        }
      ],
      "name": "getCost",
      "outputs": [
        {
          "internalType": "uint256",
          "name": "cost",
          "type": "uint256"
        }
      ],
      "payable": false,
      "stateMutability": "pure",
      "type": "function"
    },
    {
      "constant": true,
      "inputs": [],
      "name": "getCountdownStatus",
      "outputs": [
        {
          "internalType": "enum Countdown.CountdownStatus",
          "name": "status",
          "type": "uint8"
        }
      ],
      "payable": false,
      "stateMutability": "view",
      "type": "function"
    },
    {
      "constant": true,
      "inputs": [],
      "name": "getCreator",
      "outputs": [
        {
          "internalType": "address",
          "name": "creator",
          "type": "address"
        }
      ],
      "payable": false,
      "stateMutability": "view",
      "type": "function"
    },
    {
      "constant": true,
      "inputs": [],
      "name": "getDeadline",
      "outputs": [
        {
          "internalType": "uint256",
          "name": "deadline",
          "type": "uint256"
        }
      ],
      "payable": false,
      "stateMutability": "view",
      "type": "function"
    },
    {
      "constant": true,
      "inputs": [],
      "name": "getDeadlineStatus",
      "outputs": [
        {
          "internalType": "enum Deadline.DeadlineStatus",
          "name": "status",
          "type": "uint8"
        }
      ],
      "payable": false,
      "stateMutability": "view",
      "type": "function"
    },
    {
      "constant": true,
      "inputs": [
        {
          "internalType": "address",
          "name": "user",
          "type": "address"
        }
      ],
      "name": "getDeposit",
      "outputs": [
        {
          "internalType": "uint256",
          "name": "deposit",
          "type": "uint256"
        }
      ],
      "payable": false,
      "stateMutability": "view",
      "type": "function"
    },
    {
      "constant": true,
      "inputs": [],
      "name": "getFactory",
      "outputs": [
        {
          "internalType": "address",
          "name": "factory",
          "type": "address"
        }
      ],
      "payable": false,
      "stateMutability": "view",
      "type": "function"
    },
    {
      "constant": true,
      "inputs": [],
      "name": "getLength",
      "outputs": [
        {
          "internalType": "uint256",
          "name": "length",
          "type": "uint256"
        }
      ],
      "payable": false,
      "stateMutability": "view",
      "type": "function"
    },
    {
      "constant": true,
      "inputs": [],
      "name": "getOperator",
      "outputs": [
        {
          "internalType": "address",
          "name": "operator",
          "type": "address"
        }
      ],
      "payable": false,
      "stateMutability": "view",
      "type": "function"
    },
    {
      "constant": true,
      "inputs": [
        {
          "internalType": "uint256",
          "name": "ratio",
          "type": "uint256"
        },
        {
          "internalType": "uint256",
          "name": "cost",
          "type": "uint256"
        },
        {
          "internalType": "enum Griefing.RatioType",
          "name": "ratioType",
          "type": "uint8"
        }
      ],
      "name": "getPunishment",
      "outputs": [
        {
          "internalType": "uint256",
          "name": "punishment",
          "type": "uint256"
        }
      ],
      "payable": false,
      "stateMutability": "pure",
      "type": "function"
    },
    {
      "constant": true,
      "inputs": [
        {
          "internalType": "address",
          "name": "staker",
          "type": "address"
        }
      ],
      "name": "getRatio",
      "outputs": [
        {
          "internalType": "uint256",
          "name": "ratio",
          "type": "uint256"
        },
        {
          "internalType": "enum Griefing.RatioType",
          "name": "ratioType",
          "type": "uint8"
        }
      ],
      "payable": false,
      "stateMutability": "view",
      "type": "function"
    },
    {
      "constant": true,
      "inputs": [
        {
          "internalType": "address",
          "name": "staker",
          "type": "address"
        }
      ],
      "name": "getStake",
      "outputs": [
        {
          "internalType": "uint256",
          "name": "stake",
          "type": "uint256"
        }
      ],
      "payable": false,
      "stateMutability": "view",
      "type": "function"
    },
    {
      "constant": true,
      "inputs": [],
      "name": "getTimeRemaining",
      "outputs": [
        {
          "internalType": "uint256",
          "name": "time",
          "type": "uint256"
        }
      ],
      "payable": false,
      "stateMutability": "view",
      "type": "function"
    },
    {
      "constant": true,
      "inputs": [],
      "name": "getToken",
      "outputs": [
        {
          "internalType": "address",
          "name": "token",
          "type": "address"
        }
      ],
      "payable": false,
      "stateMutability": "pure",
      "type": "function"
    },
    {
      "constant": false,
      "inputs": [
        {
          "internalType": "address",
          "name": "operator",
          "type": "address"
        },
        {
          "internalType": "address",
          "name": "staker",
          "type": "address"
        },
        {
          "internalType": "address",
          "name": "counterparty",
          "type": "address"
        },
        {
          "internalType": "uint256",
          "name": "ratio",
          "type": "uint256"
        },
        {
          "internalType": "enum Griefing.RatioType",
          "name": "ratioType",
          "type": "uint8"
        },
        {
          "internalType": "uint256",
          "name": "countdownLength",
          "type": "uint256"
        },
        {
          "internalType": "bytes",
          "name": "metadata",
          "type": "bytes"
        }
      ],
      "name": "initialize",
      "outputs": [],
      "payable": false,
      "stateMutability": "nonpayable",
      "type": "function"
    },
    {
      "constant": false,
      "inputs": [
        {
          "internalType": "bytes",
          "name": "metadata",
          "type": "bytes"
        }
      ],
      "name": "setMetadata",
      "outputs": [],
      "payable": false,
      "stateMutability": "nonpayable",
      "type": "function"
    },
    {
      "constant": false,
      "inputs": [
        {
          "internalType": "uint256",
          "name": "amountToAdd",
          "type": "uint256"
        }
      ],
      "name": "increaseStake",
      "outputs": [],
      "payable": false,
      "stateMutability": "nonpayable",
      "type": "function"
    },
    {
      "constant": false,
      "inputs": [
        {
          "internalType": "uint256",
          "name": "amountToAdd",
          "type": "uint256"
        }
      ],
      "name": "reward",
      "outputs": [],
      "payable": false,
      "stateMutability": "nonpayable",
      "type": "function"
    },
    {
      "constant": false,
      "inputs": [
        {
          "internalType": "uint256",
          "name": "punishment",
          "type": "uint256"
        },
        {
          "internalType": "bytes",
          "name": "message",
          "type": "bytes"
        }
      ],
      "name": "punish",
      "outputs": [
        {
          "internalType": "uint256",
          "name": "cost",
          "type": "uint256"
        }
      ],
      "payable": false,
      "stateMutability": "nonpayable",
      "type": "function"
    },
    {
      "constant": false,
      "inputs": [
        {
          "internalType": "uint256",
          "name": "amountToRelease",
          "type": "uint256"
        }
      ],
      "name": "releaseStake",
      "outputs": [],
      "payable": false,
      "stateMutability": "nonpayable",
      "type": "function"
    },
    {
      "constant": false,
      "inputs": [],
      "name": "startCountdown",
      "outputs": [
        {
          "internalType": "uint256",
          "name": "deadline",
          "type": "uint256"
        }
      ],
      "payable": false,
      "stateMutability": "nonpayable",
      "type": "function"
    },
    {
      "constant": false,
      "inputs": [
        {
          "internalType": "address",
          "name": "recipient",
          "type": "address"
        }
      ],
      "name": "retrieveStake",
      "outputs": [
        {
          "internalType": "uint256",
          "name": "amount",
          "type": "uint256"
        }
      ],
      "payable": false,
      "stateMutability": "nonpayable",
      "type": "function"
    },
    {
      "constant": false,
      "inputs": [
        {
          "internalType": "address",
          "name": "operator",
          "type": "address"
        }
      ],
      "name": "transferOperator",
      "outputs": [],
      "payable": false,
      "stateMutability": "nonpayable",
      "type": "function"
    },
    {
      "constant": false,
      "inputs": [],
      "name": "renounceOperator",
      "outputs": [],
      "payable": false,
      "stateMutability": "nonpayable",
      "type": "function"
    },
    {
      "constant": true,
      "inputs": [],
      "name": "getStaker",
      "outputs": [
        {
          "internalType": "address",
          "name": "staker",
          "type": "address"
        }
      ],
      "payable": false,
      "stateMutability": "view",
      "type": "function"
    },
    {
      "constant": true,
      "inputs": [],
      "name": "getCounterparty",
      "outputs": [
        {
          "internalType": "address",
          "name": "counterparty",
          "type": "address"
        }
      ],
      "payable": false,
      "stateMutability": "view",
      "type": "function"
    },
    {
      "constant": true,
      "inputs": [],
      "name": "getCurrentStake",
      "outputs": [
        {
          "internalType": "uint256",
          "name": "stake",
          "type": "uint256"
        }
      ],
      "payable": false,
      "stateMutability": "view",
      "type": "function"
    },
    {
      "constant": true,
      "inputs": [],
      "name": "isStaked",
      "outputs": [
        {
          "internalType": "bool",
          "name": "validity",
          "type": "bool"
        }
      ],
      "payable": false,
      "stateMutability": "view",
      "type": "function"
    },
    {
      "constant": true,
      "inputs": [],
      "name": "getAgreementStatus",
      "outputs": [
        {
          "internalType": "enum CountdownGriefing.AgreementStatus",
          "name": "status",
          "type": "uint8"
        }
      ],
      "payable": false,
      "stateMutability": "view",
      "type": "function"
    }
  ],
  "bytecode": "0x608060405234801561001057600080fd5b50613578806100206000396000f3fe608060405234801561001057600080fd5b50600436106101cf5760003560e01c806372b45a5511610104578063be1c766b116100a2578063e3323aba11610071578063e3323aba14610946578063e7f43c6814610968578063ee57e36f146109b2578063eedad66b14610a6d576101cf565b8063be1c766b14610886578063dac6270d146108a4578063de2229fe146108c2578063e1254fba146108ee576101cf565b806388cc58e4116100de57806388cc58e4146105f957806390bfe0bf14610643578063a9fb763c1461071c578063b6ef42841461074a576101cf565b806372b45a55146104ea578063754b2707146105345780637a766460146105a1576101cf565b806341ce2878116101715780635baeb8061161014b5780635baeb8061461040b5780635e5365c1146104645780635f8d96de14610482578063728fa494146104a0576101cf565b806341ce28781461032c57806345f5448514610384578063465b414e146103b2576101cf565b806321df0da7116101ad57806321df0da71461027657806329605e77146102c05780632ab6f8db146103045780632c7c780c1461030e576101cf565b80630ee2cb10146101d45780631723537d1461021e57806319fbb48e1461024a575b600080fd5b6101dc610a9b565b604051808273ffffffffffffffffffffffffffffffffffffffff1673ffffffffffffffffffffffffffffffffffffffff16815260200191505060405180910390f35b610226610b7c565b6040518082600281111561023657fe5b60ff16815260200191505060405180910390f35b610252610bb2565b6040518082600381111561026257fe5b60ff16815260200191505060405180910390f35b61027e610c2b565b604051808273ffffffffffffffffffffffffffffffffffffffff1673ffffffffffffffffffffffffffffffffffffffff16815260200191505060405180910390f35b610302600480360360208110156102d657600080fd5b81019080803573ffffffffffffffffffffffffffffffffffffffff169060200190929190505050610c47565b005b61030c610cce565b005b610316610d53565b6040518082815260200191505060405180910390f35b61036e6004803603602081101561034257600080fd5b81019080803573ffffffffffffffffffffffffffffffffffffffff169060200190929190505050610d88565b6040518082815260200191505060405180910390f35b6103b06004803603602081101561039a57600080fd5b8101908080359060200190929190505050610ec5565b005b6103f5600480360360608110156103c857600080fd5b810190808035906020019092919080359060200190929190803560ff169060200190929190505050610fa9565b6040518082815260200191505060405180910390f35b61044e6004803603606081101561042157600080fd5b810190808035906020019092919080359060200190929190803560ff169060200190929190505050611094565b6040518082815260200191505060405180910390f35b61046c6111c7565b6040518082815260200191505060405180910390f35b61048a6112db565b6040518082815260200191505060405180910390f35b6104a86112e4565b604051808273ffffffffffffffffffffffffffffffffffffffff1673ffffffffffffffffffffffffffffffffffffffff16815260200191505060405180910390f35b6104f2611311565b604051808273ffffffffffffffffffffffffffffffffffffffff1673ffffffffffffffffffffffffffffffffffffffff16815260200191505060405180910390f35b6105766004803603602081101561054a57600080fd5b81019080803573ffffffffffffffffffffffffffffffffffffffff16906020019092919050505061133e565b6040518083815260200182600281111561058c57fe5b60ff1681526020019250505060405180910390f35b6105e3600480360360208110156105b757600080fd5b81019080803573ffffffffffffffffffffffffffffffffffffffff1690602001909291905050506113dd565b6040518082815260200191505060405180910390f35b6106016113ef565b604051808273ffffffffffffffffffffffffffffffffffffffff1673ffffffffffffffffffffffffffffffffffffffff16815260200191505060405180910390f35b6107066004803603604081101561065957600080fd5b81019080803590602001909291908035906020019064010000000081111561068057600080fd5b82018360208201111561069257600080fd5b803590602001918460018302840111640100000000831117156106b457600080fd5b91908080601f016020809104026020016040519081016040528093929190818152602001838380828437600081840152601f19601f820116905080830192505050505050509192919290505050611419565b6040518082815260200191505060405180910390f35b6107486004803603602081101561073257600080fd5b810190808035906020019092919050505061155a565b005b610884600480360360e081101561076057600080fd5b81019080803573ffffffffffffffffffffffffffffffffffffffff169060200190929190803573ffffffffffffffffffffffffffffffffffffffff169060200190929190803573ffffffffffffffffffffffffffffffffffffffff16906020019092919080359060200190929190803560ff16906020019092919080359060200190929190803590602001906401000000008111156107fe57600080fd5b82018360208201111561081057600080fd5b8035906020019184600183028401116401000000008311171561083257600080fd5b91908080601f016020809104026020016040519081016040528093929190818152602001838380828437600081840152601f19601f820116905080830192505050505050509192919290505050611693565b005b61088e61198e565b6040518082815260200191505060405180910390f35b6108ac611998565b6040518082815260200191505060405180910390f35b6108ca6119c8565b604051808260028111156108da57fe5b60ff16815260200191505060405180910390f35b6109306004803603602081101561090457600080fd5b81019080803573ffffffffffffffffffffffffffffffffffffffff1690602001909291905050506119f8565b6040518082815260200191505060405180910390f35b61094e611a41565b604051808215151515815260200191505060405180910390f35b610970611a52565b604051808273ffffffffffffffffffffffffffffffffffffffff1673ffffffffffffffffffffffffffffffffffffffff16815260200191505060405180910390f35b610a6b600480360360208110156109c857600080fd5b81019080803590602001906401000000008111156109e557600080fd5b8201836020820111156109f757600080fd5b80359060200191846001830284011164010000000083111715610a1957600080fd5b91908080601f016020809104026020016040519081016040528093929190818152602001838380828437600081840152601f19601f820116905080830192505050505050509192919290505050611a7c565b005b610a9960048036036020811015610a8357600080fd5b8101908080359060200190929190505050611b03565b005b6000600560009054906101000a900473ffffffffffffffffffffffffffffffffffffffff1673ffffffffffffffffffffffffffffffffffffffff16636bf71982306040518263ffffffff1660e01b8152600401808273ffffffffffffffffffffffffffffffffffffffff1673ffffffffffffffffffffffffffffffffffffffff16815260200191505060206040518083038186803b158015610b3c57600080fd5b505afa158015610b50573d6000803e3d6000fd5b505050506040513d6020811015610b6657600080fd5b8101908080519060200190929190505050905090565b6000610b86611c3c565b15610b945760029050610baf565b610b9c611c63565b15610baa5760019050610baf565b600090505b90565b6000806001541415610bc75760009050610c28565b60006002811115610bd457fe5b610bdc6119c8565b6002811115610be757fe5b1415610bf65760019050610c28565b600280811115610c0257fe5b610c0a6119c8565b6002811115610c1557fe5b14610c235760029050610c28565b600390505b90565b6000731776e1f26f98b1a5df9cd347953a26dd3cb46671905090565b610c5033611c8b565b610cc2576040517f08c379a000000000000000000000000000000000000000000000000000000000815260040180806020018281038252600d8152602001807f6f6e6c79206f70657261746f720000000000000000000000000000000000000081525060200191505060405180910390fd5b610ccb81611ce5565b50565b610cd733611c8b565b610d49576040517f08c379a000000000000000000000000000000000000000000000000000000000815260040180806020018281038252600d8152602001807f6f6e6c79206f70657261746f720000000000000000000000000000000000000081525060200191505060405180910390fd5b610d51611ef4565b565b6000610d83600660000160009054906101000a900473ffffffffffffffffffffffffffffffffffffffff166113dd565b905090565b6000610d9333612061565b80610da35750610da233611c8b565b5b610e15576040517f08c379a00000000000000000000000000000000000000000000000000000000081526004018080602001828103825260178152602001807f6f6e6c79207374616b6572206f72206f70657261746f7200000000000000000081525060200191505060405180910390fd5b610e1d6120a0565b610e8f576040517f08c379a00000000000000000000000000000000000000000000000000000000081526004018080602001828103825260138152602001807f646561646c696e65206e6f74207061737365640000000000000000000000000081525060200191505060405180910390fd5b610ebe600660000160009054906101000a900473ffffffffffffffffffffffffffffffffffffffff16836120c7565b9050919050565b610ece336120eb565b80610ede5750610edd33611c8b565b5b610f50576040517f08c379a000000000000000000000000000000000000000000000000000000000815260040180806020018281038252601d8152602001807f6f6e6c7920636f756e7465727061727479206f72206f70657261746f7200000081525060200191505060405180910390fd5b610fa5600660000160009054906101000a900473ffffffffffffffffffffffffffffffffffffffff16600660000160009054906101000a900473ffffffffffffffffffffffffffffffffffffffff168361212a565b5050565b6000600280811115610fb757fe5b826002811115610fc357fe5b1415610ff4576012600a0a610fe5610fdf856012600a0a61231e565b866123a4565b81610fec57fe5b04905061108d565b6001600281111561100157fe5b82600281111561100d57fe5b141561101c576000905061108d565b6000600281111561102957fe5b82600281111561103557fe5b141561108c576040517f08c379a00000000000000000000000000000000000000000000000000000000081526004018080602001828103825260218152602001806134f76021913960400191505060405180910390fd5b5b9392505050565b60006002808111156110a257fe5b8260028111156110ae57fe5b14156110df576012600a0a6110d06110ca856012600a0a61231e565b866123dc565b816110d757fe5b0490506111c0565b600160028111156110ec57fe5b8260028111156110f857fe5b141561114f576040517f08c379a000000000000000000000000000000000000000000000000000000000815260040180806020018281038252602181526020018061348b6021913960400191505060405180910390fd5b6000600281111561115c57fe5b82600281111561116857fe5b14156111bf576040517f08c379a00000000000000000000000000000000000000000000000000000000081526004018080602001828103825260218152602001806134f76021913960400191505060405180910390fd5b5b9392505050565b60006111d233612061565b806111e257506111e133611c8b565b5b611254576040517f08c379a00000000000000000000000000000000000000000000000000000000081526004018080602001828103825260178152602001807f6f6e6c79207374616b6572206f72206f70657261746f7200000000000000000081525060200191505060405180910390fd5b61125c612410565b6112ce576040517f08c379a00000000000000000000000000000000000000000000000000000000081526004018080602001828103825260148152602001807f646561646c696e6520616c72656164792073657400000000000000000000000081525060200191505060405180910390fd5b6112d6612437565b905090565b60008054905090565b6000600660010160009054906101000a900473ffffffffffffffffffffffffffffffffffffffff16905090565b6000600660000160009054906101000a900473ffffffffffffffffffffffffffffffffffffffff16905090565b600080600360008473ffffffffffffffffffffffffffffffffffffffff1673ffffffffffffffffffffffffffffffffffffffff16815260200190815260200160002060000154600360008573ffffffffffffffffffffffffffffffffffffffff1673ffffffffffffffffffffffffffffffffffffffff16815260200190815260200160002060010160009054906101000a900460ff1691509150915091565b60006113e8826119f8565b9050919050565b6000600560009054906101000a900473ffffffffffffffffffffffffffffffffffffffff16905090565b6000611424336120eb565b80611434575061143333611c8b565b5b6114a6576040517f08c379a000000000000000000000000000000000000000000000000000000000815260040180806020018281038252601d8152602001807f6f6e6c7920636f756e7465727061727479206f72206f70657261746f7200000081525060200191505060405180910390fd5b6114ae6120a0565b15611521576040517f08c379a000000000000000000000000000000000000000000000000000000000815260040180806020018281038252600f8152602001807f61677265656d656e7420656e646564000000000000000000000000000000000081525060200191505060405180910390fd5b61155233600660000160009054906101000a900473ffffffffffffffffffffffffffffffffffffffff16858561245f565b905092915050565b611563336120eb565b80611573575061157233611c8b565b5b6115e5576040517f08c379a000000000000000000000000000000000000000000000000000000000815260040180806020018281038252601d8152602001807f6f6e6c7920636f756e7465727061727479206f72206f70657261746f7200000081525060200191505060405180910390fd5b6115ed6120a0565b15611660576040517f08c379a000000000000000000000000000000000000000000000000000000000815260040180806020018281038252600f8152602001807f61677265656d656e7420656e646564000000000000000000000000000000000081525060200191505060405180910390fd5b611690600660000160009054906101000a900473ffffffffffffffffffffffffffffffffffffffff1633836126cb565b50565b33600560006101000a81548173ffffffffffffffffffffffffffffffffffffffff021916908373ffffffffffffffffffffffffffffffffffffffff1602179055506000303b905060008163ffffffff1614611739576040517f08c379a000000000000000000000000000000000000000000000000000000000815260040180806020018281038252602a8152602001806134cd602a913960400191505060405180910390fd5b86600660000160006101000a81548173ffffffffffffffffffffffffffffffffffffffff021916908373ffffffffffffffffffffffffffffffffffffffff16021790555085600660010160006101000a81548173ffffffffffffffffffffffffffffffffffffffff021916908373ffffffffffffffffffffffffffffffffffffffff160217905550600073ffffffffffffffffffffffffffffffffffffffff168873ffffffffffffffffffffffffffffffffffffffff16146117ff576117fe886128e9565b5b61180a878686612af7565b61181383612cc1565b60008251146118265761182582612d02565b5b7f664ded22802a39a33ce123e5d663871dacea1984cc7ec83e5b8b850118649f6488888888888888604051808873ffffffffffffffffffffffffffffffffffffffff1673ffffffffffffffffffffffffffffffffffffffff1681526020018773ffffffffffffffffffffffffffffffffffffffff1673ffffffffffffffffffffffffffffffffffffffff1681526020018673ffffffffffffffffffffffffffffffffffffffff1673ffffffffffffffffffffffffffffffffffffffff1681526020018581526020018460028111156118fa57fe5b60ff16815260200183815260200180602001828103825283818151815260200191508051906020019080838360005b83811015611944578082015181840152602081019050611929565b50505050905090810190601f1680156119715780820380516001836020036101000a031916815260200191505b509850505050505050505060405180910390a15050505050505050565b6000600154905090565b60004260005411156119c0576119b942600054612da190919063ffffffff16565b90506119c5565b600090505b90565b60008060005414156119dd57600090506119f5565b4260005411156119f057600190506119f5565b600290505b90565b6000600260008373ffffffffffffffffffffffffffffffffffffffff1673ffffffffffffffffffffffffffffffffffffffff168152602001908152602001600020549050919050565b600080611a4c610d53565b11905090565b6000600460009054906101000a900473ffffffffffffffffffffffffffffffffffffffff16905090565b611a8533611c8b565b611af7576040517f08c379a000000000000000000000000000000000000000000000000000000000815260040180806020018281038252600d8152602001807f6f6e6c79206f70657261746f720000000000000000000000000000000000000081525060200191505060405180910390fd5b611b0081612d02565b50565b611b0c33612061565b80611b1c5750611b1b33611c8b565b5b611b8e576040517f08c379a00000000000000000000000000000000000000000000000000000000081526004018080602001828103825260178152602001807f6f6e6c79207374616b6572206f72206f70657261746f7200000000000000000081525060200191505060405180910390fd5b611b966120a0565b15611c09576040517f08c379a000000000000000000000000000000000000000000000000000000000815260040180806020018281038252600f8152602001807f61677265656d656e7420656e646564000000000000000000000000000000000081525060200191505060405180910390fd5b611c39600660000160009054906101000a900473ffffffffffffffffffffffffffffffffffffffff1633836126cb565b50565b6000600380811115611c4a57fe5b611c52610bb2565b6003811115611c5d57fe5b14905090565b600060026003811115611c7257fe5b611c7a610bb2565b6003811115611c8557fe5b14905090565b6000600460009054906101000a900473ffffffffffffffffffffffffffffffffffffffff1673ffffffffffffffffffffffffffffffffffffffff168273ffffffffffffffffffffffffffffffffffffffff16149050919050565b600073ffffffffffffffffffffffffffffffffffffffff16600460009054906101000a900473ffffffffffffffffffffffffffffffffffffffff1673ffffffffffffffffffffffffffffffffffffffff161415611daa576040517f08c379a00000000000000000000000000000000000000000000000000000000081526004018080602001828103825260168152602001807f6f6e6c79207768656e206f70657261746f72207365740000000000000000000081525060200191505060405180910390fd5b600073ffffffffffffffffffffffffffffffffffffffff168173ffffffffffffffffffffffffffffffffffffffff161415611e4d576040517f08c379a00000000000000000000000000000000000000000000000000000000081526004018080602001828103825260208152602001807f63616e6e6f7420736574206f70657261746f7220746f2061646472657373203081525060200191505060405180910390fd5b80600460006101000a81548173ffffffffffffffffffffffffffffffffffffffff021916908373ffffffffffffffffffffffffffffffffffffffff1602179055507fb3b3f5f64ab192e4b5fefde1f51ce9733bbdcf831951543b325aebd49cc27ec481604051808273ffffffffffffffffffffffffffffffffffffffff1673ffffffffffffffffffffffffffffffffffffffff16815260200191505060405180910390a150565b600073ffffffffffffffffffffffffffffffffffffffff16600460009054906101000a900473ffffffffffffffffffffffffffffffffffffffff1673ffffffffffffffffffffffffffffffffffffffff161415611fb9576040517f08c379a00000000000000000000000000000000000000000000000000000000081526004018080602001828103825260168152602001807f6f6e6c79207768656e206f70657261746f72207365740000000000000000000081525060200191505060405180910390fd5b6000600460006101000a81548173ffffffffffffffffffffffffffffffffffffffff021916908373ffffffffffffffffffffffffffffffffffffffff1602179055507fb3b3f5f64ab192e4b5fefde1f51ce9733bbdcf831951543b325aebd49cc27ec46000604051808273ffffffffffffffffffffffffffffffffffffffff1673ffffffffffffffffffffffffffffffffffffffff16815260200191505060405180910390a1565b600061206b611311565b73ffffffffffffffffffffffffffffffffffffffff168273ffffffffffffffffffffffffffffffffffffffff16149050919050565b60006002808111156120ae57fe5b6120b6610b7c565b60028111156120c157fe5b14905090565b6000806120d3846119f8565b90506120e084848361212a565b508091505092915050565b60006120f56112e4565b73ffffffffffffffffffffffffffffffffffffffff168273ffffffffffffffffffffffffffffffffffffffff16149050919050565b6000806121378584612e2a565b9050612141610c2b565b73ffffffffffffffffffffffffffffffffffffffff1663a9059cbb85856040518363ffffffff1660e01b8152600401808373ffffffffffffffffffffffffffffffffffffffff1673ffffffffffffffffffffffffffffffffffffffff16815260200182815260200192505050602060405180830381600087803b1580156121c757600080fd5b505af11580156121db573d6000803e3d6000fd5b505050506040513d60208110156121f157600080fd5b8101908080519060200190929190505050612274576040517f08c379a00000000000000000000000000000000000000000000000000000000081526004018080602001828103825260158152602001807f746f6b656e207472616e73666572206661696c6564000000000000000000000081525060200191505060405180910390fd5b7f925e052b9be9fe61c1aa15c79475f18b346732f0cf5fb7a0841a558238afce99858585604051808473ffffffffffffffffffffffffffffffffffffffff1673ffffffffffffffffffffffffffffffffffffffff1681526020018373ffffffffffffffffffffffffffffffffffffffff1673ffffffffffffffffffffffffffffffffffffffff168152602001828152602001935050505060405180910390a1809150509392505050565b600080831415612331576000905061239e565b600082840290508284828161234257fe5b0414612399576040517f08c379a00000000000000000000000000000000000000000000000000000000081526004018080602001828103825260218152602001806134ac6021913960400191505060405180910390fd5b809150505b92915050565b60006012600a0a6123cc6123b8858561231e565b60026012600a0a816123c657fe5b04612fbb565b816123d357fe5b04905092915050565b6000816124006123f0856012600a0a61231e565b600285816123fa57fe5b04612fbb565b8161240757fe5b04905092915050565b600080600281111561241e57fe5b612426610b7c565b600281111561243157fe5b14905090565b600061244e42600154612fbb90919063ffffffff16565b905061245981613043565b80905090565b600080600360008673ffffffffffffffffffffffffffffffffffffffff1673ffffffffffffffffffffffffffffffffffffffff1681526020019081526020016000206000015490506000600360008773ffffffffffffffffffffffffffffffffffffffff1673ffffffffffffffffffffffffffffffffffffffff16815260200190815260200160002060010160009054906101000a900460ff1690506000600281111561250857fe5b81600281111561251457fe5b1415612588576040517f08c379a00000000000000000000000000000000000000000000000000000000081526004018080602001828103825260158152602001807f6e6f2070756e6973686d656e7420616c6c6f776564000000000000000000000081525060200191505060405180910390fd5b612593828683610fa9565b925061259f8784613084565b6125a986866131d0565b507fca93c648a4546f2ae486b9140f0082ced75a2664a663c8882b8b3545cddfeeb18787878688604051808673ffffffffffffffffffffffffffffffffffffffff1673ffffffffffffffffffffffffffffffffffffffff1681526020018573ffffffffffffffffffffffffffffffffffffffff1673ffffffffffffffffffffffffffffffffffffffff16815260200184815260200183815260200180602001828103825283818151815260200191508051906020019080838360005b83811015612680578082015181840152602081019050612665565b50505050905090810190601f1680156126ad5780820380516001836020036101000a031916815260200191505b50965050505050505060405180910390a18292505050949350505050565b6126d5838261325d565b506126de610c2b565b73ffffffffffffffffffffffffffffffffffffffff166323b872dd8330846040518463ffffffff1660e01b8152600401808473ffffffffffffffffffffffffffffffffffffffff1673ffffffffffffffffffffffffffffffffffffffff1681526020018373ffffffffffffffffffffffffffffffffffffffff1673ffffffffffffffffffffffffffffffffffffffff1681526020018281526020019350505050602060405180830381600087803b15801561279857600080fd5b505af11580156127ac573d6000803e3d6000fd5b505050506040513d60208110156127c257600080fd5b8101908080519060200190929190505050612845576040517f08c379a00000000000000000000000000000000000000000000000000000000081526004018080602001828103825260158152602001807f746f6b656e207472616e73666572206661696c6564000000000000000000000081525060200191505060405180910390fd5b7ffb8efd70c9f0ca009bfc9f2ca8a9256a5aefbc720bdb8d838e4bcd42c241b9eb838383604051808473ffffffffffffffffffffffffffffffffffffffff1673ffffffffffffffffffffffffffffffffffffffff1681526020018373ffffffffffffffffffffffffffffffffffffffff1673ffffffffffffffffffffffffffffffffffffffff168152602001828152602001935050505060405180910390a1505050565b600073ffffffffffffffffffffffffffffffffffffffff16600460009054906101000a900473ffffffffffffffffffffffffffffffffffffffff1673ffffffffffffffffffffffffffffffffffffffff16146129ad576040517f08c379a00000000000000000000000000000000000000000000000000000000081526004018080602001828103825260148152602001807f6f70657261746f7220616c72656164792073657400000000000000000000000081525060200191505060405180910390fd5b600073ffffffffffffffffffffffffffffffffffffffff168173ffffffffffffffffffffffffffffffffffffffff161415612a50576040517f08c379a00000000000000000000000000000000000000000000000000000000081526004018080602001828103825260208152602001807f63616e6e6f7420736574206f70657261746f7220746f2061646472657373203081525060200191505060405180910390fd5b80600460006101000a81548173ffffffffffffffffffffffffffffffffffffffff021916908373ffffffffffffffffffffffffffffffffffffffff1602179055507fb3b3f5f64ab192e4b5fefde1f51ce9733bbdcf831951543b325aebd49cc27ec481604051808273ffffffffffffffffffffffffffffffffffffffff1673ffffffffffffffffffffffffffffffffffffffff16815260200191505060405180910390a150565b60006002811115612b0457fe5b816002811115612b1057fe5b1480612b32575060016002811115612b2457fe5b816002811115612b3057fe5b145b15612b915760008214612b90576040517f08c379a000000000000000000000000000000000000000000000000000000000815260040180806020018281038252602c815260200180613518602c913960400191505060405180910390fd5b5b81600360008573ffffffffffffffffffffffffffffffffffffffff1673ffffffffffffffffffffffffffffffffffffffff1681526020019081526020016000206000018190555080600360008573ffffffffffffffffffffffffffffffffffffffff1673ffffffffffffffffffffffffffffffffffffffff16815260200190815260200160002060010160006101000a81548160ff02191690836002811115612c3657fe5b02179055507fc964ed8af672f908dc7ba57f61d45a87a7e179cecf5198e7b7d53c920d898f06838383604051808473ffffffffffffffffffffffffffffffffffffffff1673ffffffffffffffffffffffffffffffffffffffff168152602001838152602001826002811115612ca757fe5b60ff168152602001935050505060405180910390a1505050565b806001819055507f7caceb1091bbaa84d09ab116a1fd72387eaab8a33d70fc39168b9b75686ee32c816040518082815260200191505060405180910390a150565b7fbb39ebb37e60fb5d606ffdb749d2336e56b88e6c88c4bd6513b308f643186eed816040518080602001828103825283818151815260200191508051906020019080838360005b83811015612d64578082015181840152602081019050612d49565b50505050905090810190601f168015612d915780820380516001836020036101000a031916815260200191505b509250505060405180910390a150565b600082821115612e19576040517f08c379a000000000000000000000000000000000000000000000000000000000815260040180806020018281038252601e8152602001807f536166654d6174683a207375627472616374696f6e206f766572666c6f77000081525060200191505060405180910390fd5b600082840390508091505092915050565b600080600260008573ffffffffffffffffffffffffffffffffffffffff1673ffffffffffffffffffffffffffffffffffffffff16815260200190815260200160002054905082811015612ee5576040517f08c379a000000000000000000000000000000000000000000000000000000000815260040180806020018281038252601e8152602001807f696e73756666696369656e74206465706f73697420746f2072656d6f7665000081525060200191505060405180910390fd5b612ef88382612da190919063ffffffff16565b915081600260008673ffffffffffffffffffffffffffffffffffffffff1673ffffffffffffffffffffffffffffffffffffffff168152602001908152602001600020819055507f51c54d09e3f09480ef3014ab9c0738a405a9f38ebca6b7f60ff3acbd22ed2b44848484604051808473ffffffffffffffffffffffffffffffffffffffff1673ffffffffffffffffffffffffffffffffffffffff168152602001838152602001828152602001935050505060405180910390a18191505092915050565b600080828401905083811015613039576040517f08c379a000000000000000000000000000000000000000000000000000000000815260040180806020018281038252601b8152602001807f536166654d6174683a206164646974696f6e206f766572666c6f77000000000081525060200191505060405180910390fd5b8091505092915050565b806000819055507f337b880688eb06df8adb77036a6c8def1da2b520bc901c04b3a5a23f9ae13039816040518082815260200191505060405180910390a150565b731776e1f26f98b1a5df9cd347953a26dd3cb4667173ffffffffffffffffffffffffffffffffffffffff16637c8d56b883836040518363ffffffff1660e01b8152600401808373ffffffffffffffffffffffffffffffffffffffff1673ffffffffffffffffffffffffffffffffffffffff16815260200182815260200192505050602060405180830381600087803b15801561311f57600080fd5b505af1158015613133573d6000803e3d6000fd5b505050506040513d602081101561314957600080fd5b81019080805190602001909291905050506131cc576040517f08c379a00000000000000000000000000000000000000000000000000000000081526004018080602001828103825260138152602001807f6e6d72206275726e46726f6d206661696c65640000000000000000000000000081525060200191505060405180910390fd5b5050565b6000806131dd8484612e2a565b90506131e883613373565b7f659f33fc6677bebf3a9bf3101092792e31f35766d0358e54577bdd91a655f6a08484604051808373ffffffffffffffffffffffffffffffffffffffff1673ffffffffffffffffffffffffffffffffffffffff1681526020018281526020019250505060405180910390a18091505092915050565b60006132b182600260008673ffffffffffffffffffffffffffffffffffffffff1673ffffffffffffffffffffffffffffffffffffffff16815260200190815260200160002054612fbb90919063ffffffff16565b905080600260008573ffffffffffffffffffffffffffffffffffffffff1673ffffffffffffffffffffffffffffffffffffffff168152602001908152602001600020819055507f05ee66c5c291705b2a39786f7a3c9abb763a9c66336056b9e154be4aa0f31813838383604051808473ffffffffffffffffffffffffffffffffffffffff1673ffffffffffffffffffffffffffffffffffffffff168152602001838152602001828152602001935050505060405180910390a180905092915050565b731776e1f26f98b1a5df9cd347953a26dd3cb4667173ffffffffffffffffffffffffffffffffffffffff1663a0712d68826040518263ffffffff1660e01b815260040180828152602001915050602060405180830381600087803b1580156133da57600080fd5b505af11580156133ee573d6000803e3d6000fd5b505050506040513d602081101561340457600080fd5b8101908080519060200190929190505050613487576040517f08c379a000000000000000000000000000000000000000000000000000000000815260040180806020018281038252600f8152602001807f6e6d72206275726e206661696c6564000000000000000000000000000000000081525060200191505060405180910390fd5b5056fe726174696f547970652063616e6e6f7420626520526174696f547970652e496e66536166654d6174683a206d756c7469706c69636174696f6e206f766572666c6f776d7573742062652063616c6c65642077697468696e20636f6e747261637420636f6e7374727563746f72726174696f547970652063616e6e6f7420626520526174696f547970652e4e614e726174696f206d7573742062652030207768656e20726174696f54797065206973204e614e206f7220496e66a265627a7a72315820d5e3fec9ebd21285441dd61bf2919ed7c8195bf92598c2835752302d9064e72864736f6c634300050d0032",
  "source": "pragma solidity ^0.5.13;\n\nimport \"../helpers/openzeppelin-solidity/math/SafeMath.sol\";\nimport \"../modules/Countdown.sol\";\nimport \"../modules/Griefing.sol\";\nimport \"../modules/EventMetadata.sol\";\nimport \"../modules/Operated.sol\";\nimport \"../modules/Template.sol\";\n\n/// @title CountdownGriefing\n/// @author Stephane Gosselin (@thegostep) for Numerai Inc\n/// @dev Security contact: security@numer.ai\n/// @dev Version: 1.2.0\n/// @dev State Machine: https://github.com/erasureprotocol/erasure-protocol/blob/v1.2.0/docs/state-machines/agreements/CountdownGriefing.png\n/// @notice This agreement template allows a staker to grant permission to a counterparty to punish, reward, or release their stake until the countdown is completed.\n///         A new instance is initialized by the factory using the `initData` received. See the `initialize()` function for details on initialization parameters.\n///         Notable features:\n///             - The staker can increase the stake at any time before the end of the countdown.\n///             - The counterparty can increase, release, or punish the stake at any time before the end of the countdown.\n///             - The agreement can be terminated by the staker by starting the countdown. Once the countdown completes the staker can retrieve their remaining stake.\n///             - Punishments use griefing which requires the counterparty to pay an appropriate amount based on the desired punishment and a predetermined ratio.\n///             - An operator can optionally be defined to grant full permissions to a trusted external address or contract.\ncontract CountdownGriefing is Countdown, Griefing, EventMetadata, Operated, Template {\n\n    using SafeMath for uint256;\n\n    Data private _data;\n    struct Data {\n        address staker;\n        address counterparty;\n    }\n\n    event Initialized(address operator, address staker, address counterparty, uint256 ratio, Griefing.RatioType ratioType, uint256 countdownLength, bytes metadata);\n\n    /// @notice Constructor used to initialize the agreement parameters.\n    ///         All parameters are passed as ABI-encoded calldata to the factory. This calldata must include the function selector.\n    /// @dev Access Control: only factory\n    ///      State Machine: before all\n    /// @param operator address of the operator that overrides access control. Optional parameter. Passing the address(0) will disable operator functionality.\n    /// @param staker address of the staker who owns the stake. Required parameter. This address is the only one able to retrieve the stake and cannot be changed.\n    /// @param counterparty address of the counterparty who has the right to reward, release, and punish the stake. Required parameter. This address cannot be changed.\n    /// @param ratio uint256 number (18 decimals) used to determine punishment cost. Required parameter. See Griefing module for details on valid input.\n    /// @param ratioType Griefing.RatioType number used to determine punishment cost. Required parameter. See Griefing module for details on valid input.\n    /// @param countdownLength uint256 amount of time (in seconds) the counterparty has to punish or reward before the agreement ends.\n    /// @param metadata bytes data (any format) to emit as event on initialization.\n    function initialize(\n        address operator,\n        address staker,\n        address counterparty,\n        uint256 ratio,\n        Griefing.RatioType ratioType,\n        uint256 countdownLength,\n        bytes memory metadata\n    ) public initializeTemplate() {\n        // set storage values\n        _data.staker = staker;\n        _data.counterparty = counterparty;\n\n        // set operator\n        if (operator != address(0)) {\n            Operated._setOperator(operator);\n        }\n\n        // set griefing ratio\n        Griefing._setRatio(staker, ratio, ratioType);\n\n        // set countdown length\n        Countdown._setLength(countdownLength);\n\n        // set metadata\n        if (metadata.length != 0) {\n            EventMetadata._setMetadata(metadata);\n        }\n\n        // log initialization params\n        emit Initialized(operator, staker, counterparty, ratio, ratioType, countdownLength, metadata);\n    }\n\n    // state functions\n\n    /// @notice Emit metadata event\n    /// @dev Access Control: operator\n    ///      State Machine: always\n    /// @param metadata bytes data (any format) to emit as event\n    function setMetadata(bytes memory metadata) public {\n        // restrict access\n        require(Operated.isOperator(msg.sender), \"only operator\");\n\n        // update metadata\n        EventMetadata._setMetadata(metadata);\n    }\n\n    /// @notice Called by the staker to increase the stake\n    ///          - tokens (ERC-20) are transfered from the caller and requires approval of this contract for appropriate amount\n    /// @dev Access Control: staker OR operator\n    ///      State Machine: before isTerminated()\n    /// @param amountToAdd uint256 amount of NMR (18 decimals) to be added to the stake\n    function increaseStake(uint256 amountToAdd) public {\n        // restrict access\n        require(isStaker(msg.sender) || Operated.isOperator(msg.sender), \"only staker or operator\");\n\n        // require agreement is not ended\n        require(!isTerminated(), \"agreement ended\");\n\n        // add stake\n        Staking._addStake(_data.staker, msg.sender, amountToAdd);\n    }\n\n    /// @notice Called by the counterparty to increase the stake\n    ///          - tokens (ERC-20) are transfered from the caller and requires approval of this contract for appropriate amount\n    /// @dev Access Control: counterparty OR operator\n    ///      State Machine: before isTerminated()\n    /// @param amountToAdd uint256 amount of NMR (18 decimals) to be added to the stake\n    function reward(uint256 amountToAdd) public {\n        // restrict access\n        require(isCounterparty(msg.sender) || Operated.isOperator(msg.sender), \"only counterparty or operator\");\n\n        // require agreement is not ended\n        require(!isTerminated(), \"agreement ended\");\n\n        // add stake\n        Staking._addStake(_data.staker, msg.sender, amountToAdd);\n    }\n\n    /// @notice Called by the counterparty to punish the stake\n    ///          - burns the punishment from the stake and a proportional amount from the counterparty balance\n    ///          - the cost of the punishment is calculated with the `Griefing.getCost()` function using the predetermined griefing ratio\n    ///          - tokens (ERC-20) are burned from the caller and requires approval of this contract for appropriate amount\n    /// @dev Access Control: counterparty OR operator\n    ///      State Machine: before isTerminated()\n    /// @param punishment uint256 amount of NMR (18 decimals) to be burned from the stake\n    /// @param message bytes data (any format) to emit as event giving reason for the punishment\n    /// @return cost uint256 amount of NMR (18 decimals) it cost to perform punishment\n    function punish(uint256 punishment, bytes memory message) public returns (uint256 cost) {\n        // restrict access\n        require(isCounterparty(msg.sender) || Operated.isOperator(msg.sender), \"only counterparty or operator\");\n\n        // require agreement is not ended\n        require(!isTerminated(), \"agreement ended\");\n\n        // execute griefing\n        return Griefing._grief(msg.sender, _data.staker, punishment, message);\n    }\n\n    /// @notice Called by the counterparty to release the stake to the staker\n    /// @dev Access Control: counterparty OR operator\n    ///      State Machine: anytime\n    /// @param amountToRelease uint256 amount of NMR (18 decimals) to be released from the stake\n    function releaseStake(uint256 amountToRelease) public {\n        // restrict access\n        require(isCounterparty(msg.sender) || Operated.isOperator(msg.sender), \"only counterparty or operator\");\n\n        // release stake back to the staker\n        Staking._takeStake(_data.staker, _data.staker, amountToRelease);\n    }\n\n    /// @notice Called by the staker to begin countdown to finalize the agreement\n    /// @dev Access Control: staker OR operator\n    ///      State Machine: before Countdown.isActive()\n    /// @return deadline uint256 timestamp (Unix seconds) at which the agreement will be finalized\n    function startCountdown() public returns (uint256 deadline) {\n        // restrict access\n        require(isStaker(msg.sender) || Operated.isOperator(msg.sender), \"only staker or operator\");\n\n        // require countdown is not started\n        require(isInitialized(), \"deadline already set\");\n\n        // start countdown\n        return Countdown._start();\n    }\n\n    /// @notice Called by the staker to retrieve the remaining stake once the agreement has ended\n    /// @dev Access Control: staker OR operator\n    ///      State Machine: after Countdown.isOver()\n    /// @param recipient address of the account where to send the stake\n    /// @return amount uint256 amount of NMR (18 decimals) retrieved\n    function retrieveStake(address recipient) public returns (uint256 amount) {\n        // restrict access\n        require(isStaker(msg.sender) || Operated.isOperator(msg.sender), \"only staker or operator\");\n\n        // require deadline is passed\n        require(isTerminated(), \"deadline not passed\");\n\n        // retrieve stake\n        return Staking._takeFullStake(_data.staker, recipient);\n    }\n\n    /// @notice Called by the operator to transfer control to new operator\n    /// @dev Access Control: operator\n    ///      State Machine: anytime\n    /// @param operator address of the new operator\n    function transferOperator(address operator) public {\n        // restrict access\n        require(Operated.isOperator(msg.sender), \"only operator\");\n\n        // transfer operator\n        Operated._transferOperator(operator);\n    }\n\n    /// @notice Called by the operator to renounce control\n    /// @dev Access Control: operator\n    ///      State Machine: anytime\n    function renounceOperator() public {\n        // restrict access\n        require(Operated.isOperator(msg.sender), \"only operator\");\n\n        // renounce operator\n        Operated._renounceOperator();\n    }\n\n    // view functions\n\n    /// @notice Get the address of the staker (if set)\n    /// @return staker address of the staker\n    function getStaker() public view returns (address staker) {\n        return _data.staker;\n    }\n\n    /// @notice Validate if the address matches the stored staker address\n    /// @param caller address to validate\n    /// @return validity bool true if matching address\n    function isStaker(address caller) internal view returns (bool validity) {\n        return caller == getStaker();\n    }\n\n    /// @notice Get the address of the counterparty (if set)\n    /// @return counterparty address of counterparty account\n    function getCounterparty() public view returns (address counterparty) {\n        return _data.counterparty;\n    }\n\n    /// @notice Validate if the address matches the stored counterparty address\n    /// @param caller address to validate\n    /// @return validity bool true if matching address\n    function isCounterparty(address caller) internal view returns (bool validity) {\n        return caller == getCounterparty();\n    }\n\n    /// @notice Get the current stake of the agreement\n    /// @return stake uint256 amount of NMR (18 decimals) staked\n    function getCurrentStake() public view returns (uint256 stake) {\n        return Staking.getStake(_data.staker);\n    }\n\n    /// @notice Validate if the current stake is greater than 0\n    /// @return validity bool true if non-zero stake\n    function isStaked() public view returns (bool validity) {\n        return getCurrentStake() > 0;\n    }\n\n    enum AgreementStatus { isInitialized, isInCountdown, isTerminated }\n    /// @notice Get the status of the state machine\n    /// @return status AgreementStatus from the following states:\n    ///          - isInitialized: initialized but no deposits made\n    ///          - isInCountdown: staker has triggered countdown to termination\n    ///          - isTerminated: griefing agreement is over, staker can retrieve stake\n    function getAgreementStatus() public view returns (AgreementStatus status) {\n        if (Countdown.isOver()) {\n            return AgreementStatus.isTerminated;\n        } else if (Countdown.isActive()) {\n            return AgreementStatus.isInCountdown;\n        } else {\n            return AgreementStatus.isInitialized;\n        }\n    }\n\n    /// @notice Validate if the state machine is in the AgreementStatus.isInitialized state\n    /// @return validity bool true if correct state\n    function isInitialized() internal view returns (bool validity) {\n        return getAgreementStatus() == AgreementStatus.isInitialized;\n    }\n\n    /// @notice Validate if the state machine is in the AgreementStatus.isInCountdown state\n    /// @return validity bool true if correct state\n    function isInCountdown() internal view returns (bool validity) {\n        return getAgreementStatus() == AgreementStatus.isInCountdown;\n    }\n\n    /// @notice Validate if the state machine is in the AgreementStatus.isTerminated state\n    /// @return validity bool true if correct state\n    function isTerminated() internal view returns (bool validity) {\n        return getAgreementStatus() == AgreementStatus.isTerminated;\n    }\n}\n",
  "sourcePath": "/home/kim/Code/Erasure/erasure-protocol/contracts/agreements/CountdownGriefing.sol",
  "compiler": {
    "name": "solc",
    "version": "0.5.13+commit.5b0b510c.Emscripten.clang",
    "optimizer": false,
    "runs": 200
  },
  "schemaVersion": "2.2.0",
  "updatedAt": "2019-11-23T03:57:38.487Z"
}