{
  "contractName": "CountdownGriefingEscrow",
  "abi": [
    {
      "anonymous": false,
      "inputs": [],
      "name": "Cancelled",
      "type": "event"
    },
    {
      "anonymous": false,
      "inputs": [
        {
          "indexed": false,
          "internalType": "bytes",
          "name": "data",
          "type": "bytes"
        }
      ],
      "name": "DataSubmitted",
      "type": "event"
    },
    {
      "anonymous": false,
      "inputs": [
        {
          "indexed": false,
          "internalType": "uint256",
          "name": "deadline",
          "type": "uint256"
        }
      ],
      "name": "DeadlineSet",
      "type": "event"
    },
    {
      "anonymous": false,
      "inputs": [
        {
          "indexed": false,
          "internalType": "address",
          "name": "user",
          "type": "address"
        },
        {
          "indexed": false,
          "internalType": "uint256",
          "name": "amount",
          "type": "uint256"
        },
        {
          "indexed": false,
          "internalType": "uint256",
          "name": "newDeposit",
          "type": "uint256"
        }
      ],
      "name": "DepositDecreased",
      "type": "event"
    },
    {
      "anonymous": false,
      "inputs": [
        {
          "indexed": false,
          "internalType": "address",
          "name": "user",
          "type": "address"
        },
        {
          "indexed": false,
          "internalType": "uint256",
          "name": "amount",
          "type": "uint256"
        },
        {
          "indexed": false,
          "internalType": "uint256",
          "name": "newDeposit",
          "type": "uint256"
        }
      ],
      "name": "DepositIncreased",
      "type": "event"
    },
    {
      "anonymous": false,
      "inputs": [
        {
          "indexed": false,
          "internalType": "address",
          "name": "agreement",
          "type": "address"
        }
      ],
      "name": "Finalized",
      "type": "event"
    },
    {
      "anonymous": false,
      "inputs": [
        {
          "indexed": false,
          "internalType": "address",
          "name": "operator",
          "type": "address"
        },
        {
          "indexed": false,
          "internalType": "address",
          "name": "buyer",
          "type": "address"
        },
        {
          "indexed": false,
          "internalType": "address",
          "name": "seller",
          "type": "address"
        },
        {
          "indexed": false,
          "internalType": "uint256",
          "name": "paymentAmount",
          "type": "uint256"
        },
        {
          "indexed": false,
          "internalType": "uint256",
          "name": "stakeAmount",
          "type": "uint256"
        },
        {
          "indexed": false,
          "internalType": "uint256",
          "name": "countdownLength",
          "type": "uint256"
        },
        {
          "indexed": false,
          "internalType": "bytes",
          "name": "metadata",
          "type": "bytes"
        },
        {
          "indexed": false,
          "internalType": "bytes",
          "name": "agreementParams",
          "type": "bytes"
        }
      ],
      "name": "Initialized",
      "type": "event"
    },
    {
      "anonymous": false,
      "inputs": [
        {
          "indexed": false,
          "internalType": "uint256",
          "name": "length",
          "type": "uint256"
        }
      ],
      "name": "LengthSet",
      "type": "event"
    },
    {
      "anonymous": false,
      "inputs": [
        {
          "indexed": false,
          "internalType": "bytes",
          "name": "metadata",
          "type": "bytes"
        }
      ],
      "name": "MetadataSet",
      "type": "event"
    },
    {
      "anonymous": false,
      "inputs": [
        {
          "indexed": false,
          "internalType": "address",
          "name": "operator",
          "type": "address"
        }
      ],
      "name": "OperatorUpdated",
      "type": "event"
    },
    {
      "anonymous": false,
      "inputs": [
        {
          "indexed": false,
          "internalType": "address",
          "name": "buyer",
          "type": "address"
        },
        {
          "indexed": false,
          "internalType": "uint256",
          "name": "amount",
          "type": "uint256"
        }
      ],
      "name": "PaymentDeposited",
      "type": "event"
    },
    {
      "anonymous": false,
      "inputs": [
        {
          "indexed": false,
          "internalType": "address",
          "name": "staker",
          "type": "address"
        },
        {
          "indexed": false,
          "internalType": "address",
          "name": "funder",
          "type": "address"
        },
        {
          "indexed": false,
          "internalType": "uint256",
          "name": "amount",
          "type": "uint256"
        }
      ],
      "name": "StakeAdded",
      "type": "event"
    },
    {
      "anonymous": false,
      "inputs": [
        {
          "indexed": false,
          "internalType": "address",
          "name": "staker",
          "type": "address"
        },
        {
          "indexed": false,
          "internalType": "uint256",
          "name": "amount",
          "type": "uint256"
        }
      ],
      "name": "StakeBurned",
      "type": "event"
    },
    {
      "anonymous": false,
      "inputs": [
        {
          "indexed": false,
          "internalType": "address",
          "name": "seller",
          "type": "address"
        },
        {
          "indexed": false,
          "internalType": "uint256",
          "name": "amount",
          "type": "uint256"
        }
      ],
      "name": "StakeDeposited",
      "type": "event"
    },
    {
      "anonymous": false,
      "inputs": [
        {
          "indexed": false,
          "internalType": "address",
          "name": "staker",
          "type": "address"
        },
        {
          "indexed": false,
          "internalType": "address",
          "name": "recipient",
          "type": "address"
        },
        {
          "indexed": false,
          "internalType": "uint256",
          "name": "amount",
          "type": "uint256"
        }
      ],
      "name": "StakeTaken",
      "type": "event"
    },
    {
      "constant": true,
      "inputs": [],
      "name": "getCountdownStatus",
      "outputs": [
        {
          "internalType": "enum Countdown.CountdownStatus",
          "name": "status",
          "type": "uint8"
        }
      ],
      "payable": false,
      "stateMutability": "view",
      "type": "function"
    },
    {
      "constant": true,
      "inputs": [],
      "name": "getCreator",
      "outputs": [
        {
          "internalType": "address",
          "name": "creator",
          "type": "address"
        }
      ],
      "payable": false,
      "stateMutability": "view",
      "type": "function"
    },
    {
      "constant": true,
      "inputs": [],
      "name": "getDeadline",
      "outputs": [
        {
          "internalType": "uint256",
          "name": "deadline",
          "type": "uint256"
        }
      ],
      "payable": false,
      "stateMutability": "view",
      "type": "function"
    },
    {
      "constant": true,
      "inputs": [],
      "name": "getDeadlineStatus",
      "outputs": [
        {
          "internalType": "enum Deadline.DeadlineStatus",
          "name": "status",
          "type": "uint8"
        }
      ],
      "payable": false,
      "stateMutability": "view",
      "type": "function"
    },
    {
      "constant": true,
      "inputs": [
        {
          "internalType": "address",
          "name": "user",
          "type": "address"
        }
      ],
      "name": "getDeposit",
      "outputs": [
        {
          "internalType": "uint256",
          "name": "deposit",
          "type": "uint256"
        }
      ],
      "payable": false,
      "stateMutability": "view",
      "type": "function"
    },
    {
      "constant": true,
      "inputs": [],
      "name": "getFactory",
      "outputs": [
        {
          "internalType": "address",
          "name": "factory",
          "type": "address"
        }
      ],
      "payable": false,
      "stateMutability": "view",
      "type": "function"
    },
    {
      "constant": true,
      "inputs": [],
      "name": "getLength",
      "outputs": [
        {
          "internalType": "uint256",
          "name": "length",
          "type": "uint256"
        }
      ],
      "payable": false,
      "stateMutability": "view",
      "type": "function"
    },
    {
      "constant": true,
      "inputs": [],
      "name": "getOperator",
      "outputs": [
        {
          "internalType": "address",
          "name": "operator",
          "type": "address"
        }
      ],
      "payable": false,
      "stateMutability": "view",
      "type": "function"
    },
    {
      "constant": true,
      "inputs": [
        {
          "internalType": "address",
          "name": "staker",
          "type": "address"
        }
      ],
      "name": "getStake",
      "outputs": [
        {
          "internalType": "uint256",
          "name": "stake",
          "type": "uint256"
        }
      ],
      "payable": false,
      "stateMutability": "view",
      "type": "function"
    },
    {
      "constant": true,
      "inputs": [],
      "name": "getTimeRemaining",
      "outputs": [
        {
          "internalType": "uint256",
          "name": "time",
          "type": "uint256"
        }
      ],
      "payable": false,
      "stateMutability": "view",
      "type": "function"
    },
    {
      "constant": true,
      "inputs": [],
      "name": "getToken",
      "outputs": [
        {
          "internalType": "address",
          "name": "token",
          "type": "address"
        }
      ],
      "payable": false,
      "stateMutability": "pure",
      "type": "function"
    },
    {
      "constant": false,
      "inputs": [
        {
          "internalType": "address",
          "name": "operator",
          "type": "address"
        },
        {
          "internalType": "address",
          "name": "buyer",
          "type": "address"
        },
        {
          "internalType": "address",
          "name": "seller",
          "type": "address"
        },
        {
          "internalType": "uint256",
          "name": "paymentAmount",
          "type": "uint256"
        },
        {
          "internalType": "uint256",
          "name": "stakeAmount",
          "type": "uint256"
        },
        {
          "internalType": "uint256",
          "name": "escrowCountdown",
          "type": "uint256"
        },
        {
          "internalType": "bytes",
          "name": "metadata",
          "type": "bytes"
        },
        {
          "internalType": "bytes",
          "name": "agreementParams",
          "type": "bytes"
        }
      ],
      "name": "initialize",
      "outputs": [],
      "payable": false,
      "stateMutability": "nonpayable",
      "type": "function"
    },
    {
      "constant": false,
      "inputs": [
        {
          "internalType": "bytes",
          "name": "metadata",
          "type": "bytes"
        }
      ],
      "name": "setMetadata",
      "outputs": [],
      "payable": false,
      "stateMutability": "nonpayable",
      "type": "function"
    },
    {
      "constant": false,
      "inputs": [],
      "name": "depositStake",
      "outputs": [],
      "payable": false,
      "stateMutability": "nonpayable",
      "type": "function"
    },
    {
      "constant": false,
      "inputs": [],
      "name": "depositPayment",
      "outputs": [],
      "payable": false,
      "stateMutability": "nonpayable",
      "type": "function"
    },
    {
      "constant": false,
      "inputs": [],
      "name": "finalize",
      "outputs": [],
      "payable": false,
      "stateMutability": "nonpayable",
      "type": "function"
    },
    {
      "constant": false,
      "inputs": [
        {
          "internalType": "bytes",
          "name": "data",
          "type": "bytes"
        }
      ],
      "name": "submitData",
      "outputs": [],
      "payable": false,
      "stateMutability": "nonpayable",
      "type": "function"
    },
    {
      "constant": false,
      "inputs": [],
      "name": "cancel",
      "outputs": [],
      "payable": false,
      "stateMutability": "nonpayable",
      "type": "function"
    },
    {
      "constant": false,
      "inputs": [],
      "name": "timeout",
      "outputs": [],
      "payable": false,
      "stateMutability": "nonpayable",
      "type": "function"
    },
    {
      "constant": false,
      "inputs": [
        {
          "internalType": "address",
          "name": "operator",
          "type": "address"
        }
      ],
      "name": "transferOperator",
      "outputs": [],
      "payable": false,
      "stateMutability": "nonpayable",
      "type": "function"
    },
    {
      "constant": false,
      "inputs": [],
      "name": "renounceOperator",
      "outputs": [],
      "payable": false,
      "stateMutability": "nonpayable",
      "type": "function"
    },
    {
      "constant": true,
      "inputs": [],
      "name": "getBuyer",
      "outputs": [
        {
          "internalType": "address",
          "name": "buyer",
          "type": "address"
        }
      ],
      "payable": false,
      "stateMutability": "view",
      "type": "function"
    },
    {
      "constant": true,
      "inputs": [],
      "name": "getSeller",
      "outputs": [
        {
          "internalType": "address",
          "name": "seller",
          "type": "address"
        }
      ],
      "payable": false,
      "stateMutability": "view",
      "type": "function"
    },
    {
      "constant": true,
      "inputs": [],
      "name": "getData",
      "outputs": [
        {
          "internalType": "uint128",
          "name": "paymentAmount",
          "type": "uint128"
        },
        {
          "internalType": "uint128",
          "name": "stakeAmount",
          "type": "uint128"
        },
        {
          "internalType": "uint120",
          "name": "ratio",
          "type": "uint120"
        },
        {
          "internalType": "enum Griefing.RatioType",
          "name": "ratioType",
          "type": "uint8"
        },
        {
          "internalType": "uint128",
          "name": "countdownLength",
          "type": "uint128"
        }
      ],
      "payable": false,
      "stateMutability": "view",
      "type": "function"
    },
    {
      "constant": true,
      "inputs": [],
      "name": "getEscrowStatus",
      "outputs": [
        {
          "internalType": "enum CountdownGriefingEscrow.EscrowStatus",
          "name": "status",
          "type": "uint8"
        }
      ],
      "payable": false,
      "stateMutability": "view",
      "type": "function"
    }
  ],
  "bytecode": "0x608060405234801561001057600080fd5b50613f1f806100206000396000f3fe608060405234801561001057600080fd5b50600436106101735760003560e01c80637a766460116100de578063dbd0e1b611610097578063e7f43c6811610071578063e7f43c681461067f578063e918e832146106c9578063ea8a1af01461089a578063ee57e36f146108a457610173565b8063dbd0e1b6146105b1578063de2229fe146105fb578063e1254fba1461062757610173565b80637a7664601461040e57806388cc58e414610466578063aa5e2153146104b0578063b7ac763f146104ba578063be1c766b14610575578063dac6270d1461059357610173565b80633bc5de30116101305780633bc5de30146102905780634bb278f3146103665780635f8d96de14610370578063603daf9a1461038e5780636234216d146103d857806370dea79a1461040457610173565b80630d2d76a2146101785780630ee2cb101461018257806319fbb48e146101cc57806321df0da7146101f857806329605e77146102425780632ab6f8db14610286575b600080fd5b61018061095f565b005b61018a610c63565b604051808273ffffffffffffffffffffffffffffffffffffffff1673ffffffffffffffffffffffffffffffffffffffff16815260200191505060405180910390f35b6101d4610d44565b604051808260038111156101e457fe5b60ff16815260200191505060405180910390f35b610200610dbd565b604051808273ffffffffffffffffffffffffffffffffffffffff1673ffffffffffffffffffffffffffffffffffffffff16815260200191505060405180910390f35b6102846004803603602081101561025857600080fd5b81019080803573ffffffffffffffffffffffffffffffffffffffff169060200190929190505050610dd9565b005b61028e610e60565b005b610298610ee5565b60405180866fffffffffffffffffffffffffffffffff166fffffffffffffffffffffffffffffffff168152602001856fffffffffffffffffffffffffffffffff166fffffffffffffffffffffffffffffffff168152602001846effffffffffffffffffffffffffffff166effffffffffffffffffffffffffffff16815260200183600281111561032457fe5b60ff168152602001826fffffffffffffffffffffffffffffffff166fffffffffffffffffffffffffffffffff1681526020019550505050505060405180910390f35b61036e610fa1565b005b610378611b86565b6040518082815260200191505060405180910390f35b610396611b8f565b604051808273ffffffffffffffffffffffffffffffffffffffff1673ffffffffffffffffffffffffffffffffffffffff16815260200191505060405180910390f35b6103e0611bbc565b604051808260058111156103f057fe5b60ff16815260200191505060405180910390f35b61040c611bd6565b005b6104506004803603602081101561042457600080fd5b81019080803573ffffffffffffffffffffffffffffffffffffffff169060200190929190505050611cf5565b6040518082815260200191505060405180910390f35b61046e611d07565b604051808273ffffffffffffffffffffffffffffffffffffffff1673ffffffffffffffffffffffffffffffffffffffff16815260200191505060405180910390f35b6104b8611d31565b005b610573600480360360208110156104d057600080fd5b81019080803590602001906401000000008111156104ed57600080fd5b8201836020820111156104ff57600080fd5b8035906020019184600183028401116401000000008311171561052157600080fd5b91908080601f016020809104026020016040519081016040528093929190818152602001838380828437600081840152601f19601f820116905080830192505050505050509192919290505050612036565b005b61057d6121da565b6040518082815260200191505060405180910390f35b61059b6121e4565b6040518082815260200191505060405180910390f35b6105b9612214565b604051808273ffffffffffffffffffffffffffffffffffffffff1673ffffffffffffffffffffffffffffffffffffffff16815260200191505060405180910390f35b610603612241565b6040518082600281111561061357fe5b60ff16815260200191505060405180910390f35b6106696004803603602081101561063d57600080fd5b81019080803573ffffffffffffffffffffffffffffffffffffffff169060200190929190505050612271565b6040518082815260200191505060405180910390f35b6106876122ba565b604051808273ffffffffffffffffffffffffffffffffffffffff1673ffffffffffffffffffffffffffffffffffffffff16815260200191505060405180910390f35b61089860048036036101008110156106e057600080fd5b81019080803573ffffffffffffffffffffffffffffffffffffffff169060200190929190803573ffffffffffffffffffffffffffffffffffffffff169060200190929190803573ffffffffffffffffffffffffffffffffffffffff1690602001909291908035906020019092919080359060200190929190803590602001909291908035906020019064010000000081111561077b57600080fd5b82018360208201111561078d57600080fd5b803590602001918460018302840111640100000000831117156107af57600080fd5b91908080601f016020809104026020016040519081016040528093929190818152602001838380828437600081840152601f19601f8201169050808301925050505050505091929192908035906020019064010000000081111561081257600080fd5b82018360208201111561082457600080fd5b8035906020019184600183028401116401000000008311171561084657600080fd5b91908080601f016020809104026020016040519081016040528093929190818152602001838380828437600081840152601f19601f8201169050808301925050505050505091929192905050506122e4565b005b6108a2612a8c565b005b61095d600480360360208110156108ba57600080fd5b81019080803590602001906401000000008111156108d757600080fd5b8201836020820111156108e957600080fd5b8035906020019184600183028401116401000000008311171561090b57600080fd5b91908080601f016020809104026020016040519081016040528093929190818152602001838380828437600081840152601f19601f820116905080830192505050505050509192919290505050612bac565b005b61096833612c33565b15801561097b575061097933612c72565b155b15610a8c57600073ffffffffffffffffffffffffffffffffffffffff16600560010160009054906101000a900473ffffffffffffffffffffffffffffffffffffffff1673ffffffffffffffffffffffffffffffffffffffff1614610a47576040517f08c379a00000000000000000000000000000000000000000000000000000000081526004018080602001828103825260178152602001807f6f6e6c792073656c6c6572206f72206f70657261746f7200000000000000000081525060200191505060405180910390fd5b33600560010160006101000a81548173ffffffffffffffffffffffffffffffffffffffff021916908373ffffffffffffffffffffffffffffffffffffffff1602179055505b610a94612ccc565b80610aa35750610aa2612cf3565b5b610b15576040517f08c379a000000000000000000000000000000000000000000000000000000000815260040180806020018281038252601b8152602001807f63616e206f6e6c79206465706f736974207374616b65206f6e6365000000000081525060200191505060405180910390fd5b6000600560010160009054906101000a900473ffffffffffffffffffffffffffffffffffffffff1690506000600560020160109054906101000a90046fffffffffffffffffffffffffffffffff166fffffffffffffffffffffffffffffffff16905060008114610b8b57610b8a823383612d1b565b5b7f0a7bb2e28cc4698aac06db79cf9163bfcc20719286cf59fa7d492ceda1b8edc28282604051808373ffffffffffffffffffffffffffffffffffffffff1673ffffffffffffffffffffffffffffffffffffffff1681526020018281526020019250505060405180910390a1610bfe612cf3565b15610c37576003600560030160006101000a81548160ff02191690836005811115610c2557fe5b0217905550610c32610fa1565b610c5f565b6001600560030160006101000a81548160ff02191690836005811115610c5957fe5b02179055505b5050565b6000600460009054906101000a900473ffffffffffffffffffffffffffffffffffffffff1673ffffffffffffffffffffffffffffffffffffffff16636bf71982306040518263ffffffff1660e01b8152600401808273ffffffffffffffffffffffffffffffffffffffff1673ffffffffffffffffffffffffffffffffffffffff16815260200191505060206040518083038186803b158015610d0457600080fd5b505afa158015610d18573d6000803e3d6000fd5b505050506040513d6020811015610d2e57600080fd5b8101908080519060200190929190505050905090565b6000806001541415610d595760009050610dba565b60006002811115610d6657fe5b610d6e612241565b6002811115610d7957fe5b1415610d885760019050610dba565b600280811115610d9457fe5b610d9c612241565b6002811115610da757fe5b14610db55760029050610dba565b600390505b90565b6000731776e1f26f98b1a5df9cd347953a26dd3cb46671905090565b610de233612c72565b610e54576040517f08c379a000000000000000000000000000000000000000000000000000000000815260040180806020018281038252600d8152602001807f6f6e6c79206f70657261746f720000000000000000000000000000000000000081525060200191505060405180910390fd5b610e5d81612f39565b50565b610e6933612c72565b610edb576040517f08c379a000000000000000000000000000000000000000000000000000000000815260040180806020018281038252600d8152602001807f6f6e6c79206f70657261746f720000000000000000000000000000000000000081525060200191505060405180910390fd5b610ee3613148565b565b6000806000806000600560020160009054906101000a90046fffffffffffffffffffffffffffffffff16600560020160109054906101000a90046fffffffffffffffffffffffffffffffff16600560040160000160009054906101000a90046effffffffffffffffffffffffffffff166005600401600001600f9054906101000a900460ff16600560040160000160109054906101000a90046fffffffffffffffffffffffffffffffff16945094509450945094509091929394565b610faa33612c33565b80610fba5750610fb933612c72565b5b61102c576040517f08c379a00000000000000000000000000000000000000000000000000000000081526004018080602001828103825260178152602001807f6f6e6c792073656c6c6572206f72206f70657261746f7200000000000000000081525060200191505060405180910390fd5b6110346132b5565b6110a6576040517f08c379a00000000000000000000000000000000000000000000000000000000081526004018080602001828103825260128152602001807f6f6e6c79206166746572206465706f736974000000000000000000000000000081525060200191505060405180910390fd5b6000806110b1611d07565b905060008173ffffffffffffffffffffffffffffffffffffffff1663a5e139046040518163ffffffff1660e01b815260040160206040518083038186803b1580156110fb57600080fd5b505afa15801561110f573d6000803e3d6000fd5b505050506040513d602081101561112557600080fd5b8101908080519060200190929190505050905060008173ffffffffffffffffffffffffffffffffffffffff166345bdfb1e846040518263ffffffff1660e01b8152600401808273ffffffffffffffffffffffffffffffffffffffff1673ffffffffffffffffffffffffffffffffffffffff16815260200191505060006040518083038186803b1580156111b757600080fd5b505afa1580156111cb573d6000803e3d6000fd5b505050506040513d6000823e3d601f19601f8201168201806040525060208110156111f557600080fd5b810190808051604051939291908464010000000082111561121557600080fd5b8382019150602082018581111561122b57600080fd5b825186600182028301116401000000008211171561124857600080fd5b8083526020830192505050908051906020019080838360005b8381101561127c578082015181840152602081019050611261565b50505050905090810190601f1680156112a95780820380516001836020036101000a031916815260200191505b5060405250505080602001905160208110156112c457600080fd5b81019080805190602001909291905050509050606030600560010160009054906101000a900473ffffffffffffffffffffffffffffffffffffffff16600560000160009054906101000a900473ffffffffffffffffffffffffffffffffffffffff16600560040160000160009054906101000a90046effffffffffffffffffffffffffffff166effffffffffffffffffffffffffffff166005600401600001600f9054906101000a900460ff16600560040160000160109054906101000a90046fffffffffffffffffffffffffffffffff166fffffffffffffffffffffffffffffffff1660405180602001604052806000815250604051602401808873ffffffffffffffffffffffffffffffffffffffff1673ffffffffffffffffffffffffffffffffffffffff1681526020018773ffffffffffffffffffffffffffffffffffffffff1673ffffffffffffffffffffffffffffffffffffffff1681526020018673ffffffffffffffffffffffffffffffffffffffff1673ffffffffffffffffffffffffffffffffffffffff16815260200185815260200184600281111561146757fe5b60ff16815260200183815260200180602001828103825283818151815260200191508051906020019080838360005b838110156114b1578082015181840152602081019050611496565b50505050905090810190601f1680156114de5780820380516001836020036101000a031916815260200191505b50985050505050505050506040516020818303038152906040527fb6ef4284000000000000000000000000000000000000000000000000000000007bffffffffffffffffffffffffffffffffffffffffffffffffffffffff19166020820180517bffffffffffffffffffffffffffffffffffffffffffffffffffffffff838183161783525050505090508173ffffffffffffffffffffffffffffffffffffffff1663cf5ba53f826040518263ffffffff1660e01b81526004018080602001828103825283818151815260200191508051906020019080838360005b838110156115d45780820151818401526020810190506115b9565b50505050905090810190601f1680156116015780820380516001836020036101000a031916815260200191505b5092505050602060405180830381600087803b15801561162057600080fd5b505af1158015611634573d6000803e3d6000fd5b505050506040513d602081101561164a57600080fd5b8101908080519060200190929190505050945050505050600080611692600560000160009054906101000a900473ffffffffffffffffffffffffffffffffffffffff166132dd565b905060006116c4600560010160009054906101000a900473ffffffffffffffffffffffffffffffffffffffff166132dd565b90506116d9818361333690919063ffffffff16565b92505050600081111561188d576116ee610dbd565b73ffffffffffffffffffffffffffffffffffffffff1663095ea7b383836040518363ffffffff1660e01b8152600401808373ffffffffffffffffffffffffffffffffffffffff1673ffffffffffffffffffffffffffffffffffffffff16815260200182815260200192505050602060405180830381600087803b15801561177457600080fd5b505af1158015611788573d6000803e3d6000fd5b505050506040513d602081101561179e57600080fd5b8101908080519060200190929190505050611821576040517f08c379a00000000000000000000000000000000000000000000000000000000081526004018080602001828103825260158152602001807f746f6b656e20617070726f76616c206661696c6564000000000000000000000081525060200191505060405180910390fd5b8173ffffffffffffffffffffffffffffffffffffffff1663eedad66b826040518263ffffffff1660e01b815260040180828152602001915050600060405180830381600087803b15801561187457600080fd5b505af1158015611888573d6000803e3d6000fd5b505050505b8173ffffffffffffffffffffffffffffffffffffffff16635e5365c16040518163ffffffff1660e01b8152600401602060405180830381600087803b1580156118d557600080fd5b505af11580156118e9573d6000803e3d6000fd5b505050506040513d60208110156118ff57600080fd5b810190808051906020019092919050505050600061191b6122ba565b9050600073ffffffffffffffffffffffffffffffffffffffff168173ffffffffffffffffffffffffffffffffffffffff16146119ed578273ffffffffffffffffffffffffffffffffffffffff166329605e77826040518263ffffffff1660e01b8152600401808273ffffffffffffffffffffffffffffffffffffffff1673ffffffffffffffffffffffffffffffffffffffff168152602001915050600060405180830381600087803b1580156119d057600080fd5b505af11580156119e4573d6000803e3d6000fd5b50505050611a4e565b8273ffffffffffffffffffffffffffffffffffffffff16632ab6f8db6040518163ffffffff1660e01b8152600401600060405180830381600087803b158015611a3557600080fd5b505af1158015611a49573d6000803e3d6000fd5b505050505b6004600560030160006101000a81548160ff02191690836005811115611a7057fe5b0217905550600560020160006101000a8154906fffffffffffffffffffffffffffffffff0219169055600560020160106101000a8154906fffffffffffffffffffffffffffffffff02191690556005600401600080820160006101000a8154906effffffffffffffffffffffffffffff021916905560008201600f6101000a81549060ff02191690556000820160106101000a8154906fffffffffffffffffffffffffffffffff021916905550507f8e500951de09bcc6854e88c0810bafb819503505895751e657a92df6578d3d9983604051808273ffffffffffffffffffffffffffffffffffffffff1673ffffffffffffffffffffffffffffffffffffffff16815260200191505060405180910390a1505050565b60008054905090565b6000600560000160009054906101000a900473ffffffffffffffffffffffffffffffffffffffff16905090565b6000600560030160009054906101000a900460ff16905090565b611bdf336133be565b80611bef5750611bee33612c72565b5b611c61576040517f08c379a00000000000000000000000000000000000000000000000000000000081526004018080602001828103825260168152602001807f6f6e6c79206275796572206f72206f70657261746f720000000000000000000081525060200191505060405180910390fd5b611c696132b5565b8015611c795750611c786133fd565b5b611ceb576040517f08c379a000000000000000000000000000000000000000000000000000000000815260040180806020018281038252601a8152602001807f6f6e6c7920616674657220636f756e74646f776e20656e64656400000000000081525060200191505060405180910390fd5b611cf3613424565b565b6000611d0082612271565b9050919050565b6000600460009054906101000a900473ffffffffffffffffffffffffffffffffffffffff16905090565b611d3a336133be565b158015611d4d5750611d4b33612c72565b155b15611e5e57600073ffffffffffffffffffffffffffffffffffffffff16600560000160009054906101000a900473ffffffffffffffffffffffffffffffffffffffff1673ffffffffffffffffffffffffffffffffffffffff1614611e19576040517f08c379a00000000000000000000000000000000000000000000000000000000081526004018080602001828103825260168152602001807f6f6e6c79206275796572206f72206f70657261746f720000000000000000000081525060200191505060405180910390fd5b33600560000160006101000a81548173ffffffffffffffffffffffffffffffffffffffff021916908373ffffffffffffffffffffffffffffffffffffffff1602179055505b611e66612ccc565b80611e755750611e746135af565b5b611ee7576040517f08c379a000000000000000000000000000000000000000000000000000000000815260040180806020018281038252601d8152602001807f63616e206f6e6c79206465706f736974207061796d656e74206f6e636500000081525060200191505060405180910390fd5b6000600560000160009054906101000a900473ffffffffffffffffffffffffffffffffffffffff1690506000600560020160009054906101000a90046fffffffffffffffffffffffffffffffff166fffffffffffffffffffffffffffffffff16905060008114611f5d57611f5c823383612d1b565b5b7fd348a8f42fae8db1d0030271b37ed6d94a5e292ff36db57b244ffe13f494dd458282604051808373ffffffffffffffffffffffffffffffffffffffff1673ffffffffffffffffffffffffffffffffffffffff1681526020018281526020019250505060405180910390a1611fd06135af565b1561200a576003600560030160006101000a81548160ff02191690836005811115611ff757fe5b02179055506120046135d7565b50612032565b6002600560030160006101000a81548160ff0219169083600581111561202c57fe5b02179055505b5050565b61203f33612c33565b8061204f575061204e33612c72565b5b6120c1576040517f08c379a00000000000000000000000000000000000000000000000000000000081526004018080602001828103825260178152602001807f6f6e6c792073656c6c6572206f72206f70657261746f7200000000000000000081525060200191505060405180910390fd5b6120c96135ff565b61213b576040517f08c379a00000000000000000000000000000000000000000000000000000000081526004018080602001828103825260148152602001807f6f6e6c792061667465722066696e616c697a656400000000000000000000000081525060200191505060405180910390fd5b7ffdf4f8571e6f770be30bc9e95e66f21bc368a871788c0b61c32628b1a8af1157816040518080602001828103825283818151815260200191508051906020019080838360005b8381101561219d578082015181840152602081019050612182565b50505050905090810190601f1680156121ca5780820380516001836020036101000a031916815260200191505b509250505060405180910390a150565b6000600154905090565b600042600054111561220c576122054260005461362790919063ffffffff16565b9050612211565b600090505b90565b6000600560010160009054906101000a900473ffffffffffffffffffffffffffffffffffffffff16905090565b6000806000541415612256576000905061226e565b426000541115612269576001905061226e565b600290505b90565b6000600260008373ffffffffffffffffffffffffffffffffffffffff1673ffffffffffffffffffffffffffffffffffffffff168152602001908152602001600020549050919050565b6000600360009054906101000a900473ffffffffffffffffffffffffffffffffffffffff16905090565b33600460006101000a81548173ffffffffffffffffffffffffffffffffffffffff021916908373ffffffffffffffffffffffffffffffffffffffff1602179055506000303b905060008163ffffffff161461238a576040517f08c379a000000000000000000000000000000000000000000000000000000000815260040180806020018281038252602a815260200180613e9f602a913960400191505060405180910390fd5b600073ffffffffffffffffffffffffffffffffffffffff168873ffffffffffffffffffffffffffffffffffffffff16146124035787600560000160006101000a81548173ffffffffffffffffffffffffffffffffffffffff021916908373ffffffffffffffffffffffffffffffffffffffff1602179055505b600073ffffffffffffffffffffffffffffffffffffffff168773ffffffffffffffffffffffffffffffffffffffff161461247c5786600560010160006101000a81548173ffffffffffffffffffffffffffffffffffffffff021916908373ffffffffffffffffffffffffffffffffffffffff1602179055505b600073ffffffffffffffffffffffffffffffffffffffff168973ffffffffffffffffffffffffffffffffffffffff16146124ba576124b9896136b0565b5b6000861461258757856fffffffffffffffffffffffffffffffff1686111561254a576040517f08c379a000000000000000000000000000000000000000000000000000000000815260040180806020018281038252601a8152602001807f7061796d656e74416d6f756e7420697320746f6f206c6172676500000000000081525060200191505060405180910390fd5b85600560020160006101000a8154816fffffffffffffffffffffffffffffffff02191690836fffffffffffffffffffffffffffffffff1602179055505b6000851461265357846fffffffffffffffffffffffffffffffff168514612616576040517f08c379a00000000000000000000000000000000000000000000000000000000081526004018080602001828103825260188152602001807f7374616b65416d6f756e7420697320746f6f206c61726765000000000000000081525060200191505060405180910390fd5b84600560020160106101000a8154816fffffffffffffffffffffffffffffffff02191690836fffffffffffffffffffffffffffffffff1602179055505b61265c846138be565b600083511461266f5761266e836138ff565b5b60008251146128c457600080600084806020019051606081101561269257600080fd5b81019080805190602001909291908051906020019092919080519060200190929190505050925092509250826effffffffffffffffffffffffffffff168314612743576040517f08c379a00000000000000000000000000000000000000000000000000000000081526004018080602001828103825260138152602001807f726174696f206f7574206f6620626f756e64730000000000000000000000000081525060200191505060405180910390fd5b806fffffffffffffffffffffffffffffffff1681146127ca576040517f08c379a00000000000000000000000000000000000000000000000000000000081526004018080602001828103825260208152602001807f61677265656d656e74436f756e74646f776e206f7574206f6620626f756e647381525060200191505060405180910390fd5b6040518060600160405280846effffffffffffffffffffffffffffff1681526020018360028111156127f857fe5b8152602001826fffffffffffffffffffffffffffffffff16815250600560040160008201518160000160006101000a8154816effffffffffffffffffffffffffffff02191690836effffffffffffffffffffffffffffff160217905550602082015181600001600f6101000a81548160ff0219169083600281111561287957fe5b021790555060408201518160000160106101000a8154816fffffffffffffffffffffffffffffffff02191690836fffffffffffffffffffffffffffffffff1602179055509050505050505b7fdc95ca3bf48f3bb46d5184848d99d8480caeb704626c00d25957dcd672fb73a48989898989898989604051808973ffffffffffffffffffffffffffffffffffffffff1673ffffffffffffffffffffffffffffffffffffffff1681526020018873ffffffffffffffffffffffffffffffffffffffff1673ffffffffffffffffffffffffffffffffffffffff1681526020018773ffffffffffffffffffffffffffffffffffffffff1673ffffffffffffffffffffffffffffffffffffffff1681526020018681526020018581526020018481526020018060200180602001838103835285818151815260200191508051906020019080838360005b838110156129d95780820151818401526020810190506129be565b50505050905090810190601f168015612a065780820380516001836020036101000a031916815260200191505b50838103825284818151815260200191508051906020019080838360005b83811015612a3f578082015181840152602081019050612a24565b50505050905090810190601f168015612a6c5780820380516001836020036101000a031916815260200191505b509a505050505050505050505060405180910390a1505050505050505050565b612a9533612c33565b80612aa55750612aa4336133be565b5b80612ab55750612ab433612c72565b5b612b27576040517f08c379a00000000000000000000000000000000000000000000000000000000081526004018080602001828103825260208152602001807f6f6e6c792073656c6c6572206f72206275796572206f72206f70657261746f7281525060200191505060405180910390fd5b612b2f612ccc565b80612b3e5750612b3d6135af565b5b80612b4d5750612b4c612cf3565b5b612ba2576040517f08c379a0000000000000000000000000000000000000000000000000000000008152600401808060200182810382526022815260200180613ec96022913960400191505060405180910390fd5b612baa613424565b565b612bb533612c72565b612c27576040517f08c379a000000000000000000000000000000000000000000000000000000000815260040180806020018281038252600d8152602001807f6f6e6c79206f70657261746f720000000000000000000000000000000000000081525060200191505060405180910390fd5b612c30816138ff565b50565b6000612c3d612214565b73ffffffffffffffffffffffffffffffffffffffff168273ffffffffffffffffffffffffffffffffffffffff16149050919050565b6000600360009054906101000a900473ffffffffffffffffffffffffffffffffffffffff1673ffffffffffffffffffffffffffffffffffffffff168273ffffffffffffffffffffffffffffffffffffffff16149050919050565b6000806005811115612cda57fe5b612ce2611bbc565b6005811115612ced57fe5b14905090565b600060026005811115612d0257fe5b612d0a611bbc565b6005811115612d1557fe5b14905090565b612d25838261399e565b50612d2e610dbd565b73ffffffffffffffffffffffffffffffffffffffff166323b872dd8330846040518463ffffffff1660e01b8152600401808473ffffffffffffffffffffffffffffffffffffffff1673ffffffffffffffffffffffffffffffffffffffff1681526020018373ffffffffffffffffffffffffffffffffffffffff1673ffffffffffffffffffffffffffffffffffffffff1681526020018281526020019350505050602060405180830381600087803b158015612de857600080fd5b505af1158015612dfc573d6000803e3d6000fd5b505050506040513d6020811015612e1257600080fd5b8101908080519060200190929190505050612e95576040517f08c379a00000000000000000000000000000000000000000000000000000000081526004018080602001828103825260158152602001807f746f6b656e207472616e73666572206661696c6564000000000000000000000081525060200191505060405180910390fd5b7ffb8efd70c9f0ca009bfc9f2ca8a9256a5aefbc720bdb8d838e4bcd42c241b9eb838383604051808473ffffffffffffffffffffffffffffffffffffffff1673ffffffffffffffffffffffffffffffffffffffff1681526020018373ffffffffffffffffffffffffffffffffffffffff1673ffffffffffffffffffffffffffffffffffffffff168152602001828152602001935050505060405180910390a1505050565b600073ffffffffffffffffffffffffffffffffffffffff16600360009054906101000a900473ffffffffffffffffffffffffffffffffffffffff1673ffffffffffffffffffffffffffffffffffffffff161415612ffe576040517f08c379a00000000000000000000000000000000000000000000000000000000081526004018080602001828103825260168152602001807f6f6e6c79207768656e206f70657261746f72207365740000000000000000000081525060200191505060405180910390fd5b600073ffffffffffffffffffffffffffffffffffffffff168173ffffffffffffffffffffffffffffffffffffffff1614156130a1576040517f08c379a00000000000000000000000000000000000000000000000000000000081526004018080602001828103825260208152602001807f63616e6e6f7420736574206f70657261746f7220746f2061646472657373203081525060200191505060405180910390fd5b80600360006101000a81548173ffffffffffffffffffffffffffffffffffffffff021916908373ffffffffffffffffffffffffffffffffffffffff1602179055507fb3b3f5f64ab192e4b5fefde1f51ce9733bbdcf831951543b325aebd49cc27ec481604051808273ffffffffffffffffffffffffffffffffffffffff1673ffffffffffffffffffffffffffffffffffffffff16815260200191505060405180910390a150565b600073ffffffffffffffffffffffffffffffffffffffff16600360009054906101000a900473ffffffffffffffffffffffffffffffffffffffff1673ffffffffffffffffffffffffffffffffffffffff16141561320d576040517f08c379a00000000000000000000000000000000000000000000000000000000081526004018080602001828103825260168152602001807f6f6e6c79207768656e206f70657261746f72207365740000000000000000000081525060200191505060405180910390fd5b6000600360006101000a81548173ffffffffffffffffffffffffffffffffffffffff021916908373ffffffffffffffffffffffffffffffffffffffff1602179055507fb3b3f5f64ab192e4b5fefde1f51ce9733bbdcf831951543b325aebd49cc27ec46000604051808273ffffffffffffffffffffffffffffffffffffffff1673ffffffffffffffffffffffffffffffffffffffff16815260200191505060405180910390a1565b6000600360058111156132c457fe5b6132cc611bbc565b60058111156132d757fe5b14905090565b600080600260008473ffffffffffffffffffffffffffffffffffffffff1673ffffffffffffffffffffffffffffffffffffffff16815260200190815260200160002054905061332c8382613ab4565b5080915050919050565b6000808284019050838110156133b4576040517f08c379a000000000000000000000000000000000000000000000000000000000815260040180806020018281038252601b8152602001807f536166654d6174683a206164646974696f6e206f766572666c6f77000000000081525060200191505060405180910390fd5b8091505092915050565b60006133c8611b8f565b73ffffffffffffffffffffffffffffffffffffffff168273ffffffffffffffffffffffffffffffffffffffff16149050919050565b600060038081111561340b57fe5b613413610d44565b600381111561341e57fe5b14905090565b6000600560010160009054906101000a900473ffffffffffffffffffffffffffffffffffffffff1690506000600560000160009054906101000a900473ffffffffffffffffffffffffffffffffffffffff169050600061348383611cf5565b14613494576134928283613c45565b505b600061349f82611cf5565b146134b0576134ae8182613c45565b505b60058060030160006101000a81548160ff021916908360058111156134d157fe5b0217905550600560020160006101000a8154906fffffffffffffffffffffffffffffffff0219169055600560020160106101000a8154906fffffffffffffffffffffffffffffffff02191690556005600401600080820160006101000a8154906effffffffffffffffffffffffffffff021916905560008201600f6101000a81549060ff02191690556000820160106101000a8154906fffffffffffffffffffffffffffffffff021916905550507f63b958841f79ab97cb5456da181454b9932c0e15a3b17f1cbd27e2a8bc61043760405160405180910390a15050565b6000600160058111156135be57fe5b6135c6611bbc565b60058111156135d157fe5b14905090565b60006135ee4260015461333690919063ffffffff16565b90506135f981613c69565b80905090565b60006004600581111561360e57fe5b613616611bbc565b600581111561362157fe5b14905090565b60008282111561369f576040517f08c379a000000000000000000000000000000000000000000000000000000000815260040180806020018281038252601e8152602001807f536166654d6174683a207375627472616374696f6e206f766572666c6f77000081525060200191505060405180910390fd5b600082840390508091505092915050565b600073ffffffffffffffffffffffffffffffffffffffff16600360009054906101000a900473ffffffffffffffffffffffffffffffffffffffff1673ffffffffffffffffffffffffffffffffffffffff1614613774576040517f08c379a00000000000000000000000000000000000000000000000000000000081526004018080602001828103825260148152602001807f6f70657261746f7220616c72656164792073657400000000000000000000000081525060200191505060405180910390fd5b600073ffffffffffffffffffffffffffffffffffffffff168173ffffffffffffffffffffffffffffffffffffffff161415613817576040517f08c379a00000000000000000000000000000000000000000000000000000000081526004018080602001828103825260208152602001807f63616e6e6f7420736574206f70657261746f7220746f2061646472657373203081525060200191505060405180910390fd5b80600360006101000a81548173ffffffffffffffffffffffffffffffffffffffff021916908373ffffffffffffffffffffffffffffffffffffffff1602179055507fb3b3f5f64ab192e4b5fefde1f51ce9733bbdcf831951543b325aebd49cc27ec481604051808273ffffffffffffffffffffffffffffffffffffffff1673ffffffffffffffffffffffffffffffffffffffff16815260200191505060405180910390a150565b806001819055507f7caceb1091bbaa84d09ab116a1fd72387eaab8a33d70fc39168b9b75686ee32c816040518082815260200191505060405180910390a150565b7fbb39ebb37e60fb5d606ffdb749d2336e56b88e6c88c4bd6513b308f643186eed816040518080602001828103825283818151815260200191508051906020019080838360005b83811015613961578082015181840152602081019050613946565b50505050905090810190601f16801561398e5780820380516001836020036101000a031916815260200191505b509250505060405180910390a150565b60006139f282600260008673ffffffffffffffffffffffffffffffffffffffff1673ffffffffffffffffffffffffffffffffffffffff1681526020019081526020016000205461333690919063ffffffff16565b905080600260008573ffffffffffffffffffffffffffffffffffffffff1673ffffffffffffffffffffffffffffffffffffffff168152602001908152602001600020819055507f05ee66c5c291705b2a39786f7a3c9abb763a9c66336056b9e154be4aa0f31813838383604051808473ffffffffffffffffffffffffffffffffffffffff1673ffffffffffffffffffffffffffffffffffffffff168152602001838152602001828152602001935050505060405180910390a180905092915050565b600080600260008573ffffffffffffffffffffffffffffffffffffffff1673ffffffffffffffffffffffffffffffffffffffff16815260200190815260200160002054905082811015613b6f576040517f08c379a000000000000000000000000000000000000000000000000000000000815260040180806020018281038252601e8152602001807f696e73756666696369656e74206465706f73697420746f2072656d6f7665000081525060200191505060405180910390fd5b613b82838261362790919063ffffffff16565b915081600260008673ffffffffffffffffffffffffffffffffffffffff1673ffffffffffffffffffffffffffffffffffffffff168152602001908152602001600020819055507f51c54d09e3f09480ef3014ab9c0738a405a9f38ebca6b7f60ff3acbd22ed2b44848484604051808473ffffffffffffffffffffffffffffffffffffffff1673ffffffffffffffffffffffffffffffffffffffff168152602001838152602001828152602001935050505060405180910390a18191505092915050565b600080613c5184612271565b9050613c5e848483613caa565b508091505092915050565b806000819055507f337b880688eb06df8adb77036a6c8def1da2b520bc901c04b3a5a23f9ae13039816040518082815260200191505060405180910390a150565b600080613cb78584613ab4565b9050613cc1610dbd565b73ffffffffffffffffffffffffffffffffffffffff1663a9059cbb85856040518363ffffffff1660e01b8152600401808373ffffffffffffffffffffffffffffffffffffffff1673ffffffffffffffffffffffffffffffffffffffff16815260200182815260200192505050602060405180830381600087803b158015613d4757600080fd5b505af1158015613d5b573d6000803e3d6000fd5b505050506040513d6020811015613d7157600080fd5b8101908080519060200190929190505050613df4576040517f08c379a00000000000000000000000000000000000000000000000000000000081526004018080602001828103825260158152602001807f746f6b656e207472616e73666572206661696c6564000000000000000000000081525060200191505060405180910390fd5b7f925e052b9be9fe61c1aa15c79475f18b346732f0cf5fb7a0841a558238afce99858585604051808473ffffffffffffffffffffffffffffffffffffffff1673ffffffffffffffffffffffffffffffffffffffff1681526020018373ffffffffffffffffffffffffffffffffffffffff1673ffffffffffffffffffffffffffffffffffffffff168152602001828152602001935050505060405180910390a180915050939250505056fe6d7573742062652063616c6c65642077697468696e20636f6e747261637420636f6e7374727563746f726f6e6c79206265666f7265206465706f736974732061726520636f6d706c65746564a265627a7a72315820f509da9560cdcc7c16a8ddd496ad3818e93edd3a0bfdb50e0bdc50ada5ba607264736f6c634300050d0032",
  "source": "pragma solidity ^0.5.13;\n\nimport \"../helpers/openzeppelin-solidity/math/SafeMath.sol\";\nimport \"../helpers/openzeppelin-solidity/token/ERC20/IERC20.sol\";\nimport \"../agreements/CountdownGriefing.sol\";\nimport \"../modules/iFactory.sol\";\nimport \"../modules/iRegistry.sol\";\nimport \"../modules/Countdown.sol\";\nimport \"../modules/Staking.sol\";\nimport \"../modules/EventMetadata.sol\";\nimport \"../modules/Operated.sol\";\nimport \"../modules/Template.sol\";\n\n/// @title CountdownGriefingEscrow\n/// @author Stephane Gosselin (@thegostep) for Numerai Inc\n/// @dev Security contact: security@numer.ai\n/// @dev Version: 1.2.0\n/// @dev State Machine: https://github.com/erasureprotocol/erasure-protocol/blob/v1.2.0/docs/state-machines/escrows/CountdownGriefingEscrow.png\ncontract CountdownGriefingEscrow is Countdown, Staking, EventMetadata, Operated, Template {\n\n    using SafeMath for uint256;\n\n    Data private _data;\n    struct Data {\n        address buyer;\n        address seller;\n        uint128 paymentAmount;\n        uint128 stakeAmount;\n        EscrowStatus status;\n        AgreementParams agreementParams;\n    }\n\n    struct AgreementParams {\n        uint120 ratio;\n        Griefing.RatioType ratioType;\n        uint128 countdownLength;\n    }\n\n    event Initialized(\n        address operator,\n        address buyer,\n        address seller,\n        uint256 paymentAmount,\n        uint256 stakeAmount,\n        uint256 countdownLength,\n        bytes metadata,\n        bytes agreementParams\n    );\n    event StakeDeposited(address seller, uint256 amount);\n    event PaymentDeposited(address buyer, uint256 amount);\n    event Finalized(address agreement);\n    event DataSubmitted(bytes data);\n    event Cancelled();\n\n    /// @notice Constructor\n    /// @dev Access Control: only factory\n    ///      State Machine: before all\n    /// @param buyer Address of the user that will deposit payment\n    /// @param seller Address of the user that will deposit stake and submit data\n    /// @param operator Address of the user that overrides access control\n    /// @param paymentAmount Amount of NMR (18 decimals) to be deposited by buyer as payment\n    /// @param stakeAmount Amount of NMR (18 decimals) to be deposited by seller as stake\n    /// @param escrowCountdown Amount of time (in seconds) the seller has to finalize the escrow after the payment is deposited\n    /// @param metadata Data (any format) to emit as event on initialization\n    /// @param agreementParams Encoded CountdownGriefing Agreement initialization parameters `abi.encode(ratio, ratioType, agreementCountdown)`.\n    ///                        The agreement is created on escrow completion. `ratio` is limited to uint120 and `agreementCountdown` is limited to uint128.\n    ///                        See CountdownGriefing contract for additional details.\n    function initialize(\n        address operator,\n        address buyer,\n        address seller,\n        uint256 paymentAmount,\n        uint256 stakeAmount,\n        uint256 escrowCountdown,\n        bytes memory metadata,\n        bytes memory agreementParams\n    ) public initializeTemplate() {\n        // set participants if defined\n        if (buyer != address(0)) {\n            _data.buyer = buyer;\n        }\n        if (seller != address(0)) {\n            _data.seller = seller;\n        }\n\n        // set operator if defined\n        if (operator != address(0)) {\n            Operated._setOperator(operator);\n        }\n\n        // set amounts if defined\n        if (paymentAmount != uint256(0)) {\n            require(paymentAmount <= uint256(uint128(paymentAmount)), \"paymentAmount is too large\");\n            _data.paymentAmount = uint128(paymentAmount);\n        }\n        if (stakeAmount != uint256(0)) {\n            require(stakeAmount == uint256(uint128(stakeAmount)), \"stakeAmount is too large\");\n            _data.stakeAmount = uint128(stakeAmount);\n        }\n\n        // set countdown length\n        Countdown._setLength(escrowCountdown);\n\n        // set metadata if defined\n        if (metadata.length != 0) {\n            EventMetadata._setMetadata(metadata);\n        }\n\n        // set agreementParams if defined\n        if (agreementParams.length != 0) {\n            (\n                uint256 ratio,\n                Griefing.RatioType ratioType,\n                uint256 agreementCountdown\n            ) = abi.decode(agreementParams, (uint256, Griefing.RatioType, uint256));\n            require(ratio == uint256(uint120(ratio)), \"ratio out of bounds\");\n            require(agreementCountdown == uint256(uint128(agreementCountdown)), \"agreementCountdown out of bounds\");\n            _data.agreementParams = AgreementParams(uint120(ratio), ratioType, uint128(agreementCountdown));\n        }\n\n        // emit event\n        emit Initialized(operator, buyer, seller, paymentAmount, stakeAmount, escrowCountdown, metadata, agreementParams);\n    }\n\n    /// @notice Emit metadata event\n    /// @dev Access Control: operator\n    ///      State Machine: always\n    /// @param metadata Data (any format) to emit as event\n    function setMetadata(bytes memory metadata) public {\n        // restrict access\n        require(Operated.isOperator(msg.sender), \"only operator\");\n\n        // update metadata\n        EventMetadata._setMetadata(metadata);\n    }\n\n    /// @notice Deposit Stake in NMR\n    ///          - tokens (ERC-20) are transfered from the caller and requires approval of this contract for appropriate amount\n    ///          - if seller not already set, make msg.sender the seller\n    ///          - if buyer already deposited the payment, finalize the escrow\n    /// @dev Access Control: buyer OR operator\n    ///      State Machine: before finalize() OR before cancel()\n    function depositStake() public {\n        // restrict access control\n        // set msg.sender as seller if not already set\n        if (!isSeller(msg.sender) && !Operated.isOperator(msg.sender)) {\n            require(_data.seller == address(0), \"only seller or operator\");\n            _data.seller = msg.sender;\n        }\n        // restrict state machine\n        require(isOpen() || onlyPaymentDeposited(), \"can only deposit stake once\");\n\n        // declare storage variables in memory\n        address seller = _data.seller;\n        uint256 stakeAmount = uint256(_data.stakeAmount);\n\n        // Add the stake amount\n        if (stakeAmount != uint256(0)) {\n            Staking._addStake(seller, msg.sender, stakeAmount);\n        }\n\n        // emit event\n        emit StakeDeposited(seller, stakeAmount);\n\n        // If payment is deposited, finalize the escrow\n        if (onlyPaymentDeposited()) {\n            _data.status = EscrowStatus.isDeposited;\n            finalize();\n        } else {\n            _data.status = EscrowStatus.onlyStakeDeposited;\n        }\n\n    }\n\n    /// @notice Deposit Payment in NMR\n    ///          - tokens (ERC-20) are transfered from the caller and requires approval of this contract for appropriate amount\n    ///          - if buyer not already set, make msg.sender the buyer\n    ///          - if seller already deposited the stake, start the finalization countdown\n    /// @dev Access Control: buyer OR operator\n    ///      State Machine: before finalize() OR before cancel()\n    function depositPayment() public {\n        // restrict access control\n        // set msg.sender as buyer if not already set\n        if (!isBuyer(msg.sender) && !Operated.isOperator(msg.sender)) {\n            require(_data.buyer == address(0), \"only buyer or operator\");\n            _data.buyer = msg.sender;\n        }\n        // restrict state machine\n        require(isOpen() || onlyStakeDeposited(), \"can only deposit payment once\");\n\n        // declare storage variables in memory\n        address buyer = _data.buyer;\n        uint256 paymentAmount = uint256(_data.paymentAmount);\n\n        // Add the payment as a stake\n        if (paymentAmount != uint256(0)) {\n            Staking._addStake(buyer, msg.sender, paymentAmount);\n        }\n\n        // emit event\n        emit PaymentDeposited(buyer, paymentAmount);\n\n        // If stake is deposited, start countdown for seller to finalize\n        if (onlyStakeDeposited()) {\n            _data.status = EscrowStatus.isDeposited;\n            Countdown._start();\n        } else {\n            _data.status = EscrowStatus.onlyPaymentDeposited;\n        }\n    }\n\n    /// @notice Finalize escrow and execute completion script\n    ///          - create the agreement\n    ///          - transfer deposited stake and payment to agreement\n    ///          - start agreement countdown\n    ///          - disable agreement operator\n    /// @dev Access Control: seller OR operator\n    ///      State Machine: after depositStake() AND after depositPayment()\n    function finalize() public {\n        // restrict access control\n        require(isSeller(msg.sender) || Operated.isOperator(msg.sender), \"only seller or operator\");\n        // restrict state machine\n        require(isDeposited(), \"only after deposit\");\n\n        // create the agreement\n\n        address agreement;\n        {\n            // get the agreement factory address\n\n            address escrowFactory = Template.getFactory();\n            address escrowRegistry = iFactory(escrowFactory).getInstanceRegistry();\n            address agreementFactory = abi.decode(iRegistry(escrowRegistry).getFactoryData(escrowFactory), (address));\n\n            // encode initialization function\n            bytes memory initCalldata = abi.encodeWithSignature(\n                'initialize(address,address,address,uint256,uint8,uint256,bytes)',\n                address(this),\n                _data.seller,\n                _data.buyer,\n                uint256(_data.agreementParams.ratio),\n                _data.agreementParams.ratioType,\n                uint256(_data.agreementParams.countdownLength),\n                bytes(\"\")\n            );\n\n            // deploy and initialize agreement contract\n            agreement = iFactory(agreementFactory).create(initCalldata);\n        }\n\n        // transfer stake and payment to the agreement\n\n        uint256 totalStake;\n        {\n            uint256 paymentAmount = Deposit._clearDeposit(_data.buyer);\n            uint256 stakeAmount = Deposit._clearDeposit(_data.seller);\n            totalStake = paymentAmount.add(stakeAmount);\n        }\n\n        if (totalStake > 0) {\n            require(IERC20(BurnNMR.getToken()).approve(agreement, totalStake), \"token approval failed\");\n            CountdownGriefing(agreement).increaseStake(totalStake);\n        }\n\n        // start agreement countdown\n\n        CountdownGriefing(agreement).startCountdown();\n\n        // transfer operator\n        address operator = Operated.getOperator();\n        if (operator != address(0)) {\n            CountdownGriefing(agreement).transferOperator(operator);\n        } else {\n            CountdownGriefing(agreement).renounceOperator();\n        }\n\n        // update status\n        _data.status = EscrowStatus.isFinalized;\n\n        // delete storage\n        delete _data.paymentAmount;\n        delete _data.stakeAmount;\n        delete _data.agreementParams;\n\n        // emit event\n        emit Finalized(agreement);\n    }\n\n    /// @notice Submit data to the buyer\n    /// @dev Access Control: seller OR operator\n    ///      State Machine: after finalize()\n    /// @param data Data (any format) to submit to the buyer\n    function submitData(bytes memory data) public {\n        // restrict access control\n        require(isSeller(msg.sender) || Operated.isOperator(msg.sender), \"only seller or operator\");\n        // restrict state machine\n        require(isFinalized(), \"only after finalized\");\n\n        // emit event\n        emit DataSubmitted(data);\n    }\n\n    /// @notice Cancel escrow because no interested counterparty\n    ///          - return deposit to caller\n    ///          - close escrow\n    /// @dev Access Control: seller OR buyer OR operator\n    ///      State Machine: before depositStake() OR before depositPayment()\n    function cancel() public {\n        // restrict access control\n        require(isSeller(msg.sender) || isBuyer(msg.sender) || Operated.isOperator(msg.sender), \"only seller or buyer or operator\");\n        // restrict state machine\n        require(isOpen() || onlyStakeDeposited() || onlyPaymentDeposited(), \"only before deposits are completed\");\n\n        // cancel escrow and return deposits\n        _cancel();\n    }\n\n    /// @notice Cancel escrow if seller does not finalize\n    ///          - return stake to seller\n    ///          - return payment to buyer\n    ///          - close escrow\n    /// @dev Access Control: buyer OR operator\n    ///      State Machine: after depositStake() AND after depositPayment() AND after Countdown.isOver()\n    function timeout() public {\n        // restrict access control\n        require(isBuyer(msg.sender) || Operated.isOperator(msg.sender), \"only buyer or operator\");\n        // restrict state machine\n        require(isDeposited() && Countdown.isOver(), \"only after countdown ended\");\n\n        // cancel escrow and return deposits\n        _cancel();\n    }\n\n    function _cancel() private {\n        // declare storage variables in memory\n        address seller = _data.seller;\n        address buyer = _data.buyer;\n\n        // return stake to seller\n        if (Staking.getStake(seller) != 0) {\n            Staking._takeFullStake(seller, seller);\n        }\n\n        // return payment to buyer\n        if (Staking.getStake(buyer) != 0) {\n            Staking._takeFullStake(buyer, buyer);\n        }\n\n        // update status\n        _data.status = EscrowStatus.isCancelled;\n\n        // delete storage\n        delete _data.paymentAmount;\n        delete _data.stakeAmount;\n        delete _data.agreementParams;\n\n        // emit event\n        emit Cancelled();\n    }\n\n    /// @notice Called by the operator to transfer control to new operator\n    /// @dev Access Control: operator\n    ///      State Machine: anytime\n    /// @param operator Address of the new operator\n    function transferOperator(address operator) public {\n        // restrict access\n        require(Operated.isOperator(msg.sender), \"only operator\");\n\n        // transfer operator\n        Operated._transferOperator(operator);\n    }\n\n    /// @notice Called by the operator to renounce control\n    /// @dev Access Control: operator\n    ///      State Machine: anytime\n    function renounceOperator() public {\n        // restrict access\n        require(Operated.isOperator(msg.sender), \"only operator\");\n\n        // renounce operator\n        Operated._renounceOperator();\n    }\n\n    /// View functions\n\n    /// @notice Get the address of the buyer (if set)\n    /// @return buyer Buyer account address\n    function getBuyer() public view returns (address buyer) {\n        return _data.buyer;\n    }\n\n    /// @notice Validate if the address matches the stored buyer address\n    /// @param caller Address to validate\n    /// @return validity True if matching address\n    function isBuyer(address caller) internal view returns (bool validity) {\n        return caller == getBuyer();\n    }\n\n    /// @notice Get the address of the seller (if set)\n    /// @return seller Seller account address\n    function getSeller() public view returns (address seller) {\n        return _data.seller;\n    }\n\n    /// @notice Validate if the address matches the stored seller address\n    /// @param caller Address to validate\n    /// @return validity True if matching address\n    function isSeller(address caller) internal view returns (bool validity) {\n        return caller == getSeller();\n    }\n\n    /// @notice Get the data in storage\n    /// @return uint128 paymentAmount set in initialization\n    /// @return uint128 stakeAmount set in initialization\n    /// @return uint120 ratio used for initialization of agreement on completion\n    /// @return Griefing.RatioType ratioType used for initialization of agreement on completion\n    /// @return uint128 countdownLength used for initialization of agreement on completion\n    function getData() public view returns (\n        uint128 paymentAmount,\n        uint128 stakeAmount,\n        uint120 ratio,\n        Griefing.RatioType ratioType,\n        uint128 countdownLength\n    ) {\n        return (\n            _data.paymentAmount,\n            _data.stakeAmount,\n            _data.agreementParams.ratio,\n            _data.agreementParams.ratioType,\n            _data.agreementParams.countdownLength\n        );\n    }\n\n    enum EscrowStatus { isOpen, onlyStakeDeposited, onlyPaymentDeposited, isDeposited, isFinalized, isCancelled }\n    /// @notice Return the status of the state machine\n    /// @return EscrowStatus status from of the following states:\n    ///          - isOpen: initialized but no deposits made\n    ///          - onlyStakeDeposited: only stake deposit completed\n    ///          - onlyPaymentDeposited: only payment deposit completed\n    ///          - isDeposited: both payment and stake deposit is completed\n    ///          - isFinalized: the escrow completed successfully\n    ///          - isCancelled: the escrow was cancelled\n    function getEscrowStatus() public view returns (EscrowStatus status) {\n        return _data.status;\n    }\n\n    function isOpen() internal view returns (bool validity) {\n        return getEscrowStatus() == EscrowStatus.isOpen;\n    }\n\n    function onlyStakeDeposited() internal view returns (bool validity) {\n        return getEscrowStatus() == EscrowStatus.onlyStakeDeposited;\n    }\n\n    function onlyPaymentDeposited() internal view returns (bool validity) {\n        return getEscrowStatus() == EscrowStatus.onlyPaymentDeposited;\n    }\n\n    function isDeposited() internal view returns (bool validity) {\n        return getEscrowStatus() == EscrowStatus.isDeposited;\n    }\n\n    function isFinalized() internal view returns (bool validity) {\n        return getEscrowStatus() == EscrowStatus.isFinalized;\n    }\n\n    function isCancelled() internal view returns (bool validity) {\n        return getEscrowStatus() == EscrowStatus.isCancelled;\n    }\n}\n",
  "sourcePath": "/home/kim/Code/Erasure/erasure-protocol/contracts/escrows/CountdownGriefingEscrow.sol",
  "compiler": {
    "name": "solc",
    "version": "0.5.13+commit.5b0b510c.Emscripten.clang",
    "optimizer": false,
    "runs": 200
  },
  "schemaVersion": "2.2.0",
  "updatedAt": "2019-11-23T03:57:38.378Z"
}