{
  "contractName": "Countdown",
  "abi": [
    {
      "anonymous": false,
      "inputs": [
        {
          "indexed": false,
          "internalType": "uint256",
          "name": "deadline",
          "type": "uint256"
        }
      ],
      "name": "DeadlineSet",
      "type": "event"
    },
    {
      "anonymous": false,
      "inputs": [
        {
          "indexed": false,
          "internalType": "uint256",
          "name": "length",
          "type": "uint256"
        }
      ],
      "name": "LengthSet",
      "type": "event"
    },
    {
      "constant": true,
      "inputs": [],
      "name": "getDeadline",
      "outputs": [
        {
          "internalType": "uint256",
          "name": "deadline",
          "type": "uint256"
        }
      ],
      "payable": false,
      "stateMutability": "view",
      "type": "function"
    },
    {
      "constant": true,
      "inputs": [],
      "name": "getDeadlineStatus",
      "outputs": [
        {
          "internalType": "enum Deadline.DeadlineStatus",
          "name": "status",
          "type": "uint8"
        }
      ],
      "payable": false,
      "stateMutability": "view",
      "type": "function"
    },
    {
      "constant": true,
      "inputs": [],
      "name": "getTimeRemaining",
      "outputs": [
        {
          "internalType": "uint256",
          "name": "time",
          "type": "uint256"
        }
      ],
      "payable": false,
      "stateMutability": "view",
      "type": "function"
    },
    {
      "constant": true,
      "inputs": [],
      "name": "getLength",
      "outputs": [
        {
          "internalType": "uint256",
          "name": "length",
          "type": "uint256"
        }
      ],
      "payable": false,
      "stateMutability": "view",
      "type": "function"
    },
    {
      "constant": true,
      "inputs": [],
      "name": "getCountdownStatus",
      "outputs": [
        {
          "internalType": "enum Countdown.CountdownStatus",
          "name": "status",
          "type": "uint8"
        }
      ],
      "payable": false,
      "stateMutability": "view",
      "type": "function"
    }
  ],
  "bytecode": "0x608060405234801561001057600080fd5b506102b8806100206000396000f3fe608060405234801561001057600080fd5b50600436106100575760003560e01c806319fbb48e1461005c5780635f8d96de14610088578063be1c766b146100a6578063dac6270d146100c4578063de2229fe146100e2575b600080fd5b61006461010e565b6040518082600381111561007457fe5b60ff16815260200191505060405180910390f35b610090610187565b6040518082815260200191505060405180910390f35b6100ae610190565b6040518082815260200191505060405180910390f35b6100cc61019a565b6040518082815260200191505060405180910390f35b6100ea6101ca565b604051808260028111156100fa57fe5b60ff16815260200191505060405180910390f35b60008060015414156101235760009050610184565b6000600281111561013057fe5b6101386101ca565b600281111561014357fe5b14156101525760019050610184565b60028081111561015e57fe5b6101666101ca565b600281111561017157fe5b1461017f5760029050610184565b600390505b90565b60008054905090565b6000600154905090565b60004260005411156101c2576101bb426000546101fa90919063ffffffff16565b90506101c7565b600090505b90565b60008060005414156101df57600090506101f7565b4260005411156101f257600190506101f7565b600290505b90565b600082821115610272576040517f08c379a000000000000000000000000000000000000000000000000000000000815260040180806020018281038252601e8152602001807f536166654d6174683a207375627472616374696f6e206f766572666c6f77000081525060200191505060405180910390fd5b60008284039050809150509291505056fea265627a7a7231582006affcf73db64877a7892337bf33d5b63059561a36ace06a7120c9ea46dbb57864736f6c634300050d0032",
  "source": "pragma solidity ^0.5.13;\n\nimport \"../helpers/openzeppelin-solidity/math/SafeMath.sol\";\nimport \"./Deadline.sol\";\n\n\n/// @title Countdown\n/// @author Stephane Gosselin (@thegostep) for Numerai Inc\n/// @dev Security contact: security@numer.ai\n/// @dev Version: 1.2.0\n/// @dev State Machine: https://github.com/erasureprotocol/erasure-protocol/blob/v1.2.0/docs/state-machines/modules/Countdown.png\ncontract Countdown is Deadline {\n\n    using SafeMath for uint256;\n\n    uint256 private _length;\n\n    event LengthSet(uint256 length);\n\n    // state functions\n\n    function _setLength(uint256 length) internal {\n        _length = length;\n        emit LengthSet(length);\n    }\n\n    function _start() internal returns (uint256 deadline) {\n        deadline = _length.add(now);\n        Deadline._setDeadline(deadline);\n        return deadline;\n    }\n\n    // view functions\n\n    function getLength() public view returns (uint256 length) {\n        return _length;\n    }\n\n    enum CountdownStatus { isNull, isSet, isActive, isOver }\n    /// Return the status of the state machine\n    /// - isNull: the length has not been set\n    /// - isSet: the length is set, but the countdown is not started\n    /// - isActive: the countdown has started but not yet ended\n    /// - isOver: the countdown has completed\n    function getCountdownStatus() public view returns (CountdownStatus status) {\n        if (_length == 0)\n            return CountdownStatus.isNull;\n        if (Deadline.getDeadlineStatus() == DeadlineStatus.isNull)\n            return CountdownStatus.isSet;\n        if (Deadline.getDeadlineStatus() != DeadlineStatus.isOver)\n            return CountdownStatus.isActive;\n        else\n            return CountdownStatus.isOver;\n    }\n\n    function isNull() internal view returns (bool validity) {\n        return getCountdownStatus() == CountdownStatus.isNull;\n    }\n\n    function isSet() internal view returns (bool validity) {\n        return getCountdownStatus() == CountdownStatus.isSet;\n    }\n\n    function isActive() internal view returns (bool validity) {\n        return getCountdownStatus() == CountdownStatus.isActive;\n    }\n\n    function isOver() internal view returns (bool validity) {\n        return getCountdownStatus() == CountdownStatus.isOver;\n    }\n\n}\n",
  "sourcePath": "/home/kim/Code/Erasure/erasure-protocol/contracts/modules/Countdown.sol",
  "compiler": {
    "name": "solc",
    "version": "0.5.13+commit.5b0b510c.Emscripten.clang",
    "optimizer": false,
    "runs": 200
  },
  "schemaVersion": "2.2.0",
  "updatedAt": "2019-11-23T03:57:38.411Z"
}