{
  "contractName": "Deadline",
  "abi": [
    {
      "anonymous": false,
      "inputs": [
        {
          "indexed": false,
          "internalType": "uint256",
          "name": "deadline",
          "type": "uint256"
        }
      ],
      "name": "DeadlineSet",
      "type": "event"
    },
    {
      "constant": true,
      "inputs": [],
      "name": "getDeadline",
      "outputs": [
        {
          "internalType": "uint256",
          "name": "deadline",
          "type": "uint256"
        }
      ],
      "payable": false,
      "stateMutability": "view",
      "type": "function"
    },
    {
      "constant": true,
      "inputs": [],
      "name": "getTimeRemaining",
      "outputs": [
        {
          "internalType": "uint256",
          "name": "time",
          "type": "uint256"
        }
      ],
      "payable": false,
      "stateMutability": "view",
      "type": "function"
    },
    {
      "constant": true,
      "inputs": [],
      "name": "getDeadlineStatus",
      "outputs": [
        {
          "internalType": "enum Deadline.DeadlineStatus",
          "name": "status",
          "type": "uint8"
        }
      ],
      "payable": false,
      "stateMutability": "view",
      "type": "function"
    }
  ],
  "bytecode": "0x608060405234801561001057600080fd5b506101d5806100206000396000f3fe608060405234801561001057600080fd5b50600436106100415760003560e01c80635f8d96de14610046578063dac6270d14610064578063de2229fe14610082575b600080fd5b61004e6100ae565b6040518082815260200191505060405180910390f35b61006c6100b7565b6040518082815260200191505060405180910390f35b61008a6100e7565b6040518082600281111561009a57fe5b60ff16815260200191505060405180910390f35b60008054905090565b60004260005411156100df576100d84260005461011790919063ffffffff16565b90506100e4565b600090505b90565b60008060005414156100fc5760009050610114565b42600054111561010f5760019050610114565b600290505b90565b60008282111561018f576040517f08c379a000000000000000000000000000000000000000000000000000000000815260040180806020018281038252601e8152602001807f536166654d6174683a207375627472616374696f6e206f766572666c6f77000081525060200191505060405180910390fd5b60008284039050809150509291505056fea265627a7a72315820950e757d86675a0996b887401180b9dd38ca8e94b1d0800cd754f4c8ff6daeb264736f6c634300050d0032",
  "source": "pragma solidity ^0.5.13;\n\nimport \"../helpers/openzeppelin-solidity/math/SafeMath.sol\";\n\n\n/// @title Deadline\n/// @author Stephane Gosselin (@thegostep) for Numerai Inc\n/// @dev Security contact: security@numer.ai\n/// @dev Version: 1.2.0\n/// @dev State Machine: https://github.com/erasureprotocol/erasure-protocol/blob/v1.2.0/docs/state-machines/modules/Deadline.png\ncontract Deadline {\n\n    using SafeMath for uint256;\n\n    uint256 private _deadline;\n\n    event DeadlineSet(uint256 deadline);\n\n    // state functions\n\n    function _setDeadline(uint256 deadline) internal {\n        _deadline = deadline;\n        emit DeadlineSet(deadline);\n    }\n\n    // view functions\n\n    function getDeadline() public view returns (uint256 deadline) {\n        return _deadline;\n    }\n\n    // timeRemaining will default to 0 if _setDeadline is not called\n    // if the now exceeds deadline, just return 0 as the timeRemaining\n    function getTimeRemaining() public view returns (uint256 time) {\n        if (_deadline > now)\n            return _deadline.sub(now);\n        else\n            return 0;\n    }\n\n    enum DeadlineStatus { isNull, isSet, isOver }\n    /// Return the status of the deadline state machine\n    /// - isNull: the deadline has not been set\n    /// - isSet: the deadline is set, but has not passed\n    /// - isOver: the deadline has passed\n    function getDeadlineStatus() public view returns (DeadlineStatus status) {\n        if (_deadline == 0)\n            return DeadlineStatus.isNull;\n        if (_deadline > now)\n            return DeadlineStatus.isSet;\n        else\n            return DeadlineStatus.isOver;\n    }\n\n    function isNull() internal view returns (bool status) {\n        return getDeadlineStatus() == DeadlineStatus.isNull;\n    }\n\n    function isSet() internal view returns (bool status) {\n        return getDeadlineStatus() == DeadlineStatus.isSet;\n    }\n\n    function isOver() internal view returns (bool status) {\n        return getDeadlineStatus() == DeadlineStatus.isOver;\n    }\n\n}\n",
  "sourcePath": "/home/kim/Code/Erasure/erasure-protocol/contracts/modules/Deadline.sol",
  "compiler": {
    "name": "solc",
    "version": "0.5.13+commit.5b0b510c.Emscripten.clang",
    "optimizer": false,
    "runs": 200
  },
  "schemaVersion": "2.2.0",
  "updatedAt": "2019-11-23T03:57:38.397Z"
}