{
  "contractName": "Deposit",
  "abi": [
    {
      "anonymous": false,
      "inputs": [
        {
          "indexed": false,
          "internalType": "address",
          "name": "user",
          "type": "address"
        },
        {
          "indexed": false,
          "internalType": "uint256",
          "name": "amount",
          "type": "uint256"
        },
        {
          "indexed": false,
          "internalType": "uint256",
          "name": "newDeposit",
          "type": "uint256"
        }
      ],
      "name": "DepositDecreased",
      "type": "event"
    },
    {
      "anonymous": false,
      "inputs": [
        {
          "indexed": false,
          "internalType": "address",
          "name": "user",
          "type": "address"
        },
        {
          "indexed": false,
          "internalType": "uint256",
          "name": "amount",
          "type": "uint256"
        },
        {
          "indexed": false,
          "internalType": "uint256",
          "name": "newDeposit",
          "type": "uint256"
        }
      ],
      "name": "DepositIncreased",
      "type": "event"
    },
    {
      "constant": true,
      "inputs": [
        {
          "internalType": "address",
          "name": "user",
          "type": "address"
        }
      ],
      "name": "getDeposit",
      "outputs": [
        {
          "internalType": "uint256",
          "name": "deposit",
          "type": "uint256"
        }
      ],
      "payable": false,
      "stateMutability": "view",
      "type": "function"
    }
  ],
  "bytecode": "0x608060405234801561001057600080fd5b5060ff8061001f6000396000f3fe6080604052348015600f57600080fd5b506004361060285760003560e01c8063e1254fba14602d575b600080fd5b606c60048036036020811015604157600080fd5b81019080803573ffffffffffffffffffffffffffffffffffffffff1690602001909291905050506082565b6040518082815260200191505060405180910390f35b60008060008373ffffffffffffffffffffffffffffffffffffffff1673ffffffffffffffffffffffffffffffffffffffff16815260200190815260200160002054905091905056fea265627a7a72315820879e8def21ffb425ec9ff76d4e42fe5defc763604a854da0c6c7976a926ed3ca64736f6c634300050d0032",
  "source": "pragma solidity ^0.5.13;\n\nimport \"../helpers/openzeppelin-solidity/math/SafeMath.sol\";\nimport \"../helpers/openzeppelin-solidity/token/ERC20/IERC20.sol\";\n\n\n/// @title Deposit\n/// @author Stephane Gosselin (@thegostep) for Numerai Inc\n/// @dev Security contact: security@numer.ai\n/// @dev Version: 1.2.0\n/// @dev State Machine: https://github.com/erasureprotocol/erasure-protocol/blob/v1.2.0/docs/state-machines/modules/Deposit.png\ncontract Deposit {\n\n    using SafeMath for uint256;\n\n    mapping (address => uint256) private _deposit;\n\n    event DepositIncreased(address user, uint256 amount, uint256 newDeposit);\n    event DepositDecreased(address user, uint256 amount, uint256 newDeposit);\n\n    function _increaseDeposit(address user, uint256 amountToAdd) internal returns (uint256 newDeposit) {\n        // calculate new deposit amount\n        newDeposit = _deposit[user].add(amountToAdd);\n\n        // set new stake to storage\n        _deposit[user] = newDeposit;\n\n        // emit event\n        emit DepositIncreased(user, amountToAdd, newDeposit);\n\n        // return\n        return newDeposit;\n    }\n\n    function _decreaseDeposit(address user, uint256 amountToRemove) internal returns (uint256 newDeposit) {\n        // get current deposit\n        uint256 currentDeposit = _deposit[user];\n\n        // check if sufficient deposit\n        require(currentDeposit >= amountToRemove, \"insufficient deposit to remove\");\n\n        // calculate new deposit amount\n        newDeposit = currentDeposit.sub(amountToRemove);\n\n        // set new stake to storage\n        _deposit[user] = newDeposit;\n\n        // emit event\n        emit DepositDecreased(user, amountToRemove, newDeposit);\n\n        // return\n        return newDeposit;\n    }\n\n    function _clearDeposit(address user) internal returns (uint256 amountRemoved) {\n        // get current deposit\n        uint256 currentDeposit = _deposit[user];\n\n        // remove deposit\n        _decreaseDeposit(user, currentDeposit);\n\n        // return\n        return currentDeposit;\n    }\n\n    // view functions\n\n    function getDeposit(address user) public view returns (uint256 deposit) {\n        return _deposit[user];\n    }\n\n}\n",
  "sourcePath": "/home/kim/Code/Erasure/erasure-protocol/contracts/modules/Deposit.sol",
  "compiler": {
    "name": "solc",
    "version": "0.5.13+commit.5b0b510c.Emscripten.clang",
    "optimizer": false,
    "runs": 200
  },
  "schemaVersion": "2.2.0",
  "updatedAt": "2019-11-23T03:57:38.384Z"
}