{
  "contractName": "Erasure_Users",
  "abi": [
    {
      "anonymous": false,
      "inputs": [
        {
          "indexed": true,
          "internalType": "address",
          "name": "user",
          "type": "address"
        },
        {
          "indexed": false,
          "internalType": "bytes",
          "name": "data",
          "type": "bytes"
        }
      ],
      "name": "UserRegistered",
      "type": "event"
    },
    {
      "anonymous": false,
      "inputs": [
        {
          "indexed": true,
          "internalType": "address",
          "name": "user",
          "type": "address"
        }
      ],
      "name": "UserRemoved",
      "type": "event"
    },
    {
      "constant": false,
      "inputs": [
        {
          "internalType": "bytes",
          "name": "data",
          "type": "bytes"
        }
      ],
      "name": "registerUser",
      "outputs": [],
      "payable": false,
      "stateMutability": "nonpayable",
      "type": "function"
    },
    {
      "constant": false,
      "inputs": [],
      "name": "removeUser",
      "outputs": [],
      "payable": false,
      "stateMutability": "nonpayable",
      "type": "function"
    },
    {
      "constant": true,
      "inputs": [
        {
          "internalType": "address",
          "name": "user",
          "type": "address"
        }
      ],
      "name": "getUserData",
      "outputs": [
        {
          "internalType": "bytes",
          "name": "data",
          "type": "bytes"
        }
      ],
      "payable": false,
      "stateMutability": "view",
      "type": "function"
    },
    {
      "constant": true,
      "inputs": [],
      "name": "getUsers",
      "outputs": [
        {
          "internalType": "address[]",
          "name": "users",
          "type": "address[]"
        }
      ],
      "payable": false,
      "stateMutability": "view",
      "type": "function"
    },
    {
      "constant": true,
      "inputs": [],
      "name": "getUserCount",
      "outputs": [
        {
          "internalType": "uint256",
          "name": "count",
          "type": "uint256"
        }
      ],
      "payable": false,
      "stateMutability": "view",
      "type": "function"
    },
    {
      "constant": true,
      "inputs": [
        {
          "internalType": "uint256",
          "name": "startIndex",
          "type": "uint256"
        },
        {
          "internalType": "uint256",
          "name": "endIndex",
          "type": "uint256"
        }
      ],
      "name": "getPaginatedUsers",
      "outputs": [
        {
          "internalType": "address[]",
          "name": "users",
          "type": "address[]"
        }
      ],
      "payable": false,
      "stateMutability": "view",
      "type": "function"
    }
  ],
  "bytecode": "0x608060405234801561001057600080fd5b50610f9b806100206000396000f3fe608060405234801561001057600080fd5b50600436106100615760003560e01c8062ce8e3e146100665780630a38178c146100c5578063b5cb15f714610180578063cf5caa121461019e578063f944f4c71461022b578063ffc9896b14610235575b600080fd5b61006e6102f2565b6040518080602001828103825283818151815260200191508051906020019060200280838360005b838110156100b1578082015181840152602081019050610096565b505050509050019250505060405180910390f35b61017e600480360360208110156100db57600080fd5b81019080803590602001906401000000008111156100f857600080fd5b82018360208201111561010a57600080fd5b8035906020019184600183028401116401000000008311171561012c57600080fd5b91908080601f016020809104026020016040519081016040528093929190818152602001838380828437600081840152601f19601f820116905080830192505050505050509192919290505050610383565b005b610188610528565b6040518082815260200191505060405180910390f35b6101d4600480360360408110156101b457600080fd5b810190808035906020019092919080359060200190929190505050610539565b6040518080602001828103825283818151815260200191508051906020019060200280838360005b838110156102175780820151818401526020810190506101fc565b505050509050019250505060405180910390f35b6102336106ca565b005b6102776004803603602081101561024b57600080fd5b81019080803573ffffffffffffffffffffffffffffffffffffffff1690602001909291905050506107f4565b6040518080602001828103825283818151815260200191508051906020019080838360005b838110156102b757808201518184015260208101905061029c565b50505050905090810190601f1680156102e45780820380516001836020036101000a031916815260200191505b509250505060405180910390f35b6060600060010180548060200260200160405190810160405280929190818152602001828054801561037957602002820191906000526020600020905b8160009054906101000a900473ffffffffffffffffffffffffffffffffffffffff1673ffffffffffffffffffffffffffffffffffffffff168152602001906001019080831161032f575b5050505050905090565b6103973360006108d590919063ffffffff16565b1561040a576040517f08c379a00000000000000000000000000000000000000000000000000000000081526004018080602001828103825260138152602001807f7573657220616c7265616479206578697374730000000000000000000000000081525060200191505060405180910390fd5b61041e3360006109a190919063ffffffff16565b80600260003373ffffffffffffffffffffffffffffffffffffffff1673ffffffffffffffffffffffffffffffffffffffff1681526020019081526020016000209080519060200190610471929190610d7e565b503373ffffffffffffffffffffffffffffffffffffffff167fb4e474a799db1c21852b730a8ac43394df2133bba1b219242c78954109a980a1826040518080602001828103825283818151815260200191508051906020019080838360005b838110156104eb5780820151818401526020810190506104d0565b50505050905090810190601f1680156105185780820380516001836020036101000a031916815260200191505b509250505060405180910390a250565b60006105346000610b3a565b905090565b6060818310610593576040517f08c379a0000000000000000000000000000000000000000000000000000000008152600401808060200182810382526025815260200180610ec06025913960400191505060405180910390fd5b61059d6000610b3a565b821115610612576040517f08c379a00000000000000000000000000000000000000000000000000000000081526004018080602001828103825260168152602001807f656e6420696e646578206f7574206f662072616e67650000000000000000000081525060200191505060405180910390fd5b60608383036040519080825280602002602001820160405280156106455781602001602082028038833980820191505090505b50905060008490505b838110156106bf5761066a816000610b4b90919063ffffffff16565b828683038151811061067857fe5b602002602001019073ffffffffffffffffffffffffffffffffffffffff16908173ffffffffffffffffffffffffffffffffffffffff1681525050808060010191505061064e565b508091505092915050565b6106de3360006108d590919063ffffffff16565b610750576040517f08c379a00000000000000000000000000000000000000000000000000000000081526004018080602001828103825260138152602001807f7573657220646f6573206e6f742065786973740000000000000000000000000081525060200191505060405180910390fd5b610764336000610b8f90919063ffffffff16565b600260003373ffffffffffffffffffffffffffffffffffffffff1673ffffffffffffffffffffffffffffffffffffffff16815260200190815260200160002060006107af9190610dfe565b3373ffffffffffffffffffffffffffffffffffffffff167fe9dce8c992623ce791725b21e857e33248d1f190a25b5168313420eebdaae99d60405160405180910390a2565b6060600260008373ffffffffffffffffffffffffffffffffffffffff1673ffffffffffffffffffffffffffffffffffffffff1681526020019081526020016000208054600181600116156101000203166002900480601f0160208091040260200160405190810160405280929190818152602001828054600181600116156101000203166002900480156108c95780601f1061089e576101008083540402835291602001916108c9565b820191906000526020600020905b8154815290600101906020018083116108ac57829003601f168201915b50505050509050919050565b600080836001018054905014156108ef576000905061099b565b8173ffffffffffffffffffffffffffffffffffffffff16836001018460000160008573ffffffffffffffffffffffffffffffffffffffff1673ffffffffffffffffffffffffffffffffffffffff168152602001908152602001600020548154811061095657fe5b9060005260206000200160009054906101000a900473ffffffffffffffffffffffffffffffffffffffff1673ffffffffffffffffffffffffffffffffffffffff161490505b92915050565b600073ffffffffffffffffffffffffffffffffffffffff168173ffffffffffffffffffffffffffffffffffffffff161415610a27576040517f08c379a0000000000000000000000000000000000000000000000000000000008152600401808060200182810382526028815260200180610e986028913960400191505060405180910390fd5b610a3182826108d5565b15610a87576040517f08c379a0000000000000000000000000000000000000000000000000000000008152600401808060200182810382526043815260200180610ee56043913960600191505060405180910390fd5b6001826001018290806001815401808255809150509060018203906000526020600020016000909192909190916101000a81548173ffffffffffffffffffffffffffffffffffffffff021916908373ffffffffffffffffffffffffffffffffffffffff160217905550038260000160008373ffffffffffffffffffffffffffffffffffffffff1673ffffffffffffffffffffffffffffffffffffffff168152602001908152602001600020819055505050565b600081600101805490509050919050565b6000826001018281548110610b5c57fe5b9060005260206000200160009054906101000a900473ffffffffffffffffffffffffffffffffffffffff16905092915050565b610b9982826108d5565b610bee576040517f08c379a000000000000000000000000000000000000000000000000000000000815260040180806020018281038252603f815260200180610f28603f913960400191505060405180910390fd5b6000826001016001610bff85610b3a565b0381548110610c0a57fe5b9060005260206000200160009054906101000a900473ffffffffffffffffffffffffffffffffffffffff16905060008360000160008473ffffffffffffffffffffffffffffffffffffffff1673ffffffffffffffffffffffffffffffffffffffff168152602001908152602001600020549050808460000160008473ffffffffffffffffffffffffffffffffffffffff1673ffffffffffffffffffffffffffffffffffffffff1681526020019081526020016000208190555081846001018281548110610cd357fe5b9060005260206000200160006101000a81548173ffffffffffffffffffffffffffffffffffffffff021916908373ffffffffffffffffffffffffffffffffffffffff1602179055508360000160008473ffffffffffffffffffffffffffffffffffffffff1673ffffffffffffffffffffffffffffffffffffffff1681526020019081526020016000206000905583600101805480919060019003610d779190610e46565b5050505050565b828054600181600116156101000203166002900490600052602060002090601f016020900481019282601f10610dbf57805160ff1916838001178555610ded565b82800160010185558215610ded579182015b82811115610dec578251825591602001919060010190610dd1565b5b509050610dfa9190610e72565b5090565b50805460018160011615610100020316600290046000825580601f10610e245750610e43565b601f016020900490600052602060002090810190610e429190610e72565b5b50565b815481835581811115610e6d57818360005260206000209182019101610e6c9190610e72565b5b505050565b610e9491905b80821115610e90576000816000905550600101610e78565b5090565b9056fe556e6f7264657265644b65795365742831303029202d204b65792063616e6e6f74206265203078307374617274496e646578206d757374206265206c657373207468616e20656e64496e646578556e6f726465726564416464726573735365742831303129202d204164647265737320286b65792920616c72656164792065786973747320696e20746865207365742e556e6f7264657265644b65795365742831303229202d204164647265737320286b65792920646f6573206e6f7420657869737420696e20746865207365742ea265627a7a723158201d9373d729773a561a26987696f5e24d80bff2a48abc308644a8eefcc6a65d5e64736f6c634300050d0032",
  "source": "pragma solidity ^0.5.13;\n\nimport \"../helpers/HitchensUnorderedAddressSetLib.sol\";\n\n\n/// @title Erasure_Users\n/// @author Stephane Gosselin (@thegostep) for Numerai Inc\n/// @dev Security contact: security@numer.ai\n/// @dev Version: 1.2.0\ncontract Erasure_Users {\n\n    using HitchensUnorderedAddressSetLib for HitchensUnorderedAddressSetLib.Set;\n    HitchensUnorderedAddressSetLib.Set private _users;\n\n    mapping (address => bytes) private _metadata;\n\n    event UserRegistered(address indexed user, bytes data);\n    event UserRemoved(address indexed user);\n\n    // state functions\n\n    function registerUser(bytes memory data) public {\n        require(!_users.exists(msg.sender), \"user already exists\");\n\n        // add user\n        _users.insert(msg.sender);\n\n        // set metadata\n        _metadata[msg.sender] = data;\n\n        // emit event\n        emit UserRegistered(msg.sender, data);\n    }\n\n    function removeUser() public {\n        // require user is registered\n        require(_users.exists(msg.sender), \"user does not exist\");\n\n        // remove user\n        _users.remove(msg.sender);\n\n        // delete metadata\n        delete _metadata[msg.sender];\n\n        // emit event\n        emit UserRemoved(msg.sender);\n    }\n\n    // view functions\n\n    function getUserData(address user) public view returns (bytes memory data) {\n        data = _metadata[user];\n    }\n\n    function getUsers() public view returns (address[] memory users) {\n        users = _users.keyList;\n    }\n\n    function getUserCount() public view returns (uint256 count) {\n        count = _users.count();\n    }\n\n    // Note: startIndex is inclusive, endIndex exclusive\n    function getPaginatedUsers(uint256 startIndex, uint256 endIndex) public view returns (address[] memory users) {\n        require(startIndex < endIndex, \"startIndex must be less than endIndex\");\n        require(endIndex <= _users.count(), \"end index out of range\");\n\n        // initialize fixed size memory array\n        address[] memory range = new address[](endIndex - startIndex);\n\n        // Populate array with addresses in range\n        for (uint256 i = startIndex; i < endIndex; i++) {\n            range[i - startIndex] = _users.keyAtIndex(i);\n        }\n\n        // return array of addresses\n        users = range;\n    }\n}\n",
  "sourcePath": "/home/kim/Code/Erasure/erasure-protocol/contracts/registries/Erasure_Users.sol",
  "compiler": {
    "name": "solc",
    "version": "0.5.13+commit.5b0b510c.Emscripten.clang",
    "optimizer": false,
    "runs": 200
  },
  "schemaVersion": "2.2.0",
  "updatedAt": "2019-11-23T03:57:38.438Z"
}