{
  "contractName": "Factory",
  "abi": [
    {
      "anonymous": false,
      "inputs": [
        {
          "indexed": true,
          "internalType": "address",
          "name": "instance",
          "type": "address"
        },
        {
          "indexed": true,
          "internalType": "address",
          "name": "creator",
          "type": "address"
        },
        {
          "indexed": false,
          "internalType": "bytes",
          "name": "callData",
          "type": "bytes"
        }
      ],
      "name": "InstanceCreated",
      "type": "event"
    },
    {
      "constant": false,
      "inputs": [
        {
          "internalType": "bytes",
          "name": "callData",
          "type": "bytes"
        }
      ],
      "name": "create",
      "outputs": [
        {
          "internalType": "address",
          "name": "instance",
          "type": "address"
        }
      ],
      "payable": false,
      "stateMutability": "nonpayable",
      "type": "function"
    },
    {
      "constant": false,
      "inputs": [
        {
          "internalType": "bytes",
          "name": "callData",
          "type": "bytes"
        },
        {
          "internalType": "bytes32",
          "name": "salt",
          "type": "bytes32"
        }
      ],
      "name": "createSalty",
      "outputs": [
        {
          "internalType": "address",
          "name": "instance",
          "type": "address"
        }
      ],
      "payable": false,
      "stateMutability": "nonpayable",
      "type": "function"
    },
    {
      "constant": true,
      "inputs": [
        {
          "internalType": "bytes",
          "name": "callData",
          "type": "bytes"
        },
        {
          "internalType": "bytes32",
          "name": "salt",
          "type": "bytes32"
        }
      ],
      "name": "getSaltyInstance",
      "outputs": [
        {
          "internalType": "address",
          "name": "target",
          "type": "address"
        }
      ],
      "payable": false,
      "stateMutability": "view",
      "type": "function"
    },
    {
      "constant": true,
      "inputs": [
        {
          "internalType": "bytes",
          "name": "callData",
          "type": "bytes"
        }
      ],
      "name": "getNextInstance",
      "outputs": [
        {
          "internalType": "address",
          "name": "target",
          "type": "address"
        }
      ],
      "payable": false,
      "stateMutability": "view",
      "type": "function"
    },
    {
      "constant": true,
      "inputs": [
        {
          "internalType": "address",
          "name": "instance",
          "type": "address"
        }
      ],
      "name": "getInstanceCreator",
      "outputs": [
        {
          "internalType": "address",
          "name": "creator",
          "type": "address"
        }
      ],
      "payable": false,
      "stateMutability": "view",
      "type": "function"
    },
    {
      "constant": true,
      "inputs": [],
      "name": "getInstanceType",
      "outputs": [
        {
          "internalType": "bytes4",
          "name": "instanceType",
          "type": "bytes4"
        }
      ],
      "payable": false,
      "stateMutability": "view",
      "type": "function"
    },
    {
      "constant": true,
      "inputs": [],
      "name": "getInitSelector",
      "outputs": [
        {
          "internalType": "bytes4",
          "name": "initSelector",
          "type": "bytes4"
        }
      ],
      "payable": false,
      "stateMutability": "view",
      "type": "function"
    },
    {
      "constant": true,
      "inputs": [],
      "name": "getInstanceRegistry",
      "outputs": [
        {
          "internalType": "address",
          "name": "instanceRegistry",
          "type": "address"
        }
      ],
      "payable": false,
      "stateMutability": "view",
      "type": "function"
    },
    {
      "constant": true,
      "inputs": [],
      "name": "getTemplate",
      "outputs": [
        {
          "internalType": "address",
          "name": "template",
          "type": "address"
        }
      ],
      "payable": false,
      "stateMutability": "view",
      "type": "function"
    },
    {
      "constant": true,
      "inputs": [],
      "name": "getInstanceCount",
      "outputs": [
        {
          "internalType": "uint256",
          "name": "count",
          "type": "uint256"
        }
      ],
      "payable": false,
      "stateMutability": "view",
      "type": "function"
    },
    {
      "constant": true,
      "inputs": [
        {
          "internalType": "uint256",
          "name": "index",
          "type": "uint256"
        }
      ],
      "name": "getInstance",
      "outputs": [
        {
          "internalType": "address",
          "name": "instance",
          "type": "address"
        }
      ],
      "payable": false,
      "stateMutability": "view",
      "type": "function"
    },
    {
      "constant": true,
      "inputs": [],
      "name": "getInstances",
      "outputs": [
        {
          "internalType": "address[]",
          "name": "instances",
          "type": "address[]"
        }
      ],
      "payable": false,
      "stateMutability": "view",
      "type": "function"
    },
    {
      "constant": true,
      "inputs": [
        {
          "internalType": "uint256",
          "name": "startIndex",
          "type": "uint256"
        },
        {
          "internalType": "uint256",
          "name": "endIndex",
          "type": "uint256"
        }
      ],
      "name": "getPaginatedInstances",
      "outputs": [
        {
          "internalType": "address[]",
          "name": "instances",
          "type": "address[]"
        }
      ],
      "payable": false,
      "stateMutability": "view",
      "type": "function"
    }
  ],
  "bytecode": "0x608060405234801561001057600080fd5b50611cad806100206000396000f3fe60806040523480156200001157600080fd5b5060043610620000e25760003560e01c8063a5e139041162000099578063cf5ba53f116200006f578063cf5ba53f1462000580578063d35fdd791462000681578063ebd348de14620006e4578063fbc6d07f146200075557620000e2565b8063a5e139041462000482578063ae34325c14620004ce578063b71f2e7214620004ee57620000e2565b806318c2f4cf14620000e7578063321c48f2146200014557806354ed633b14620001915780635ed75de214620001ef5780636bf7198214620002fa5780638359e1361462000381575b600080fd5b620000f162000860565b60405180827bffffffffffffffffffffffffffffffffffffffffffffffffffffffff19167bffffffffffffffffffffffffffffffffffffffffffffffffffffffff1916815260200191505060405180910390f35b6200014f62000877565b604051808273ffffffffffffffffffffffffffffffffffffffff1673ffffffffffffffffffffffffffffffffffffffff16815260200191505060405180910390f35b6200019b620008a1565b60405180827bffffffffffffffffffffffffffffffffffffffffffffffffffffffff19167bffffffffffffffffffffffffffffffffffffffffffffffffffffffff1916815260200191505060405180910390f35b620002b8600480360360408110156200020757600080fd5b81019080803590602001906401000000008111156200022557600080fd5b8201836020820111156200023857600080fd5b803590602001918460018302840111640100000000831117156200025b57600080fd5b91908080601f016020809104026020016040519081016040528093929190818152602001838380828437600081840152601f19601f82011690508083019250505050505050919291929080359060200190929190505050620008b8565b604051808273ffffffffffffffffffffffffffffffffffffffff1673ffffffffffffffffffffffffffffffffffffffff16815260200191505060405180910390f35b6200033f600480360360208110156200031257600080fd5b81019080803573ffffffffffffffffffffffffffffffffffffffff169060200190929190505050620008e7565b604051808273ffffffffffffffffffffffffffffffffffffffff1673ffffffffffffffffffffffffffffffffffffffff16815260200191505060405180910390f35b62000440600480360360208110156200039957600080fd5b8101908080359060200190640100000000811115620003b757600080fd5b820183602082011115620003ca57600080fd5b80359060200191846001830284011164010000000083111715620003ed57600080fd5b91908080601f016020809104026020016040519081016040528093929190818152602001838380828437600081840152601f19601f82011690508083019250505050505050919291929050505062000950565b604051808273ffffffffffffffffffffffffffffffffffffffff1673ffffffffffffffffffffffffffffffffffffffff16815260200191505060405180910390f35b6200048c6200096e565b604051808273ffffffffffffffffffffffffffffffffffffffff1673ffffffffffffffffffffffffffffffffffffffff16815260200191505060405180910390f35b620004d862000998565b6040518082815260200191505060405180910390f35b62000527600480360360408110156200050657600080fd5b810190808035906020019092919080359060200190929190505050620009a4565b6040518080602001828103825283818151815260200191508051906020019060200280838360005b838110156200056c5780820151818401526020810190506200054f565b505050509050019250505060405180910390f35b6200063f600480360360208110156200059857600080fd5b8101908080359060200190640100000000811115620005b657600080fd5b820183602082011115620005c957600080fd5b80359060200191846001830284011164010000000083111715620005ec57600080fd5b91908080601f016020809104026020016040519081016040528093929190818152602001838380828437600081840152601f19601f82011690508083019250505050505050919291929050505062000b5d565b604051808273ffffffffffffffffffffffffffffffffffffffff1673ffffffffffffffffffffffffffffffffffffffff16815260200191505060405180910390f35b6200068b62000b8a565b6040518080602001828103825283818151815260200191508051906020019060200280838360005b83811015620006d0578082015181840152602081019050620006b3565b505050509050019250505060405180910390f35b6200071360048036036020811015620006fc57600080fd5b810190808035906020019092919050505062000c1a565b604051808273ffffffffffffffffffffffffffffffffffffffff1673ffffffffffffffffffffffffffffffffffffffff16815260200191505060405180910390f35b6200081e600480360360408110156200076d57600080fd5b81019080803590602001906401000000008111156200078b57600080fd5b8201836020820111156200079e57600080fd5b80359060200191846001830284011164010000000083111715620007c157600080fd5b91908080601f016020809104026020016040519081016040528093929190818152602001838380828437600081840152601f19601f8201169050808301925050505050505091929192908035906020019092919050505062000cd6565b604051808273ffffffffffffffffffffffffffffffffffffffff1673ffffffffffffffffffffffffffffffffffffffff16815260200191505060405180910390f35b6000600360149054906101000a900460e01b905090565b6000600260009054906101000a900473ffffffffffffffffffffffffffffffffffffffff16905090565b6000600260149054906101000a900460e01b905090565b6000620008d0620008c862000877565b848462000cf6565b9050620008de818462000f29565b80905092915050565b6000600160008373ffffffffffffffffffffffffffffffffffffffff1673ffffffffffffffffffffffffffffffffffffffff16815260200190815260200160002060009054906101000a900473ffffffffffffffffffffffffffffffffffffffff169050919050565b6000620009676200096062000877565b83620011d5565b9050919050565b6000600360009054906101000a900473ffffffffffffffffffffffffffffffffffffffff16905090565b60008080549050905090565b606081831062000a00576040517f08c379a000000000000000000000000000000000000000000000000000000000815260040180806020018281038252602581526020018062001bfe6025913960400191505060405180910390fd5b60008054905082111562000a7c576040517f08c379a00000000000000000000000000000000000000000000000000000000081526004018080602001828103825260168152602001807f656e6420696e646578206f7574206f662072616e67650000000000000000000081525060200191505060405180910390fd5b606083830360405190808252806020026020018201604052801562000ab05781602001602082028038833980820191505090505b50905060008490505b8381101562000b52576000818154811062000ad057fe5b9060005260206000200160009054906101000a900473ffffffffffffffffffffffffffffffffffffffff16828683038151811062000b0a57fe5b602002602001019073ffffffffffffffffffffffffffffffffffffffff16908173ffffffffffffffffffffffffffffffffffffffff1681525050808060010191505062000ab9565b508091505092915050565b600062000b7462000b6d62000877565b8362001395565b905062000b82818362000f29565b809050919050565b6060600080548060200260200160405190810160405280929190818152602001828054801562000c1057602002820191906000526020600020905b8160009054906101000a900473ffffffffffffffffffffffffffffffffffffffff1673ffffffffffffffffffffffffffffffffffffffff168152602001906001019080831162000bc5575b5050505050905090565b60008080549050821062000c96576040517f08c379a00000000000000000000000000000000000000000000000000000000081526004018080602001828103825260128152602001807f696e646578206f7574206f662072616e6765000000000000000000000000000081525060200191505060405180910390fd5b6000828154811062000ca457fe5b9060005260206000200160009054906101000a900473ffffffffffffffffffffffffffffffffffffffff169050919050565b600062000cee62000ce662000877565b848462001567565b905092915050565b600060606040518060200162000d0c906200195a565b6020820181038252601f19601f820116604052508585604051602001808373ffffffffffffffffffffffffffffffffffffffff1673ffffffffffffffffffffffffffffffffffffffff16815260200180602001828103825283818151815260200191508051906020019080838360005b8381101562000d9957808201518184015260208101905062000d7c565b50505050905090810190601f16801562000dc75780820380516001836020036101000a031916815260200191505b5093505050506040516020818303038152906040526040516020018083805190602001908083835b6020831062000e14578051825260208201915060208101905060208303925062000def565b6001836020036101000a03801982511681845116808217855250505050505090500182805190602001908083835b6020831062000e67578051825260208201915060208101905060208303925062000e42565b6001836020036101000a038019825116818451168082178552505050505050905001925050506040516020818303038152906040529050600062000ead86868662001567565b90506000813b90506000811462000f10576040517f08c379a000000000000000000000000000000000000000000000000000000000815260040180806020018281038252602c81526020018062001c4d602c913960400191505060405180910390fd5b62000f1d83868462001732565b93505050509392505050565b60008290806001815401808255809150509060018203906000526020600020016000909192909190916101000a81548173ffffffffffffffffffffffffffffffffffffffff021916908373ffffffffffffffffffffffffffffffffffffffff1602179055505033600160008473ffffffffffffffffffffffffffffffffffffffff1673ffffffffffffffffffffffffffffffffffffffff16815260200190815260200160002060006101000a81548173ffffffffffffffffffffffffffffffffffffffff021916908373ffffffffffffffffffffffffffffffffffffffff160217905550620010176200096e565b73ffffffffffffffffffffffffffffffffffffffff1663bba83f64833360006040518463ffffffff1660e01b8152600401808473ffffffffffffffffffffffffffffffffffffffff1673ffffffffffffffffffffffffffffffffffffffff1681526020018373ffffffffffffffffffffffffffffffffffffffff1673ffffffffffffffffffffffffffffffffffffffff1681526020018269ffffffffffffffffffff1669ffffffffffffffffffff1681526020019350505050600060405180830381600087803b158015620010eb57600080fd5b505af115801562001100573d6000803e3d6000fd5b505050503373ffffffffffffffffffffffffffffffffffffffff168273ffffffffffffffffffffffffffffffffffffffff167fab60131c1462939275d0fd3738e07ab853e22af6296cf75e71bbdf3a497791a2836040518080602001828103825283818151815260200191508051906020019080838360005b838110156200119657808201518184015260208101905062001179565b50505050905090810190601f168015620011c45780820380516001836020036101000a031916815260200191505b509250505060405180910390a35050565b6000606060405180602001620011eb906200195a565b6020820181038252601f19601f820116604052508484604051602001808373ffffffffffffffffffffffffffffffffffffffff1673ffffffffffffffffffffffffffffffffffffffff16815260200180602001828103825283818151815260200191508051906020019080838360005b83811015620012785780820151818401526020810190506200125b565b50505050905090810190601f168015620012a65780820380516001836020036101000a031916815260200191505b5093505050506040516020818303038152906040526040516020018083805190602001908083835b60208310620012f35780518252602082019150602081019050602083039250620012ce565b6001836020036101000a03801982511681845116808217855250505050505090500182805190602001908083835b6020831062001346578051825260208201915060208101905060208303925062001321565b6001836020036101000a0380198251168184511680821785525050505050509050019250505060405160208183030381529060405290506200138881620017e0565b9050809250505092915050565b6000606060405180602001620013ab906200195a565b6020820181038252601f19601f820116604052508484604051602001808373ffffffffffffffffffffffffffffffffffffffff1673ffffffffffffffffffffffffffffffffffffffff16815260200180602001828103825283818151815260200191508051906020019080838360005b83811015620014385780820151818401526020810190506200141b565b50505050905090810190601f168015620014665780820380516001836020036101000a031916815260200191505b5093505050506040516020818303038152906040526040516020018083805190602001908083835b60208310620014b357805182526020820191506020810190506020830392506200148e565b6001836020036101000a03801982511681845116808217855250505050505090500182805190602001908083835b60208310620015065780518252602082019150602081019050602083039250620014e1565b6001836020036101000a0380198251168184511680821785525050505050509050019250505060405160208183030381529060405290506000806200154b83620017e0565b915091506200155c83838362001732565b935050505092915050565b60006060604051806020016200157d906200195a565b6020820181038252601f19601f820116604052508585604051602001808373ffffffffffffffffffffffffffffffffffffffff1673ffffffffffffffffffffffffffffffffffffffff16815260200180602001828103825283818151815260200191508051906020019080838360005b838110156200160a578082015181840152602081019050620015ed565b50505050905090810190601f168015620016385780820380516001836020036101000a031916815260200191505b5093505050506040516020818303038152906040526040516020018083805190602001908083835b6020831062001685578051825260208201915060208101905060208303925062001660565b6001836020036101000a03801982511681845116808217855250505050505090500182805190602001908083835b60208310620016d85780518252602082019150602081019050602083039250620016b3565b6001836020036101000a03801982511681845116808217855250505050505090500192505050604051602081830303815290604052905060008180519060200120905062001727818562001897565b925050509392505050565b600083602001845184818334f592508262001751573d6000803e3d6000fd5b50508173ffffffffffffffffffffffffffffffffffffffff168173ffffffffffffffffffffffffffffffffffffffff1614620017d9576040517f08c379a000000000000000000000000000000000000000000000000000000000815260040180806020018281038252602a81526020018062001c23602a913960400191505060405180910390fd5b9392505050565b600080600083805190602001209050600080905060005b6001156200188f573382604051602001808373ffffffffffffffffffffffffffffffffffffffff1673ffffffffffffffffffffffffffffffffffffffff1660601b8152601401828152602001925050506040516020818303038152906040528051906020012094506200186b838662001897565b9350833b9050600081141562001881576200188f565b8180600101925050620017f7565b505050915091565b600060ff60f81b30838560405160200180857effffffffffffffffffffffffffffffffffffffffffffffffffffffffffffff19167effffffffffffffffffffffffffffffffffffffffffffffffffffffffffffff191681526001018473ffffffffffffffffffffffffffffffffffffffff1673ffffffffffffffffffffffffffffffffffffffff1660601b81526014018381526020018281526020019450505050506040516020818303038152906040528051906020012060001c905092915050565b61029580620019698339019056fe60806040526040516102953803806102958339818101604052604081101561002657600080fd5b81019080805190602001909291908051604051939291908464010000000082111561005057600080fd5b8382019150602082018581111561006657600080fd5b825186600182028301116401000000008211171561008357600080fd5b8083526020830192505050908051906020019080838360005b838110156100b757808201518184015260208101905061009c565b50505050905090810190601f1680156100e45780820380516001836020036101000a031916815260200191505b5060405250505060008273ffffffffffffffffffffffffffffffffffffffff16826040518082805190602001908083835b602083106101385780518252602082019150602081019050602083039250610115565b6001836020036101000a038019825116818451168082178552505050505050905001915050600060405180830381855af49150503d8060008114610198576040519150601f19603f3d011682016040523d82523d6000602084013e61019d565b606091505b50509050806101b0573d6000803e3d6000fd5b606069363d3d373d3d3d363d7360b01b846e5af43d82803e903d91602b57fd5bf360881b604051602001808475ffffffffffffffffffffffffffffffffffffffffffff191675ffffffffffffffffffffffffffffffffffffffffffff19168152600a018373ffffffffffffffffffffffffffffffffffffffff1673ffffffffffffffffffffffffffffffffffffffff1660601b81526014018270ffffffffffffffffffffffffffffffffff191670ffffffffffffffffffffffffffffffffff19168152600f0193505050506040516020818303038152906040529050602d81602001f3fe7374617274496e646578206d757374206265206c657373207468616e20656e64496e646578617474656d70746564206465706c6f796d656e7420746f20756e65787065637465642061646472657373636f6e747261637420616c7265616479206465706c6f796564207769746820737570706c6965642073616c74a265627a7a723158208a16d744aaf8a927413f9c911dcd86fc08a7d0819a4a4a7d020139809a15ce1464736f6c634300050d0032",
  "source": "pragma solidity ^0.5.13;\n\nimport \"./Spawner.sol\";\nimport \"./iRegistry.sol\";\n\n\n/// @title Factory\n/// @author Stephane Gosselin (@thegostep) for Numerai Inc\n/// @dev Security contact: security@numer.ai\n/// @dev Version: 1.2.0\ncontract Factory is Spawner {\n\n    address[] private _instances;\n    mapping (address => address) private _instanceCreator;\n\n    /* NOTE: The following items can be hardcoded as constant to save ~200 gas/create */\n    address private _templateContract;\n    bytes4 private _initSelector;\n    address private _instanceRegistry;\n    bytes4 private _instanceType;\n\n    event InstanceCreated(address indexed instance, address indexed creator, bytes callData);\n\n    function _initialize(address instanceRegistry, address templateContract, bytes4 instanceType, bytes4 initSelector) internal {\n        // set instance registry\n        _instanceRegistry = instanceRegistry;\n        // set logic contract\n        _templateContract = templateContract;\n        // set initSelector\n        _initSelector = initSelector;\n        // validate correct instance registry\n        require(instanceType == iRegistry(instanceRegistry).getInstanceType(), 'incorrect instance type');\n        // set instanceType\n        _instanceType = instanceType;\n    }\n\n    // IFactory methods\n\n    function create(bytes memory callData) public returns (address instance) {\n        // deploy new contract: initialize it & write minimal proxy to runtime.\n        instance = Spawner._spawn(getTemplate(), callData);\n\n        _createHelper(instance, callData);\n\n        return instance;\n    }\n\n    function createSalty(bytes memory callData, bytes32 salt) public returns (address instance) {\n        // deploy new contract: initialize it & write minimal proxy to runtime.\n        instance = Spawner._spawnSalty(getTemplate(), callData, salt);\n\n        _createHelper(instance, callData);\n\n        return instance;\n    }\n\n    function _createHelper(address instance, bytes memory callData) private {\n        // add the instance to the array\n        _instances.push(instance);\n        // set instance creator\n        _instanceCreator[instance] = msg.sender;\n        // add the instance to the instance registry\n        iRegistry(getInstanceRegistry()).register(instance, msg.sender, uint80(0));\n        // emit event\n        emit InstanceCreated(instance, msg.sender, callData);\n    }\n\n    function getSaltyInstance(\n        bytes memory callData,\n        bytes32 salt\n    ) public view returns (address target) {\n        return Spawner._computeTargetAddress(getTemplate(), callData, salt);\n    }\n\n    function getNextInstance(\n        bytes memory callData\n    ) public view returns (address target) {\n        return Spawner._getNextAddress(getTemplate(), callData);\n    }\n\n    function getInstanceCreator(address instance) public view returns (address creator) {\n        return _instanceCreator[instance];\n    }\n\n    function getInstanceType() public view returns (bytes4 instanceType) {\n        return _instanceType;\n    }\n\n    function getInitSelector() public view returns (bytes4 initSelector) {\n        return _initSelector;\n    }\n\n    function getInstanceRegistry() public view returns (address instanceRegistry) {\n        return _instanceRegistry;\n    }\n\n    function getTemplate() public view returns (address template) {\n        return _templateContract;\n    }\n\n    function getInstanceCount() public view returns (uint256 count) {\n        return _instances.length;\n    }\n\n    function getInstance(uint256 index) public view returns (address instance) {\n        require(index < _instances.length, \"index out of range\");\n        return _instances[index];\n    }\n\n    function getInstances() public view returns (address[] memory instances) {\n        return _instances;\n    }\n\n    // Note: startIndex is inclusive, endIndex exclusive\n    function getPaginatedInstances(uint256 startIndex, uint256 endIndex) public view returns (address[] memory instances) {\n        require(startIndex < endIndex, \"startIndex must be less than endIndex\");\n        require(endIndex <= _instances.length, \"end index out of range\");\n\n        // initialize fixed size memory array\n        address[] memory range = new address[](endIndex - startIndex);\n\n        // Populate array with addresses in range\n        for (uint256 i = startIndex; i < endIndex; i++) {\n            range[i - startIndex] = _instances[i];\n        }\n\n        // return array of addresses\n        return range;\n    }\n\n}\n",
  "sourcePath": "/home/kim/Code/Erasure/erasure-protocol/contracts/modules/Factory.sol",
  "compiler": {
    "name": "solc",
    "version": "0.5.13+commit.5b0b510c.Emscripten.clang",
    "optimizer": false,
    "runs": 200
  },
  "schemaVersion": "2.2.0",
  "updatedAt": "2019-11-23T03:57:38.458Z"
}