{
  "contractName": "Metadata",
  "abi": [
    {
      "anonymous": false,
      "inputs": [
        {
          "indexed": false,
          "internalType": "bytes",
          "name": "staticMetadata",
          "type": "bytes"
        }
      ],
      "name": "StaticMetadataSet",
      "type": "event"
    },
    {
      "anonymous": false,
      "inputs": [
        {
          "indexed": false,
          "internalType": "bytes",
          "name": "variableMetadata",
          "type": "bytes"
        }
      ],
      "name": "VariableMetadataSet",
      "type": "event"
    },
    {
      "constant": true,
      "inputs": [],
      "name": "getMetadata",
      "outputs": [
        {
          "internalType": "bytes",
          "name": "staticMetadata",
          "type": "bytes"
        },
        {
          "internalType": "bytes",
          "name": "variableMetadata",
          "type": "bytes"
        }
      ],
      "payable": false,
      "stateMutability": "view",
      "type": "function"
    }
  ],
  "bytecode": "0x608060405234801561001057600080fd5b50610273806100206000396000f3fe608060405234801561001057600080fd5b506004361061002b5760003560e01c80637a5b4f5914610030575b600080fd5b610038610116565b604051808060200180602001838103835285818151815260200191508051906020019080838360005b83811015610079578181015183820152602001610061565b50505050905090810190601f1680156100a65780820380516001836020036101000a031916815260200191505b50838103825284518152845160209182019186019080838360005b838110156100d95781810151838201526020016100c1565b50505050905090810190601f1680156101065780820380516001836020036101000a031916815260200191505b5094505050505060405180910390f35b6000805460408051602060026001851615610100026000190190941693909304601f81018490048402820184019092528181526060938493919290918301828280156101a35780601f10610178576101008083540402835291602001916101a3565b820191906000526020600020905b81548152906001019060200180831161018657829003601f168201915b505060018054604080516020601f600260001961010087891615020190951694909404938401819004810282018101909252828152969850919450925084019050828280156102335780601f1061020857610100808354040283529160200191610233565b820191906000526020600020905b81548152906001019060200180831161021657829003601f168201915b50505050509050909156fea265627a7a7231582063a4bac14c041841eb3b8258c9a7c65f6781e894976ee67bd8c668cc67dc864664736f6c634300050b0032",
  "source": "pragma solidity ^0.5.0;\n\n\ncontract Metadata {\n\n    bytes private _staticMetadata;\n    bytes private _variableMetadata;\n\n    event StaticMetadataSet(bytes staticMetadata);\n    event VariableMetadataSet(bytes variableMetadata);\n\n    // state functions\n\n    function _setStaticMetadata(bytes memory staticMetadata) internal {\n        require(_staticMetadata.length == 0, \"static metadata cannot be changed\");\n        _staticMetadata = staticMetadata;\n        emit StaticMetadataSet(staticMetadata);\n    }\n\n    function _setVariableMetadata(bytes memory variableMetadata) internal {\n        _variableMetadata = variableMetadata;\n        emit VariableMetadataSet(variableMetadata);\n    }\n\n    // view functions\n\n    function getMetadata() public view returns (bytes memory staticMetadata, bytes memory variableMetadata) {\n        staticMetadata = _staticMetadata;\n        variableMetadata = _variableMetadata;\n    }\n}\n",
  "sourcePath": "/home/kim/Code/Erasure/erasure-protocol/contracts/modules/Metadata.sol",
  "compiler": {
    "name": "solc",
    "version": "0.5.11+commit.c082d0b4.Emscripten.clang",
    "optimizer": true,
    "runs": 200
  },
  "schemaVersion": "2.2.0",
  "updatedAt": "2019-11-06T06:43:53.778Z"
}