{
  "contractName": "Operated",
  "abi": [
    {
      "anonymous": false,
      "inputs": [
        {
          "indexed": false,
          "internalType": "address",
          "name": "operator",
          "type": "address"
        }
      ],
      "name": "OperatorUpdated",
      "type": "event"
    },
    {
      "constant": true,
      "inputs": [],
      "name": "getOperator",
      "outputs": [
        {
          "internalType": "address",
          "name": "operator",
          "type": "address"
        }
      ],
      "payable": false,
      "stateMutability": "view",
      "type": "function"
    }
  ],
  "bytecode": "0x608060405234801561001057600080fd5b5060d38061001f6000396000f3fe6080604052348015600f57600080fd5b506004361060285760003560e01c8063e7f43c6814602d575b600080fd5b60336075565b604051808273ffffffffffffffffffffffffffffffffffffffff1673ffffffffffffffffffffffffffffffffffffffff16815260200191505060405180910390f35b60008060009054906101000a900473ffffffffffffffffffffffffffffffffffffffff1690509056fea265627a7a7231582089b09e9be961fbf9aab05f8ee423332fb979d02be76923bead20ecb258399d0764736f6c634300050d0032",
  "source": "pragma solidity ^0.5.13;\n\n\n/// @title Operated\n/// @author Stephane Gosselin (@thegostep) for Numerai Inc\n/// @dev Security contact: security@numer.ai\n/// @dev Version: 1.2.0\ncontract Operated {\n\n    address private _operator;\n\n    event OperatorUpdated(address operator);\n\n    // state functions\n\n    function _setOperator(address operator) internal {\n\n        // can only be called when operator is null\n        require(_operator == address(0), \"operator already set\");\n\n        // cannot set to address 0\n        require(operator != address(0), \"cannot set operator to address 0\");\n\n        // set operator in storage\n        _operator = operator;\n\n        // emit event\n        emit OperatorUpdated(operator);\n    }\n\n    function _transferOperator(address operator) internal {\n\n        // requires existing operator\n        require(_operator != address(0), \"only when operator set\");\n\n        // cannot set to address 0\n        require(operator != address(0), \"cannot set operator to address 0\");\n\n        // set operator in storage\n        _operator = operator;\n\n        // emit event\n        emit OperatorUpdated(operator);\n    }\n\n    function _renounceOperator() internal {\n\n        // requires existing operator\n        require(_operator != address(0), \"only when operator set\");\n\n        // set operator in storage\n        _operator = address(0);\n\n        // emit event\n        emit OperatorUpdated(address(0));\n    }\n\n    // view functions\n\n    function getOperator() public view returns (address operator) {\n        return _operator;\n    }\n\n    function isOperator(address caller) internal view returns (bool ok) {\n        return caller == _operator;\n    }\n\n}\n",
  "sourcePath": "/home/kim/Code/Erasure/erasure-protocol/contracts/modules/Operated.sol",
  "compiler": {
    "name": "solc",
    "version": "0.5.13+commit.5b0b510c.Emscripten.clang",
    "optimizer": false,
    "runs": 200
  },
  "schemaVersion": "2.2.0",
  "updatedAt": "2019-11-23T03:57:38.432Z"
}