{
  "contractName": "OperatorAccess",
  "abi": [
    {
      "constant": true,
      "inputs": [
        {
          "internalType": "address",
          "name": "caller",
          "type": "address"
        }
      ],
      "name": "isActiveOperator",
      "outputs": [
        {
          "internalType": "bool",
          "name": "ok",
          "type": "bool"
        }
      ],
      "payable": false,
      "stateMutability": "view",
      "type": "function"
    },
    {
      "constant": true,
      "inputs": [
        {
          "internalType": "address",
          "name": "caller",
          "type": "address"
        }
      ],
      "name": "isOperator",
      "outputs": [
        {
          "internalType": "bool",
          "name": "ok",
          "type": "bool"
        }
      ],
      "payable": false,
      "stateMutability": "view",
      "type": "function"
    },
    {
      "constant": true,
      "inputs": [],
      "name": "hasActiveOperator",
      "outputs": [
        {
          "internalType": "bool",
          "name": "ok",
          "type": "bool"
        }
      ],
      "payable": false,
      "stateMutability": "view",
      "type": "function"
    },
    {
      "constant": true,
      "inputs": [],
      "name": "getOperator",
      "outputs": [
        {
          "internalType": "address",
          "name": "operator",
          "type": "address"
        }
      ],
      "payable": false,
      "stateMutability": "view",
      "type": "function"
    },
    {
      "anonymous": false,
      "inputs": [
        {
          "indexed": false,
          "internalType": "address",
          "name": "operator",
          "type": "address"
        },
        {
          "indexed": false,
          "internalType": "bool",
          "name": "status",
          "type": "bool"
        }
      ],
      "name": "OperatorUpdated",
      "type": "event"
    },
    {
      "constant": false,
      "inputs": [],
      "name": "deactivateOperator",
      "outputs": [],
      "payable": false,
      "stateMutability": "nonpayable",
      "type": "function"
    },
    {
      "constant": false,
      "inputs": [],
      "name": "activateOperator",
      "outputs": [],
      "payable": false,
      "stateMutability": "nonpayable",
      "type": "function"
    }
  ],
  "bytecode": "0x608060405234801561001057600080fd5b50610314806100206000396000f3fe608060405234801561001057600080fd5b50600436106100625760003560e01c80633367cca5146100675780636d70f7ae146100a1578063706be4ca146100c7578063923b1762146100d1578063ab66d814146100d9578063e7f43c68146100e1575b600080fd5b61008d6004803603602081101561007d57600080fd5b50356001600160a01b0316610105565b604080519115158252519081900360200190f35b61008d600480360360208110156100b757600080fd5b50356001600160a01b0316610125565b6100cf61014a565b005b61008d610154565b6100cf610164565b6100e961016c565b604080516001600160a01b039092168252519081900360200190f35b600061011082610125565b801561011f575061011f610154565b92915050565b600061012f61016c565b6001600160a01b0316826001600160a01b0316149050919050565b61015261017b565b565b600054600160a01b900460ff1690565b61015261022a565b6000546001600160a01b031690565b610183610154565b6101d4576040805162461bcd60e51b815260206004820152601960248201527f6f6e6c79207768656e206f70657261746f722061637469766500000000000000604482015290519081900360640190fd5b6000805460ff60a01b1981168255604080516001600160a01b039092168252602082019290925281517f966c160e1c4dbc7df8d69af4ace01e9297c3cf016397b7914971f2fbfa32672d929181900390910190a1565b610232610154565b15610284576040805162461bcd60e51b815260206004820152601d60248201527f6f6e6c79207768656e206f70657261746f72206e6f7420616374697665000000604482015290519081900360640190fd5b6000805460ff60a01b1916600160a01b1790819055604080516001600160a01b0390921682526001602083015280517f966c160e1c4dbc7df8d69af4ace01e9297c3cf016397b7914971f2fbfa32672d9281900390910190a156fea265627a7a72315820ffd920fc3e77a094536b9b8248956842e8ed4474bf0298af5d4535726f3724b464736f6c634300050b0032",
  "source": "pragma solidity ^0.5.0;\n\nimport \"../modules/Operated.sol\";\n\ncontract OperatorAccess is Operated {\n\n    // backdoor function to deactivate Operator for testing\n    function deactivateOperator() public {\n        Operated._deactivateOperator();\n    }\n\n    // backdoor function to activate Operator for testing\n    function activateOperator() public {\n        Operated._activateOperator();\n    }\n\n}\n",
  "sourcePath": "/home/kim/Code/Erasure/erasure-protocol/contracts/test-contracts/OperatorAccess.sol",
  "compiler": {
    "name": "solc",
    "version": "0.5.11+commit.c082d0b4.Emscripten.clang",
    "optimizer": true,
    "runs": 200
  },
  "schemaVersion": "2.2.0",
  "updatedAt": "2019-11-06T06:43:53.788Z"
}