{
  "contractName": "ProofHash",
  "abi": [
    {
      "anonymous": false,
      "inputs": [
        {
          "indexed": false,
          "internalType": "address",
          "name": "caller",
          "type": "address"
        },
        {
          "indexed": false,
          "internalType": "bytes",
          "name": "proofHash",
          "type": "bytes"
        }
      ],
      "name": "ProofHashSet",
      "type": "event"
    },
    {
      "constant": true,
      "inputs": [],
      "name": "getProofHash",
      "outputs": [
        {
          "internalType": "bytes",
          "name": "proofHash",
          "type": "bytes"
        }
      ],
      "payable": false,
      "stateMutability": "view",
      "type": "function"
    }
  ],
  "bytecode": "0x608060405234801561001057600080fd5b506101f1806100206000396000f3fe608060405234801561001057600080fd5b506004361061002b5760003560e01c806355e0337314610030575b600080fd5b6100386100ad565b6040805160208082528351818301528351919283929083019185019080838360005b8381101561007257818101518382015260200161005a565b50505050905090810190601f16801561009f5780820380516001836020036101000a031916815260200191505b509250505060405180910390f35b6040805160608181018352600054825260015460ff808216602085015261010090910416928201929092526100e1906100e6565b905090565b6040805160228082526060828101909352829190602082018180388339019050509050826020015160f81b8160008151811061011e57fe5b60200101906001600160f81b031916908160001a905350826040015160f81b8160018151811061014a57fe5b60200101906001600160f81b031916908160001a90535060005b60208160ff1610156101b557835160ff82166020811061018057fe5b1a60f81b828260020160ff168151811061019657fe5b60200101906001600160f81b031916908160001a905350600101610164565b509291505056fea265627a7a72315820bb9af7333fbb43d4cd8e7617c0df644991769a01bccc44b409d6271c4a78487964736f6c634300050b0032",
  "source": "pragma solidity ^0.5.0;\n\nimport \"./MultiHashWrapper.sol\";\n\n\ncontract ProofHash is MultiHashWrapper {\n\n    MultiHash private _proofHash;\n\n    event ProofHashSet(address caller, bytes proofHash);\n\n    // state functions\n\n    function _setProofHash(bytes memory proofHash) internal {\n        _proofHash = MultiHashWrapper._splitMultiHash(proofHash);\n        emit ProofHashSet(msg.sender, proofHash);\n    }\n\n    // view functions\n\n    function getProofHash() public view returns (bytes memory proofHash) {\n        proofHash = MultiHashWrapper._combineMultiHash(_proofHash);\n    }\n\n}\n",
  "sourcePath": "/home/kim/Code/Erasure/erasure-protocol/contracts/modules/ProofHash.sol",
  "compiler": {
    "name": "solc",
    "version": "0.5.11+commit.c082d0b4.Emscripten.clang",
    "optimizer": true,
    "runs": 200
  },
  "schemaVersion": "2.2.0",
  "updatedAt": "2019-11-06T06:43:53.779Z"
}