{
  "contractName": "Staking",
  "abi": [
    {
      "anonymous": false,
      "inputs": [
        {
          "indexed": false,
          "internalType": "address",
          "name": "user",
          "type": "address"
        },
        {
          "indexed": false,
          "internalType": "uint256",
          "name": "amount",
          "type": "uint256"
        },
        {
          "indexed": false,
          "internalType": "uint256",
          "name": "newDeposit",
          "type": "uint256"
        }
      ],
      "name": "DepositDecreased",
      "type": "event"
    },
    {
      "anonymous": false,
      "inputs": [
        {
          "indexed": false,
          "internalType": "address",
          "name": "user",
          "type": "address"
        },
        {
          "indexed": false,
          "internalType": "uint256",
          "name": "amount",
          "type": "uint256"
        },
        {
          "indexed": false,
          "internalType": "uint256",
          "name": "newDeposit",
          "type": "uint256"
        }
      ],
      "name": "DepositIncreased",
      "type": "event"
    },
    {
      "anonymous": false,
      "inputs": [
        {
          "indexed": false,
          "internalType": "address",
          "name": "staker",
          "type": "address"
        },
        {
          "indexed": false,
          "internalType": "address",
          "name": "funder",
          "type": "address"
        },
        {
          "indexed": false,
          "internalType": "uint256",
          "name": "amount",
          "type": "uint256"
        }
      ],
      "name": "StakeAdded",
      "type": "event"
    },
    {
      "anonymous": false,
      "inputs": [
        {
          "indexed": false,
          "internalType": "address",
          "name": "staker",
          "type": "address"
        },
        {
          "indexed": false,
          "internalType": "uint256",
          "name": "amount",
          "type": "uint256"
        }
      ],
      "name": "StakeBurned",
      "type": "event"
    },
    {
      "anonymous": false,
      "inputs": [
        {
          "indexed": false,
          "internalType": "address",
          "name": "staker",
          "type": "address"
        },
        {
          "indexed": false,
          "internalType": "address",
          "name": "recipient",
          "type": "address"
        },
        {
          "indexed": false,
          "internalType": "uint256",
          "name": "amount",
          "type": "uint256"
        }
      ],
      "name": "StakeTaken",
      "type": "event"
    },
    {
      "constant": true,
      "inputs": [
        {
          "internalType": "address",
          "name": "user",
          "type": "address"
        }
      ],
      "name": "getDeposit",
      "outputs": [
        {
          "internalType": "uint256",
          "name": "deposit",
          "type": "uint256"
        }
      ],
      "payable": false,
      "stateMutability": "view",
      "type": "function"
    },
    {
      "constant": true,
      "inputs": [],
      "name": "getToken",
      "outputs": [
        {
          "internalType": "address",
          "name": "token",
          "type": "address"
        }
      ],
      "payable": false,
      "stateMutability": "pure",
      "type": "function"
    },
    {
      "constant": true,
      "inputs": [
        {
          "internalType": "address",
          "name": "staker",
          "type": "address"
        }
      ],
      "name": "getStake",
      "outputs": [
        {
          "internalType": "uint256",
          "name": "stake",
          "type": "uint256"
        }
      ],
      "payable": false,
      "stateMutability": "view",
      "type": "function"
    }
  ],
  "bytecode": "0x608060405234801561001057600080fd5b506101eb806100206000396000f3fe608060405234801561001057600080fd5b50600436106100415760003560e01c806321df0da7146100465780637a76646014610090578063e1254fba146100e8575b600080fd5b61004e610140565b604051808273ffffffffffffffffffffffffffffffffffffffff1673ffffffffffffffffffffffffffffffffffffffff16815260200191505060405180910390f35b6100d2600480360360208110156100a657600080fd5b81019080803573ffffffffffffffffffffffffffffffffffffffff16906020019092919050505061015c565b6040518082815260200191505060405180910390f35b61012a600480360360208110156100fe57600080fd5b81019080803573ffffffffffffffffffffffffffffffffffffffff16906020019092919050505061016e565b6040518082815260200191505060405180910390f35b6000731776e1f26f98b1a5df9cd347953a26dd3cb46671905090565b60006101678261016e565b9050919050565b60008060008373ffffffffffffffffffffffffffffffffffffffff1673ffffffffffffffffffffffffffffffffffffffff16815260200190815260200160002054905091905056fea265627a7a72315820546757e29663ac082c40bd43afd158aaa7dd4006038e8b881776a968982fa7a764736f6c634300050d0032",
  "source": "pragma solidity ^0.5.13;\n\nimport \"../helpers/openzeppelin-solidity/math/SafeMath.sol\";\nimport \"../helpers/openzeppelin-solidity/token/ERC20/IERC20.sol\";\nimport \"./BurnNMR.sol\";\nimport \"./Deposit.sol\";\n\n\n/// @title Staking\n/// @author Stephane Gosselin (@thegostep) for Numerai Inc\n/// @dev Security contact: security@numer.ai\n/// @dev Version: 1.2.0\n/// @dev State Machine: https://github.com/erasureprotocol/erasure-protocol/blob/v1.2.0/docs/state-machines/modules/Staking.png\ncontract Staking is Deposit, BurnNMR {\n\n    using SafeMath for uint256;\n\n    event StakeAdded(address staker, address funder, uint256 amount);\n    event StakeTaken(address staker, address recipient, uint256 amount);\n    event StakeBurned(address staker, uint256 amount);\n\n    function _addStake(address staker, address funder, uint256 amountToAdd) internal {\n        // update deposit\n        Deposit._increaseDeposit(staker, amountToAdd);\n\n        // transfer the stake amount\n        require(IERC20(BurnNMR.getToken()).transferFrom(funder, address(this), amountToAdd), \"token transfer failed\");\n\n        // emit event\n        emit StakeAdded(staker, funder, amountToAdd);\n    }\n\n    function _takeStake(address staker, address recipient, uint256 amountToTake) internal returns (uint256 newStake) {\n        // update deposit\n        uint256 newDeposit = Deposit._decreaseDeposit(staker, amountToTake);\n\n        // transfer the stake amount\n        require(IERC20(BurnNMR.getToken()).transfer(recipient, amountToTake), \"token transfer failed\");\n\n        // emit event\n        emit StakeTaken(staker, recipient, amountToTake);\n\n        // return\n        return newDeposit;\n    }\n\n    function _takeFullStake(address staker, address recipient) internal returns (uint256 amountTaken) {\n        // get deposit\n        uint256 currentDeposit = Deposit.getDeposit(staker);\n\n        // take full stake\n        _takeStake(staker, recipient, currentDeposit);\n\n        // return\n        return currentDeposit;\n    }\n\n    function _burnStake(address staker, uint256 amountToBurn) internal returns (uint256 newStake) {\n        // update deposit\n        uint256 newDeposit = Deposit._decreaseDeposit(staker, amountToBurn);\n\n        // burn the stake amount\n        BurnNMR._burn(amountToBurn);\n\n        // emit event\n        emit StakeBurned(staker, amountToBurn);\n\n        // return\n        return newDeposit;\n    }\n\n    function _burnFullStake(address staker) internal returns (uint256 amountBurned) {\n        // get deposit\n        uint256 currentDeposit = Deposit.getDeposit(staker);\n\n        // burn full stake\n        _burnStake(staker, currentDeposit);\n\n        // return\n        return currentDeposit;\n    }\n\n    // view functions\n\n    function getStake(address staker) public view returns (uint256 stake) {\n        return Deposit.getDeposit(staker);\n    }\n\n}\n",
  "sourcePath": "/home/kim/Code/Erasure/erasure-protocol/contracts/modules/Staking.sol",
  "compiler": {
    "name": "solc",
    "version": "0.5.13+commit.5b0b510c.Emscripten.clang",
    "optimizer": false,
    "runs": 200
  },
  "schemaVersion": "2.2.0",
  "updatedAt": "2019-11-23T03:57:38.448Z"
}