{
  "contractName": "TestGriefing",
  "abi": [
    {
      "anonymous": false,
      "inputs": [
        {
          "indexed": false,
          "internalType": "address",
          "name": "user",
          "type": "address"
        },
        {
          "indexed": false,
          "internalType": "uint256",
          "name": "amount",
          "type": "uint256"
        },
        {
          "indexed": false,
          "internalType": "uint256",
          "name": "newDeposit",
          "type": "uint256"
        }
      ],
      "name": "DepositDecreased",
      "type": "event"
    },
    {
      "anonymous": false,
      "inputs": [
        {
          "indexed": false,
          "internalType": "address",
          "name": "user",
          "type": "address"
        },
        {
          "indexed": false,
          "internalType": "uint256",
          "name": "amount",
          "type": "uint256"
        },
        {
          "indexed": false,
          "internalType": "uint256",
          "name": "newDeposit",
          "type": "uint256"
        }
      ],
      "name": "DepositIncreased",
      "type": "event"
    },
    {
      "anonymous": false,
      "inputs": [
        {
          "indexed": false,
          "internalType": "address",
          "name": "punisher",
          "type": "address"
        },
        {
          "indexed": false,
          "internalType": "address",
          "name": "staker",
          "type": "address"
        },
        {
          "indexed": false,
          "internalType": "uint256",
          "name": "punishment",
          "type": "uint256"
        },
        {
          "indexed": false,
          "internalType": "uint256",
          "name": "cost",
          "type": "uint256"
        },
        {
          "indexed": false,
          "internalType": "bytes",
          "name": "message",
          "type": "bytes"
        }
      ],
      "name": "Griefed",
      "type": "event"
    },
    {
      "anonymous": false,
      "inputs": [
        {
          "indexed": false,
          "internalType": "address",
          "name": "staker",
          "type": "address"
        },
        {
          "indexed": false,
          "internalType": "uint256",
          "name": "ratio",
          "type": "uint256"
        },
        {
          "indexed": false,
          "internalType": "enum Griefing.RatioType",
          "name": "ratioType",
          "type": "uint8"
        }
      ],
      "name": "RatioSet",
      "type": "event"
    },
    {
      "anonymous": false,
      "inputs": [
        {
          "indexed": false,
          "internalType": "address",
          "name": "staker",
          "type": "address"
        },
        {
          "indexed": false,
          "internalType": "address",
          "name": "funder",
          "type": "address"
        },
        {
          "indexed": false,
          "internalType": "uint256",
          "name": "amount",
          "type": "uint256"
        }
      ],
      "name": "StakeAdded",
      "type": "event"
    },
    {
      "anonymous": false,
      "inputs": [
        {
          "indexed": false,
          "internalType": "address",
          "name": "staker",
          "type": "address"
        },
        {
          "indexed": false,
          "internalType": "uint256",
          "name": "amount",
          "type": "uint256"
        }
      ],
      "name": "StakeBurned",
      "type": "event"
    },
    {
      "anonymous": false,
      "inputs": [
        {
          "indexed": false,
          "internalType": "address",
          "name": "staker",
          "type": "address"
        },
        {
          "indexed": false,
          "internalType": "address",
          "name": "recipient",
          "type": "address"
        },
        {
          "indexed": false,
          "internalType": "uint256",
          "name": "amount",
          "type": "uint256"
        }
      ],
      "name": "StakeTaken",
      "type": "event"
    },
    {
      "constant": true,
      "inputs": [
        {
          "internalType": "uint256",
          "name": "ratio",
          "type": "uint256"
        },
        {
          "internalType": "uint256",
          "name": "punishment",
          "type": "uint256"
        },
        {
          "internalType": "enum Griefing.RatioType",
          "name": "ratioType",
          "type": "uint8"
        }
      ],
      "name": "getCost",
      "outputs": [
        {
          "internalType": "uint256",
          "name": "cost",
          "type": "uint256"
        }
      ],
      "payable": false,
      "stateMutability": "pure",
      "type": "function"
    },
    {
      "constant": true,
      "inputs": [
        {
          "internalType": "address",
          "name": "user",
          "type": "address"
        }
      ],
      "name": "getDeposit",
      "outputs": [
        {
          "internalType": "uint256",
          "name": "deposit",
          "type": "uint256"
        }
      ],
      "payable": false,
      "stateMutability": "view",
      "type": "function"
    },
    {
      "constant": true,
      "inputs": [
        {
          "internalType": "uint256",
          "name": "ratio",
          "type": "uint256"
        },
        {
          "internalType": "uint256",
          "name": "cost",
          "type": "uint256"
        },
        {
          "internalType": "enum Griefing.RatioType",
          "name": "ratioType",
          "type": "uint8"
        }
      ],
      "name": "getPunishment",
      "outputs": [
        {
          "internalType": "uint256",
          "name": "punishment",
          "type": "uint256"
        }
      ],
      "payable": false,
      "stateMutability": "pure",
      "type": "function"
    },
    {
      "constant": true,
      "inputs": [
        {
          "internalType": "address",
          "name": "staker",
          "type": "address"
        }
      ],
      "name": "getRatio",
      "outputs": [
        {
          "internalType": "uint256",
          "name": "ratio",
          "type": "uint256"
        },
        {
          "internalType": "enum Griefing.RatioType",
          "name": "ratioType",
          "type": "uint8"
        }
      ],
      "payable": false,
      "stateMutability": "view",
      "type": "function"
    },
    {
      "constant": true,
      "inputs": [
        {
          "internalType": "address",
          "name": "staker",
          "type": "address"
        }
      ],
      "name": "getStake",
      "outputs": [
        {
          "internalType": "uint256",
          "name": "stake",
          "type": "uint256"
        }
      ],
      "payable": false,
      "stateMutability": "view",
      "type": "function"
    },
    {
      "constant": true,
      "inputs": [],
      "name": "getToken",
      "outputs": [
        {
          "internalType": "address",
          "name": "token",
          "type": "address"
        }
      ],
      "payable": false,
      "stateMutability": "pure",
      "type": "function"
    },
    {
      "constant": true,
      "inputs": [],
      "name": "getGriefCost",
      "outputs": [
        {
          "internalType": "uint256",
          "name": "griefCost",
          "type": "uint256"
        }
      ],
      "payable": false,
      "stateMutability": "view",
      "type": "function"
    },
    {
      "constant": false,
      "inputs": [
        {
          "internalType": "address",
          "name": "staker",
          "type": "address"
        },
        {
          "internalType": "address",
          "name": "funder",
          "type": "address"
        },
        {
          "internalType": "uint256",
          "name": "amountToAdd",
          "type": "uint256"
        }
      ],
      "name": "addStake",
      "outputs": [],
      "payable": false,
      "stateMutability": "nonpayable",
      "type": "function"
    },
    {
      "constant": false,
      "inputs": [
        {
          "internalType": "address",
          "name": "staker",
          "type": "address"
        },
        {
          "internalType": "uint256",
          "name": "ratio",
          "type": "uint256"
        },
        {
          "internalType": "enum Griefing.RatioType",
          "name": "ratioType",
          "type": "uint8"
        }
      ],
      "name": "setRatio",
      "outputs": [],
      "payable": false,
      "stateMutability": "nonpayable",
      "type": "function"
    },
    {
      "constant": false,
      "inputs": [
        {
          "internalType": "address",
          "name": "punisher",
          "type": "address"
        },
        {
          "internalType": "address",
          "name": "staker",
          "type": "address"
        },
        {
          "internalType": "uint256",
          "name": "punishment",
          "type": "uint256"
        },
        {
          "internalType": "bytes",
          "name": "message",
          "type": "bytes"
        }
      ],
      "name": "grief",
      "outputs": [],
      "payable": false,
      "stateMutability": "nonpayable",
      "type": "function"
    }
  ],
  "bytecode": "0x608060405234801561001057600080fd5b506116cb806100206000396000f3fe608060405234801561001057600080fd5b506004361061009e5760003560e01c8063a2886dcc11610066578063a2886dcc14610264578063c4ca9ecd146102bf578063de7fb3fc146103c4578063dfc2d1ba146103e2578063e1254fba146104505761009e565b806321df0da7146100a3578063465b414e146100ed5780635baeb80614610146578063754b27071461019f5780637a7664601461020c575b600080fd5b6100ab6104a8565b604051808273ffffffffffffffffffffffffffffffffffffffff1673ffffffffffffffffffffffffffffffffffffffff16815260200191505060405180910390f35b6101306004803603606081101561010357600080fd5b810190808035906020019092919080359060200190929190803560ff1690602001909291905050506104c4565b6040518082815260200191505060405180910390f35b6101896004803603606081101561015c57600080fd5b810190808035906020019092919080359060200190929190803560ff1690602001909291905050506105af565b6040518082815260200191505060405180910390f35b6101e1600480360360208110156101b557600080fd5b81019080803573ffffffffffffffffffffffffffffffffffffffff1690602001909291905050506106e2565b604051808381526020018260028111156101f757fe5b60ff1681526020019250505060405180910390f35b61024e6004803603602081101561022257600080fd5b81019080803573ffffffffffffffffffffffffffffffffffffffff169060200190929190505050610781565b6040518082815260200191505060405180910390f35b6102bd6004803603606081101561027a57600080fd5b81019080803573ffffffffffffffffffffffffffffffffffffffff16906020019092919080359060200190929190803560ff169060200190929190505050610793565b005b6103c2600480360360808110156102d557600080fd5b81019080803573ffffffffffffffffffffffffffffffffffffffff169060200190929190803573ffffffffffffffffffffffffffffffffffffffff169060200190929190803590602001909291908035906020019064010000000081111561033c57600080fd5b82018360208201111561034e57600080fd5b8035906020019184600183028401116401000000008311171561037057600080fd5b91908080601f016020809104026020016040519081016040528093929190818152602001838380828437600081840152601f19601f8201169050808301925050505050505091929192905050506107a3565b005b6103cc6107bb565b6040518082815260200191505060405180910390f35b61044e600480360360608110156103f857600080fd5b81019080803573ffffffffffffffffffffffffffffffffffffffff169060200190929190803573ffffffffffffffffffffffffffffffffffffffff169060200190929190803590602001909291905050506107c5565b005b6104926004803603602081101561046657600080fd5b81019080803573ffffffffffffffffffffffffffffffffffffffff1690602001909291905050506107d5565b6040518082815260200191505060405180910390f35b6000731776e1f26f98b1a5df9cd347953a26dd3cb46671905090565b60006002808111156104d257fe5b8260028111156104de57fe5b141561050f576012600a0a6105006104fa856012600a0a61081d565b866108a3565b8161050757fe5b0490506105a8565b6001600281111561051c57fe5b82600281111561052857fe5b141561053757600090506105a8565b6000600281111561054457fe5b82600281111561055057fe5b14156105a7576040517f08c379a000000000000000000000000000000000000000000000000000000000815260040180806020018281038252602181526020018061164a6021913960400191505060405180910390fd5b5b9392505050565b60006002808111156105bd57fe5b8260028111156105c957fe5b14156105fa576012600a0a6105eb6105e5856012600a0a61081d565b866108db565b816105f257fe5b0490506106db565b6001600281111561060757fe5b82600281111561061357fe5b141561066a576040517f08c379a00000000000000000000000000000000000000000000000000000000081526004018080602001828103825260218152602001806116086021913960400191505060405180910390fd5b6000600281111561067757fe5b82600281111561068357fe5b14156106da576040517f08c379a000000000000000000000000000000000000000000000000000000000815260040180806020018281038252602181526020018061164a6021913960400191505060405180910390fd5b5b9392505050565b600080600160008473ffffffffffffffffffffffffffffffffffffffff1673ffffffffffffffffffffffffffffffffffffffff16815260200190815260200160002060000154600160008573ffffffffffffffffffffffffffffffffffffffff1673ffffffffffffffffffffffffffffffffffffffff16815260200190815260200160002060010160009054906101000a900460ff1691509150915091565b600061078c826107d5565b9050919050565b61079e83838361090f565b505050565b6107af84848484610ad9565b60028190555050505050565b6000600254905090565b6107d0838383610d45565b505050565b60008060008373ffffffffffffffffffffffffffffffffffffffff1673ffffffffffffffffffffffffffffffffffffffff168152602001908152602001600020549050919050565b600080831415610830576000905061089d565b600082840290508284828161084157fe5b0414610898576040517f08c379a00000000000000000000000000000000000000000000000000000000081526004018080602001828103825260218152602001806116296021913960400191505060405180910390fd5b809150505b92915050565b60006012600a0a6108cb6108b7858561081d565b60026012600a0a816108c557fe5b04610f63565b816108d257fe5b04905092915050565b6000816108ff6108ef856012600a0a61081d565b600285816108f957fe5b04610f63565b8161090657fe5b04905092915050565b6000600281111561091c57fe5b81600281111561092857fe5b148061094a57506001600281111561093c57fe5b81600281111561094857fe5b145b156109a957600082146109a8576040517f08c379a000000000000000000000000000000000000000000000000000000000815260040180806020018281038252602c81526020018061166b602c913960400191505060405180910390fd5b5b81600160008573ffffffffffffffffffffffffffffffffffffffff1673ffffffffffffffffffffffffffffffffffffffff1681526020019081526020016000206000018190555080600160008573ffffffffffffffffffffffffffffffffffffffff1673ffffffffffffffffffffffffffffffffffffffff16815260200190815260200160002060010160006101000a81548160ff02191690836002811115610a4e57fe5b02179055507fc964ed8af672f908dc7ba57f61d45a87a7e179cecf5198e7b7d53c920d898f06838383604051808473ffffffffffffffffffffffffffffffffffffffff1673ffffffffffffffffffffffffffffffffffffffff168152602001838152602001826002811115610abf57fe5b60ff168152602001935050505060405180910390a1505050565b600080600160008673ffffffffffffffffffffffffffffffffffffffff1673ffffffffffffffffffffffffffffffffffffffff1681526020019081526020016000206000015490506000600160008773ffffffffffffffffffffffffffffffffffffffff1673ffffffffffffffffffffffffffffffffffffffff16815260200190815260200160002060010160009054906101000a900460ff16905060006002811115610b8257fe5b816002811115610b8e57fe5b1415610c02576040517f08c379a00000000000000000000000000000000000000000000000000000000081526004018080602001828103825260158152602001807f6e6f2070756e6973686d656e7420616c6c6f776564000000000000000000000081525060200191505060405180910390fd5b610c0d8286836104c4565b9250610c198784610feb565b610c238686611137565b507fca93c648a4546f2ae486b9140f0082ced75a2664a663c8882b8b3545cddfeeb18787878688604051808673ffffffffffffffffffffffffffffffffffffffff1673ffffffffffffffffffffffffffffffffffffffff1681526020018573ffffffffffffffffffffffffffffffffffffffff1673ffffffffffffffffffffffffffffffffffffffff16815260200184815260200183815260200180602001828103825283818151815260200191508051906020019080838360005b83811015610cfa578082015181840152602081019050610cdf565b50505050905090810190601f168015610d275780820380516001836020036101000a031916815260200191505b50965050505050505060405180910390a18292505050949350505050565b610d4f83826111c4565b50610d586104a8565b73ffffffffffffffffffffffffffffffffffffffff166323b872dd8330846040518463ffffffff1660e01b8152600401808473ffffffffffffffffffffffffffffffffffffffff1673ffffffffffffffffffffffffffffffffffffffff1681526020018373ffffffffffffffffffffffffffffffffffffffff1673ffffffffffffffffffffffffffffffffffffffff1681526020018281526020019350505050602060405180830381600087803b158015610e1257600080fd5b505af1158015610e26573d6000803e3d6000fd5b505050506040513d6020811015610e3c57600080fd5b8101908080519060200190929190505050610ebf576040517f08c379a00000000000000000000000000000000000000000000000000000000081526004018080602001828103825260158152602001807f746f6b656e207472616e73666572206661696c6564000000000000000000000081525060200191505060405180910390fd5b7ffb8efd70c9f0ca009bfc9f2ca8a9256a5aefbc720bdb8d838e4bcd42c241b9eb838383604051808473ffffffffffffffffffffffffffffffffffffffff1673ffffffffffffffffffffffffffffffffffffffff1681526020018373ffffffffffffffffffffffffffffffffffffffff1673ffffffffffffffffffffffffffffffffffffffff168152602001828152602001935050505060405180910390a1505050565b600080828401905083811015610fe1576040517f08c379a000000000000000000000000000000000000000000000000000000000815260040180806020018281038252601b8152602001807f536166654d6174683a206164646974696f6e206f766572666c6f77000000000081525060200191505060405180910390fd5b8091505092915050565b731776e1f26f98b1a5df9cd347953a26dd3cb4667173ffffffffffffffffffffffffffffffffffffffff16637c8d56b883836040518363ffffffff1660e01b8152600401808373ffffffffffffffffffffffffffffffffffffffff1673ffffffffffffffffffffffffffffffffffffffff16815260200182815260200192505050602060405180830381600087803b15801561108657600080fd5b505af115801561109a573d6000803e3d6000fd5b505050506040513d60208110156110b057600080fd5b8101908080519060200190929190505050611133576040517f08c379a00000000000000000000000000000000000000000000000000000000081526004018080602001828103825260138152602001807f6e6d72206275726e46726f6d206661696c65640000000000000000000000000081525060200191505060405180910390fd5b5050565b60008061114484846112d8565b905061114f83611467565b7f659f33fc6677bebf3a9bf3101092792e31f35766d0358e54577bdd91a655f6a08484604051808373ffffffffffffffffffffffffffffffffffffffff1673ffffffffffffffffffffffffffffffffffffffff1681526020018281526020019250505060405180910390a18091505092915050565b6000611217826000808673ffffffffffffffffffffffffffffffffffffffff1673ffffffffffffffffffffffffffffffffffffffff16815260200190815260200160002054610f6390919063ffffffff16565b9050806000808573ffffffffffffffffffffffffffffffffffffffff1673ffffffffffffffffffffffffffffffffffffffff168152602001908152602001600020819055507f05ee66c5c291705b2a39786f7a3c9abb763a9c66336056b9e154be4aa0f31813838383604051808473ffffffffffffffffffffffffffffffffffffffff1673ffffffffffffffffffffffffffffffffffffffff168152602001838152602001828152602001935050505060405180910390a180905092915050565b6000806000808573ffffffffffffffffffffffffffffffffffffffff1673ffffffffffffffffffffffffffffffffffffffff16815260200190815260200160002054905082811015611392576040517f08c379a000000000000000000000000000000000000000000000000000000000815260040180806020018281038252601e8152602001807f696e73756666696369656e74206465706f73697420746f2072656d6f7665000081525060200191505060405180910390fd5b6113a5838261157e90919063ffffffff16565b9150816000808673ffffffffffffffffffffffffffffffffffffffff1673ffffffffffffffffffffffffffffffffffffffff168152602001908152602001600020819055507f51c54d09e3f09480ef3014ab9c0738a405a9f38ebca6b7f60ff3acbd22ed2b44848484604051808473ffffffffffffffffffffffffffffffffffffffff1673ffffffffffffffffffffffffffffffffffffffff168152602001838152602001828152602001935050505060405180910390a18191505092915050565b731776e1f26f98b1a5df9cd347953a26dd3cb4667173ffffffffffffffffffffffffffffffffffffffff1663a0712d68826040518263ffffffff1660e01b815260040180828152602001915050602060405180830381600087803b1580156114ce57600080fd5b505af11580156114e2573d6000803e3d6000fd5b505050506040513d60208110156114f857600080fd5b810190808051906020019092919050505061157b576040517f08c379a000000000000000000000000000000000000000000000000000000000815260040180806020018281038252600f8152602001807f6e6d72206275726e206661696c6564000000000000000000000000000000000081525060200191505060405180910390fd5b50565b6000828211156115f6576040517f08c379a000000000000000000000000000000000000000000000000000000000815260040180806020018281038252601e8152602001807f536166654d6174683a207375627472616374696f6e206f766572666c6f77000081525060200191505060405180910390fd5b60008284039050809150509291505056fe726174696f547970652063616e6e6f7420626520526174696f547970652e496e66536166654d6174683a206d756c7469706c69636174696f6e206f766572666c6f77726174696f547970652063616e6e6f7420626520526174696f547970652e4e614e726174696f206d7573742062652030207768656e20726174696f54797065206973204e614e206f7220496e66a265627a7a723158201c28e1b9d50432bc18835602087595b2b35eab1a4c4214c676b0a87edca3473064736f6c634300050d0032",
  "source": "pragma solidity ^0.5.13;\n\nimport \"../modules/Griefing.sol\";\n\n\ncontract TestGriefing is Griefing {\n\n    uint256 private _griefCost;\n\n    // expose the return value from _grief() to variable _griefCost\n    function getGriefCost() public view returns(uint256 griefCost) {\n        griefCost = _griefCost;\n    }\n\n    function addStake(address staker, address funder, uint256 amountToAdd) public {\n        Staking._addStake(staker, funder, amountToAdd);\n    }\n\n    function setRatio(address staker, uint256 ratio, RatioType ratioType) public {\n        Griefing._setRatio(staker, ratio, ratioType);\n    }\n\n    function grief(\n        address punisher,\n        address staker,\n        uint256 punishment,\n        bytes memory message\n    ) public {\n        _griefCost = Griefing._grief(punisher, staker, punishment, message);\n    }\n}\n",
  "sourcePath": "/home/kim/Code/Erasure/erasure-protocol/contracts/test-contracts/TestGriefing.sol",
  "compiler": {
    "name": "solc",
    "version": "0.5.13+commit.5b0b510c.Emscripten.clang",
    "optimizer": false,
    "runs": 200
  },
  "schemaVersion": "2.2.0",
  "updatedAt": "2019-11-23T03:57:38.414Z"
}