{
  "contractName": "TestMetadata",
  "abi": [
    {
      "constant": true,
      "inputs": [],
      "name": "getMetadata",
      "outputs": [
        {
          "internalType": "bytes",
          "name": "staticMetadata",
          "type": "bytes"
        },
        {
          "internalType": "bytes",
          "name": "variableMetadata",
          "type": "bytes"
        }
      ],
      "payable": false,
      "stateMutability": "view",
      "type": "function"
    },
    {
      "anonymous": false,
      "inputs": [
        {
          "indexed": false,
          "internalType": "bytes",
          "name": "staticMetadata",
          "type": "bytes"
        }
      ],
      "name": "StaticMetadataSet",
      "type": "event"
    },
    {
      "anonymous": false,
      "inputs": [
        {
          "indexed": false,
          "internalType": "bytes",
          "name": "variableMetadata",
          "type": "bytes"
        }
      ],
      "name": "VariableMetadataSet",
      "type": "event"
    },
    {
      "constant": false,
      "inputs": [
        {
          "internalType": "bytes",
          "name": "staticMetadata",
          "type": "bytes"
        }
      ],
      "name": "setStaticMetadata",
      "outputs": [],
      "payable": false,
      "stateMutability": "nonpayable",
      "type": "function"
    },
    {
      "constant": false,
      "inputs": [
        {
          "internalType": "bytes",
          "name": "variableMetadata",
          "type": "bytes"
        }
      ],
      "name": "setVariableMetadata",
      "outputs": [],
      "payable": false,
      "stateMutability": "nonpayable",
      "type": "function"
    }
  ],
  "bytecode": "0x608060405234801561001057600080fd5b50610619806100206000396000f3fe608060405234801561001057600080fd5b50600436106100415760003560e01c806327305e83146100465780634822168f146100ee5780637a5b4f5914610194575b600080fd5b6100ec6004803603602081101561005c57600080fd5b81019060208101813564010000000081111561007757600080fd5b82018360208201111561008957600080fd5b803590602001918460018302840111640100000000831117156100ab57600080fd5b91908080601f01602080910402602001604051908101604052809392919081815260200183838082843760009201919091525092955061027a945050505050565b005b6100ec6004803603602081101561010457600080fd5b81019060208101813564010000000081111561011f57600080fd5b82018360208201111561013157600080fd5b8035906020019184600183028401116401000000008311171561015357600080fd5b91908080601f016020809104026020016040519081016040528093929190818152602001838380828437600092019190915250929550610286945050505050565b61019c61028f565b604051808060200180602001838103835285818151815260200191508051906020019080838360005b838110156101dd5781810151838201526020016101c5565b50505050905090810190601f16801561020a5780820380516001836020036101000a031916815260200191505b50838103825284518152845160209182019186019080838360005b8381101561023d578181015183820152602001610225565b50505050905090810190601f16801561026a5780820380516001836020036101000a031916815260200191505b5094505050505060405180910390f35b610283816103b7565b50565b61028381610467565b6000805460408051602060026001851615610100026000190190941693909304601f810184900484028201840190925281815260609384939192909183018282801561031c5780601f106102f15761010080835404028352916020019161031c565b820191906000526020600020905b8154815290600101906020018083116102ff57829003601f168201915b505060018054604080516020601f600260001961010087891615020190951694909404938401819004810282018101909252828152969850919450925084019050828280156103ac5780601f10610381576101008083540402835291602001916103ac565b820191906000526020600020905b81548152906001019060200180831161038f57829003601f168201915b505050505090509091565b80516103ca906001906020840190610528565b507fec391f097a91107044327f7588bc67ac8b9daf871413fc181f768c437c66cda9816040518080602001828103825283818151815260200191508051906020019080838360005b8381101561042a578181015183820152602001610412565b50505050905090810190601f1680156104575780820380516001836020036101000a031916815260200191505b509250505060405180910390a150565b60005460026000196101006001841615020190911604156104b95760405162461bcd60e51b81526004018080602001828103825260218152602001806105c46021913960400191505060405180910390fd5b80516104cc906000906020840190610528565b5060408051602080825283518183015283517fd2bb68a4c0cbd7fabc3f8e787a6e54384db17d54dedeede61c35819f5f49edca93859392839291830191908501908083836000831561042a578181015183820152602001610412565b828054600181600116156101000203166002900490600052602060002090601f016020900481019282601f1061056957805160ff1916838001178555610596565b82800160010185558215610596579182015b8281111561059657825182559160200191906001019061057b565b506105a29291506105a6565b5090565b6105c091905b808211156105a257600081556001016105ac565b9056fe737461746963206d657461646174612063616e6e6f74206265206368616e676564a265627a7a72315820887838a2a1587d3c84b1f8ec4b7533789d64d28ef04b45840835da2a15249d9864736f6c634300050b0032",
  "source": "pragma solidity ^0.5.0;\n\nimport \"../modules/Metadata.sol\";\n\ncontract TestMetadata is Metadata {\n    function setStaticMetadata(bytes memory staticMetadata) public {\n       Metadata._setStaticMetadata(staticMetadata);\n    }\n\n    function setVariableMetadata(bytes memory variableMetadata) public {\n      Metadata._setVariableMetadata(variableMetadata);\n    }\n}\n",
  "sourcePath": "/home/kim/Code/Erasure/erasure-protocol/contracts/test-contracts/TestMetadata.sol",
  "compiler": {
    "name": "solc",
    "version": "0.5.11+commit.c082d0b4.Emscripten.clang",
    "optimizer": true,
    "runs": 200
  },
  "schemaVersion": "2.2.0",
  "updatedAt": "2019-11-06T06:43:53.789Z"
}