{
  "contractName": "TestCountdown",
  "abi": [
    {
      "anonymous": false,
      "inputs": [
        {
          "indexed": false,
          "internalType": "uint256",
          "name": "deadline",
          "type": "uint256"
        }
      ],
      "name": "DeadlineSet",
      "type": "event"
    },
    {
      "anonymous": false,
      "inputs": [
        {
          "indexed": false,
          "internalType": "uint256",
          "name": "length",
          "type": "uint256"
        }
      ],
      "name": "LengthSet",
      "type": "event"
    },
    {
      "constant": true,
      "inputs": [],
      "name": "getCountdownStatus",
      "outputs": [
        {
          "internalType": "enum Countdown.CountdownStatus",
          "name": "status",
          "type": "uint8"
        }
      ],
      "payable": false,
      "stateMutability": "view",
      "type": "function"
    },
    {
      "constant": true,
      "inputs": [],
      "name": "getDeadline",
      "outputs": [
        {
          "internalType": "uint256",
          "name": "deadline",
          "type": "uint256"
        }
      ],
      "payable": false,
      "stateMutability": "view",
      "type": "function"
    },
    {
      "constant": true,
      "inputs": [],
      "name": "getDeadlineStatus",
      "outputs": [
        {
          "internalType": "enum Deadline.DeadlineStatus",
          "name": "status",
          "type": "uint8"
        }
      ],
      "payable": false,
      "stateMutability": "view",
      "type": "function"
    },
    {
      "constant": true,
      "inputs": [],
      "name": "getLength",
      "outputs": [
        {
          "internalType": "uint256",
          "name": "length",
          "type": "uint256"
        }
      ],
      "payable": false,
      "stateMutability": "view",
      "type": "function"
    },
    {
      "constant": true,
      "inputs": [],
      "name": "getTimeRemaining",
      "outputs": [
        {
          "internalType": "uint256",
          "name": "time",
          "type": "uint256"
        }
      ],
      "payable": false,
      "stateMutability": "view",
      "type": "function"
    },
    {
      "constant": false,
      "inputs": [
        {
          "internalType": "uint256",
          "name": "deadline",
          "type": "uint256"
        }
      ],
      "name": "setDeadline",
      "outputs": [],
      "payable": false,
      "stateMutability": "nonpayable",
      "type": "function"
    },
    {
      "constant": false,
      "inputs": [
        {
          "internalType": "uint256",
          "name": "length",
          "type": "uint256"
        }
      ],
      "name": "setLength",
      "outputs": [],
      "payable": false,
      "stateMutability": "nonpayable",
      "type": "function"
    },
    {
      "constant": false,
      "inputs": [],
      "name": "start",
      "outputs": [],
      "payable": false,
      "stateMutability": "nonpayable",
      "type": "function"
    }
  ],
  "bytecode": "0x608060405234801561001057600080fd5b506104a4806100206000396000f3fe608060405234801561001057600080fd5b50600436106100885760003560e01c8063be1c766b1161005b578063be1c766b14610133578063be9a655514610151578063dac6270d1461015b578063de2229fe1461017957610088565b8063195199f61461008d57806319fbb48e146100bb5780635f8d96de146100e75780636495a72c14610105575b600080fd5b6100b9600480360360208110156100a357600080fd5b81019080803590602001909291905050506101a5565b005b6100c36101b1565b604051808260038111156100d357fe5b60ff16815260200191505060405180910390f35b6100ef61022a565b6040518082815260200191505060405180910390f35b6101316004803603602081101561011b57600080fd5b8101908080359060200190929190505050610233565b005b61013b61023f565b6040518082815260200191505060405180910390f35b610159610249565b005b610163610254565b6040518082815260200191505060405180910390f35b610181610284565b6040518082600281111561019157fe5b60ff16815260200191505060405180910390f35b6101ae816102b4565b50565b60008060015414156101c65760009050610227565b600060028111156101d357fe5b6101db610284565b60028111156101e657fe5b14156101f55760019050610227565b60028081111561020157fe5b610209610284565b600281111561021457fe5b146102225760029050610227565b600390505b90565b60008054905090565b61023c816102f5565b50565b6000600154905090565b610251610336565b50565b600042600054111561027c576102754260005461035e90919063ffffffff16565b9050610281565b600090505b90565b600080600054141561029957600090506102b1565b4260005411156102ac57600190506102b1565b600290505b90565b806000819055507f337b880688eb06df8adb77036a6c8def1da2b520bc901c04b3a5a23f9ae13039816040518082815260200191505060405180910390a150565b806001819055507f7caceb1091bbaa84d09ab116a1fd72387eaab8a33d70fc39168b9b75686ee32c816040518082815260200191505060405180910390a150565b600061034d426001546103e790919063ffffffff16565b9050610358816102b4565b80905090565b6000828211156103d6576040517f08c379a000000000000000000000000000000000000000000000000000000000815260040180806020018281038252601e8152602001807f536166654d6174683a207375627472616374696f6e206f766572666c6f77000081525060200191505060405180910390fd5b600082840390508091505092915050565b600080828401905083811015610465576040517f08c379a000000000000000000000000000000000000000000000000000000000815260040180806020018281038252601b8152602001807f536166654d6174683a206164646974696f6e206f766572666c6f77000000000081525060200191505060405180910390fd5b809150509291505056fea265627a7a723158208f6dcabe97d02c59d756ddd2ec9a2fbdcd7e7903bac5bbf3f7d1bd63b21d725c64736f6c634300050d0032",
  "source": "pragma solidity ^0.5.13;\n\nimport \"../modules/Countdown.sol\";\n\ncontract TestCountdown is Countdown {\n\n    function setDeadline(uint256 deadline) public {\n        Deadline._setDeadline(deadline);\n    }\n\n    function setLength(uint256 length) public {\n        Countdown._setLength(length);\n    }\n\n    function start() public {\n        Countdown._start();\n    }\n}\n",
  "sourcePath": "/home/kim/Code/Erasure/erasure-protocol/contracts/test-contracts/TestCountdown.sol",
  "compiler": {
    "name": "solc",
    "version": "0.5.13+commit.5b0b510c.Emscripten.clang",
    "optimizer": false,
    "runs": 200
  },
  "schemaVersion": "2.2.0",
  "updatedAt": "2019-11-23T03:57:38.394Z"
}